{
	"contracts/StorageFactory.sol": {
		"StorageFactory": {
			"abi": [
				{
					"inputs": [],
					"stateMutability": "nonpayable",
					"type": "constructor"
				},
				{
					"inputs": [],
					"name": "CreateNewSimpleStorageContact",
					"outputs": [],
					"stateMutability": "nonpayable",
					"type": "function"
				},
				{
					"inputs": [
						{
							"internalType": "uint256",
							"name": "_favNumber",
							"type": "uint256"
						}
					],
					"name": "callStoreFromSimpleStorage",
					"outputs": [],
					"stateMutability": "nonpayable",
					"type": "function"
				},
				{
					"inputs": [],
					"name": "getFavFromSimpleStorage",
					"outputs": [
						{
							"internalType": "uint256",
							"name": "",
							"type": "uint256"
						}
					],
					"stateMutability": "view",
					"type": "function"
				},
				{
					"inputs": [],
					"name": "simpleStorage",
					"outputs": [
						{
							"internalType": "contract SimpleStorage",
							"name": "",
							"type": "address"
						}
					],
					"stateMutability": "view",
					"type": "function"
				}
			],
			"devdoc": {
				"kind": "dev",
				"methods": {},
				"version": 1
			},
			"evm": {
				"assembly": "    /* \"contracts/StorageFactory.sol\":95:596  contract StorageFactory {\r... */\n  mstore(0x40, 0x80)\n    /* \"contracts/StorageFactory.sol\":169:236  constructor(){\r... */\n  callvalue\n  dup1\n  iszero\n  tag_1\n  jumpi\n  0x00\n  dup1\n  revert\ntag_1:\n  pop\n    /* \"contracts/StorageFactory.sol\":209:228  new SimpleStorage() */\n  mload(0x40)\n  tag_4\n  swap1\n  tag_5\n  jump\t// in\ntag_4:\n  mload(0x40)\n  dup1\n  swap2\n  sub\n  swap1\n  0x00\n  create\n  dup1\n  iszero\n  dup1\n  iszero\n  tag_6\n  jumpi\n  returndatasize\n  0x00\n  dup1\n  returndatacopy\n  revert(0x00, returndatasize)\ntag_6:\n  pop\n    /* \"contracts/StorageFactory.sol\":193:206  simpleStorage */\n  0x00\n  dup1\n    /* \"contracts/StorageFactory.sol\":193:228  simpleStorage = new SimpleStorage() */\n  0x0100\n  exp\n  dup2\n  sload\n  dup2\n  0xffffffffffffffffffffffffffffffffffffffff\n  mul\n  not\n  and\n  swap1\n  dup4\n  0xffffffffffffffffffffffffffffffffffffffff\n  and\n  mul\n  or\n  swap1\n  sstore\n  pop\n    /* \"contracts/StorageFactory.sol\":95:596  contract StorageFactory {\r... */\n  jump(tag_7)\ntag_5:\n  dataSize(sub_1)\n  dup1\n  dataOffset(sub_1)\n  dup4\n  codecopy\n  add\n  swap1\n  jump\t// out\ntag_7:\n  dataSize(sub_0)\n  dup1\n  dataOffset(sub_0)\n  0x00\n  codecopy\n  0x00\n  return\nstop\n\nsub_0: assembly {\n        /* \"contracts/StorageFactory.sol\":95:596  contract StorageFactory {\r... */\n      mstore(0x40, 0x80)\n      callvalue\n      dup1\n      iszero\n      tag_1\n      jumpi\n      0x00\n      dup1\n      revert\n    tag_1:\n      pop\n      jumpi(tag_2, lt(calldatasize, 0x04))\n      shr(0xe0, calldataload(0x00))\n      dup1\n      0x1e7e25b7\n      eq\n      tag_3\n      jumpi\n      dup1\n      0x21fa92ec\n      eq\n      tag_4\n      jumpi\n      dup1\n      0x4678a3b1\n      eq\n      tag_5\n      jumpi\n      dup1\n      0x6be0d6bf\n      eq\n      tag_6\n      jumpi\n    tag_2:\n      0x00\n      dup1\n      revert\n        /* \"contracts/StorageFactory.sol\":481:593  function callStoreFromSimpleStorage (uint256 _favNumber) public{\r... */\n    tag_3:\n      tag_7\n      0x04\n      dup1\n      calldatasize\n      sub\n      dup2\n      add\n      swap1\n      tag_8\n      swap2\n      swap1\n      tag_9\n      jump\t// in\n    tag_8:\n      tag_10\n      jump\t// in\n    tag_7:\n      stop\n        /* \"contracts/StorageFactory.sol\":357:474  function getFavFromSimpleStorage() public view returns(uint256){\r... */\n    tag_4:\n      tag_11\n      tag_12\n      jump\t// in\n    tag_11:\n      mload(0x40)\n      tag_13\n      swap2\n      swap1\n      tag_14\n      jump\t// in\n    tag_13:\n      mload(0x40)\n      dup1\n      swap2\n      sub\n      swap1\n      return\n        /* \"contracts/StorageFactory.sol\":244:349  function CreateNewSimpleStorageContact() public {\r... */\n    tag_5:\n      tag_15\n      tag_16\n      jump\t// in\n    tag_15:\n      stop\n        /* \"contracts/StorageFactory.sol\":126:160  SimpleStorage public simpleStorage */\n    tag_6:\n      tag_17\n      tag_18\n      jump\t// in\n    tag_17:\n      mload(0x40)\n      tag_19\n      swap2\n      swap1\n      tag_20\n      jump\t// in\n    tag_19:\n      mload(0x40)\n      dup1\n      swap2\n      sub\n      swap1\n      return\n        /* \"contracts/StorageFactory.sol\":481:593  function callStoreFromSimpleStorage (uint256 _favNumber) public{\r... */\n    tag_10:\n        /* \"contracts/StorageFactory.sol\":554:567  simpleStorage */\n      0x00\n      dup1\n      sload\n      swap1\n      0x0100\n      exp\n      swap1\n      div\n      0xffffffffffffffffffffffffffffffffffffffff\n      and\n        /* \"contracts/StorageFactory.sol\":554:573  simpleStorage.store */\n      0xffffffffffffffffffffffffffffffffffffffff\n      and\n      0x6057361d\n        /* \"contracts/StorageFactory.sol\":574:584  _favNumber */\n      dup3\n        /* \"contracts/StorageFactory.sol\":554:585  simpleStorage.store(_favNumber) */\n      mload(0x40)\n      dup3\n      0xffffffff\n      and\n      0xe0\n      shl\n      dup2\n      mstore\n      0x04\n      add\n      tag_22\n      swap2\n      swap1\n      tag_14\n      jump\t// in\n    tag_22:\n      0x00\n      mload(0x40)\n      dup1\n      dup4\n      sub\n      dup2\n      0x00\n      dup8\n      dup1\n      extcodesize\n      iszero\n      dup1\n      iszero\n      tag_23\n      jumpi\n      0x00\n      dup1\n      revert\n    tag_23:\n      pop\n      gas\n      call\n      iszero\n      dup1\n      iszero\n      tag_25\n      jumpi\n      returndatasize\n      0x00\n      dup1\n      returndatacopy\n      revert(0x00, returndatasize)\n    tag_25:\n      pop\n      pop\n      pop\n      pop\n        /* \"contracts/StorageFactory.sol\":481:593  function callStoreFromSimpleStorage (uint256 _favNumber) public{\r... */\n      pop\n      jump\t// out\n        /* \"contracts/StorageFactory.sol\":357:474  function getFavFromSimpleStorage() public view returns(uint256){\r... */\n    tag_12:\n        /* \"contracts/StorageFactory.sol\":412:419  uint256 */\n      0x00\n        /* \"contracts/StorageFactory.sol\":438:451  simpleStorage */\n      dup1\n      0x00\n      swap1\n      sload\n      swap1\n      0x0100\n      exp\n      swap1\n      div\n      0xffffffffffffffffffffffffffffffffffffffff\n      and\n        /* \"contracts/StorageFactory.sol\":438:464  simpleStorage.getFavNumber */\n      0xffffffffffffffffffffffffffffffffffffffff\n      and\n      0x012d45ae\n        /* \"contracts/StorageFactory.sol\":438:466  simpleStorage.getFavNumber() */\n      mload(0x40)\n      dup2\n      0xffffffff\n      and\n      0xe0\n      shl\n      dup2\n      mstore\n      0x04\n      add\n      0x20\n      mload(0x40)\n      dup1\n      dup4\n      sub\n      dup2\n      dup7\n      dup1\n      extcodesize\n      iszero\n      dup1\n      iszero\n      tag_27\n      jumpi\n      0x00\n      dup1\n      revert\n    tag_27:\n      pop\n      gas\n      staticcall\n      iszero\n      dup1\n      iszero\n      tag_29\n      jumpi\n      returndatasize\n      0x00\n      dup1\n      returndatacopy\n      revert(0x00, returndatasize)\n    tag_29:\n      pop\n      pop\n      pop\n      pop\n      mload(0x40)\n      returndatasize\n      not(0x1f)\n      0x1f\n      dup3\n      add\n      and\n      dup3\n      add\n      dup1\n      0x40\n      mstore\n      pop\n      dup2\n      add\n      swap1\n      tag_30\n      swap2\n      swap1\n      tag_31\n      jump\t// in\n    tag_30:\n        /* \"contracts/StorageFactory.sol\":431:466  return simpleStorage.getFavNumber() */\n      swap1\n      pop\n        /* \"contracts/StorageFactory.sol\":357:474  function getFavFromSimpleStorage() public view returns(uint256){\r... */\n      swap1\n      jump\t// out\n        /* \"contracts/StorageFactory.sol\":244:349  function CreateNewSimpleStorageContact() public {\r... */\n    tag_16:\n        /* \"contracts/StorageFactory.sol\":322:341  new SimpleStorage() */\n      mload(0x40)\n      tag_33\n      swap1\n      tag_34\n      jump\t// in\n    tag_33:\n      mload(0x40)\n      dup1\n      swap2\n      sub\n      swap1\n      0x00\n      create\n      dup1\n      iszero\n      dup1\n      iszero\n      tag_35\n      jumpi\n      returndatasize\n      0x00\n      dup1\n      returndatacopy\n      revert(0x00, returndatasize)\n    tag_35:\n      pop\n        /* \"contracts/StorageFactory.sol\":306:319  simpleStorage */\n      0x00\n      dup1\n        /* \"contracts/StorageFactory.sol\":306:341  simpleStorage = new SimpleStorage() */\n      0x0100\n      exp\n      dup2\n      sload\n      dup2\n      0xffffffffffffffffffffffffffffffffffffffff\n      mul\n      not\n      and\n      swap1\n      dup4\n      0xffffffffffffffffffffffffffffffffffffffff\n      and\n      mul\n      or\n      swap1\n      sstore\n      pop\n        /* \"contracts/StorageFactory.sol\":244:349  function CreateNewSimpleStorageContact() public {\r... */\n      jump\t// out\n        /* \"contracts/StorageFactory.sol\":126:160  SimpleStorage public simpleStorage */\n    tag_18:\n      0x00\n      dup1\n      sload\n      swap1\n      0x0100\n      exp\n      swap1\n      div\n      0xffffffffffffffffffffffffffffffffffffffff\n      and\n      dup2\n      jump\t// out\n    tag_34:\n      dataSize(sub_0)\n      dup1\n      dataOffset(sub_0)\n      dup4\n      codecopy\n      add\n      swap1\n      jump\t// out\n        /* \"#utility.yul\":7:146   */\n    tag_37:\n        /* \"#utility.yul\":53:58   */\n      0x00\n        /* \"#utility.yul\":91:97   */\n      dup2\n        /* \"#utility.yul\":78:98   */\n      calldataload\n        /* \"#utility.yul\":69:98   */\n      swap1\n      pop\n        /* \"#utility.yul\":107:140   */\n      tag_39\n        /* \"#utility.yul\":134:139   */\n      dup2\n        /* \"#utility.yul\":107:140   */\n      tag_40\n      jump\t// in\n    tag_39:\n        /* \"#utility.yul\":7:146   */\n      swap3\n      swap2\n      pop\n      pop\n      jump\t// out\n        /* \"#utility.yul\":152:295   */\n    tag_41:\n        /* \"#utility.yul\":209:214   */\n      0x00\n        /* \"#utility.yul\":240:246   */\n      dup2\n        /* \"#utility.yul\":234:247   */\n      mload\n        /* \"#utility.yul\":225:247   */\n      swap1\n      pop\n        /* \"#utility.yul\":256:289   */\n      tag_43\n        /* \"#utility.yul\":283:288   */\n      dup2\n        /* \"#utility.yul\":256:289   */\n      tag_40\n      jump\t// in\n    tag_43:\n        /* \"#utility.yul\":152:295   */\n      swap3\n      swap2\n      pop\n      pop\n      jump\t// out\n        /* \"#utility.yul\":301:630   */\n    tag_9:\n        /* \"#utility.yul\":360:366   */\n      0x00\n        /* \"#utility.yul\":409:411   */\n      0x20\n        /* \"#utility.yul\":397:406   */\n      dup3\n        /* \"#utility.yul\":388:395   */\n      dup5\n        /* \"#utility.yul\":384:407   */\n      sub\n        /* \"#utility.yul\":380:412   */\n      slt\n        /* \"#utility.yul\":377:496   */\n      iszero\n      tag_45\n      jumpi\n        /* \"#utility.yul\":415:494   */\n      tag_46\n      tag_47\n      jump\t// in\n    tag_46:\n        /* \"#utility.yul\":377:496   */\n    tag_45:\n        /* \"#utility.yul\":535:536   */\n      0x00\n        /* \"#utility.yul\":560:613   */\n      tag_48\n        /* \"#utility.yul\":605:612   */\n      dup5\n        /* \"#utility.yul\":596:602   */\n      dup3\n        /* \"#utility.yul\":585:594   */\n      dup6\n        /* \"#utility.yul\":581:603   */\n      add\n        /* \"#utility.yul\":560:613   */\n      tag_37\n      jump\t// in\n    tag_48:\n        /* \"#utility.yul\":550:613   */\n      swap2\n      pop\n        /* \"#utility.yul\":506:623   */\n      pop\n        /* \"#utility.yul\":301:630   */\n      swap3\n      swap2\n      pop\n      pop\n      jump\t// out\n        /* \"#utility.yul\":636:987   */\n    tag_31:\n        /* \"#utility.yul\":706:712   */\n      0x00\n        /* \"#utility.yul\":755:757   */\n      0x20\n        /* \"#utility.yul\":743:752   */\n      dup3\n        /* \"#utility.yul\":734:741   */\n      dup5\n        /* \"#utility.yul\":730:753   */\n      sub\n        /* \"#utility.yul\":726:758   */\n      slt\n        /* \"#utility.yul\":723:842   */\n      iszero\n      tag_50\n      jumpi\n        /* \"#utility.yul\":761:840   */\n      tag_51\n      tag_47\n      jump\t// in\n    tag_51:\n        /* \"#utility.yul\":723:842   */\n    tag_50:\n        /* \"#utility.yul\":881:882   */\n      0x00\n        /* \"#utility.yul\":906:970   */\n      tag_52\n        /* \"#utility.yul\":962:969   */\n      dup5\n        /* \"#utility.yul\":953:959   */\n      dup3\n        /* \"#utility.yul\":942:951   */\n      dup6\n        /* \"#utility.yul\":938:960   */\n      add\n        /* \"#utility.yul\":906:970   */\n      tag_41\n      jump\t// in\n    tag_52:\n        /* \"#utility.yul\":896:970   */\n      swap2\n      pop\n        /* \"#utility.yul\":852:980   */\n      pop\n        /* \"#utility.yul\":636:987   */\n      swap3\n      swap2\n      pop\n      pop\n      jump\t// out\n        /* \"#utility.yul\":993:1164   */\n    tag_53:\n        /* \"#utility.yul\":1100:1157   */\n      tag_55\n        /* \"#utility.yul\":1151:1156   */\n      dup2\n        /* \"#utility.yul\":1100:1157   */\n      tag_56\n      jump\t// in\n    tag_55:\n        /* \"#utility.yul\":1095:1098   */\n      dup3\n        /* \"#utility.yul\":1088:1158   */\n      mstore\n        /* \"#utility.yul\":993:1164   */\n      pop\n      pop\n      jump\t// out\n        /* \"#utility.yul\":1170:1288   */\n    tag_57:\n        /* \"#utility.yul\":1257:1281   */\n      tag_59\n        /* \"#utility.yul\":1275:1280   */\n      dup2\n        /* \"#utility.yul\":1257:1281   */\n      tag_60\n      jump\t// in\n    tag_59:\n        /* \"#utility.yul\":1252:1255   */\n      dup3\n        /* \"#utility.yul\":1245:1282   */\n      mstore\n        /* \"#utility.yul\":1170:1288   */\n      pop\n      pop\n      jump\t// out\n        /* \"#utility.yul\":1294:1556   */\n    tag_20:\n        /* \"#utility.yul\":1407:1411   */\n      0x00\n        /* \"#utility.yul\":1445:1447   */\n      0x20\n        /* \"#utility.yul\":1434:1443   */\n      dup3\n        /* \"#utility.yul\":1430:1448   */\n      add\n        /* \"#utility.yul\":1422:1448   */\n      swap1\n      pop\n        /* \"#utility.yul\":1458:1549   */\n      tag_62\n        /* \"#utility.yul\":1546:1547   */\n      0x00\n        /* \"#utility.yul\":1535:1544   */\n      dup4\n        /* \"#utility.yul\":1531:1548   */\n      add\n        /* \"#utility.yul\":1522:1528   */\n      dup5\n        /* \"#utility.yul\":1458:1549   */\n      tag_53\n      jump\t// in\n    tag_62:\n        /* \"#utility.yul\":1294:1556   */\n      swap3\n      swap2\n      pop\n      pop\n      jump\t// out\n        /* \"#utility.yul\":1562:1784   */\n    tag_14:\n        /* \"#utility.yul\":1655:1659   */\n      0x00\n        /* \"#utility.yul\":1693:1695   */\n      0x20\n        /* \"#utility.yul\":1682:1691   */\n      dup3\n        /* \"#utility.yul\":1678:1696   */\n      add\n        /* \"#utility.yul\":1670:1696   */\n      swap1\n      pop\n        /* \"#utility.yul\":1706:1777   */\n      tag_64\n        /* \"#utility.yul\":1774:1775   */\n      0x00\n        /* \"#utility.yul\":1763:1772   */\n      dup4\n        /* \"#utility.yul\":1759:1776   */\n      add\n        /* \"#utility.yul\":1750:1756   */\n      dup5\n        /* \"#utility.yul\":1706:1777   */\n      tag_57\n      jump\t// in\n    tag_64:\n        /* \"#utility.yul\":1562:1784   */\n      swap3\n      swap2\n      pop\n      pop\n      jump\t// out\n        /* \"#utility.yul\":1871:1997   */\n    tag_67:\n        /* \"#utility.yul\":1908:1915   */\n      0x00\n        /* \"#utility.yul\":1948:1990   */\n      0xffffffffffffffffffffffffffffffffffffffff\n        /* \"#utility.yul\":1941:1946   */\n      dup3\n        /* \"#utility.yul\":1937:1991   */\n      and\n        /* \"#utility.yul\":1926:1991   */\n      swap1\n      pop\n        /* \"#utility.yul\":1871:1997   */\n      swap2\n      swap1\n      pop\n      jump\t// out\n        /* \"#utility.yul\":2003:2080   */\n    tag_60:\n        /* \"#utility.yul\":2040:2047   */\n      0x00\n        /* \"#utility.yul\":2069:2074   */\n      dup2\n        /* \"#utility.yul\":2058:2074   */\n      swap1\n      pop\n        /* \"#utility.yul\":2003:2080   */\n      swap2\n      swap1\n      pop\n      jump\t// out\n        /* \"#utility.yul\":2086:2232   */\n    tag_56:\n        /* \"#utility.yul\":2156:2165   */\n      0x00\n        /* \"#utility.yul\":2189:2226   */\n      tag_71\n        /* \"#utility.yul\":2220:2225   */\n      dup3\n        /* \"#utility.yul\":2189:2226   */\n      tag_72\n      jump\t// in\n    tag_71:\n        /* \"#utility.yul\":2176:2226   */\n      swap1\n      pop\n        /* \"#utility.yul\":2086:2232   */\n      swap2\n      swap1\n      pop\n      jump\t// out\n        /* \"#utility.yul\":2238:2364   */\n    tag_72:\n        /* \"#utility.yul\":2288:2297   */\n      0x00\n        /* \"#utility.yul\":2321:2358   */\n      tag_74\n        /* \"#utility.yul\":2352:2357   */\n      dup3\n        /* \"#utility.yul\":2321:2358   */\n      tag_75\n      jump\t// in\n    tag_74:\n        /* \"#utility.yul\":2308:2358   */\n      swap1\n      pop\n        /* \"#utility.yul\":2238:2364   */\n      swap2\n      swap1\n      pop\n      jump\t// out\n        /* \"#utility.yul\":2370:2483   */\n    tag_75:\n        /* \"#utility.yul\":2420:2429   */\n      0x00\n        /* \"#utility.yul\":2453:2477   */\n      tag_77\n        /* \"#utility.yul\":2471:2476   */\n      dup3\n        /* \"#utility.yul\":2453:2477   */\n      tag_67\n      jump\t// in\n    tag_77:\n        /* \"#utility.yul\":2440:2477   */\n      swap1\n      pop\n        /* \"#utility.yul\":2370:2483   */\n      swap2\n      swap1\n      pop\n      jump\t// out\n        /* \"#utility.yul\":2612:2729   */\n    tag_47:\n        /* \"#utility.yul\":2721:2722   */\n      0x00\n        /* \"#utility.yul\":2718:2719   */\n      dup1\n        /* \"#utility.yul\":2711:2723   */\n      revert\n        /* \"#utility.yul\":2735:2857   */\n    tag_40:\n        /* \"#utility.yul\":2808:2832   */\n      tag_82\n        /* \"#utility.yul\":2826:2831   */\n      dup2\n        /* \"#utility.yul\":2808:2832   */\n      tag_60\n      jump\t// in\n    tag_82:\n        /* \"#utility.yul\":2801:2806   */\n      dup2\n        /* \"#utility.yul\":2798:2833   */\n      eq\n        /* \"#utility.yul\":2788:2851   */\n      tag_83\n      jumpi\n        /* \"#utility.yul\":2847:2848   */\n      0x00\n        /* \"#utility.yul\":2844:2845   */\n      dup1\n        /* \"#utility.yul\":2837:2849   */\n      revert\n        /* \"#utility.yul\":2788:2851   */\n    tag_83:\n        /* \"#utility.yul\":2735:2857   */\n      pop\n      jump\t// out\n    stop\n\n    sub_0: assembly {\n            /* \"contracts/SimpleStorage.sol\":98:811  contract SimpleStorage {  \r... */\n          mstore(0x40, 0x80)\n          callvalue\n          dup1\n          iszero\n          tag_1\n          jumpi\n          0x00\n          dup1\n          revert\n        tag_1:\n          pop\n          dataSize(sub_0)\n          dup1\n          dataOffset(sub_0)\n          0x00\n          codecopy\n          0x00\n          return\n        stop\n\n        sub_0: assembly {\n                /* \"contracts/SimpleStorage.sol\":98:811  contract SimpleStorage {  \r... */\n              mstore(0x40, 0x80)\n              callvalue\n              dup1\n              iszero\n              tag_1\n              jumpi\n              0x00\n              dup1\n              revert\n            tag_1:\n              pop\n              jumpi(tag_2, lt(calldatasize, 0x04))\n              shr(0xe0, calldataload(0x00))\n              dup1\n              0x012d45ae\n              eq\n              tag_3\n              jumpi\n              dup1\n              0x092a1820\n              eq\n              tag_4\n              jumpi\n              dup1\n              0x6057361d\n              eq\n              tag_5\n              jumpi\n              dup1\n              0xc7a0d9f6\n              eq\n              tag_6\n              jumpi\n              dup1\n              0xe907247c\n              eq\n              tag_7\n              jumpi\n              dup1\n              0xfe5be356\n              eq\n              tag_8\n              jumpi\n            tag_2:\n              0x00\n              dup1\n              revert\n                /* \"contracts/SimpleStorage.sol\":721:808  function getFavNumber() public view returns(uint256){\r... */\n            tag_3:\n              tag_9\n              tag_10\n              jump\t// in\n            tag_9:\n              mload(0x40)\n              tag_11\n              swap2\n              swap1\n              tag_12\n              jump\t// in\n            tag_11:\n              mload(0x40)\n              dup1\n              swap2\n              sub\n              swap1\n              return\n                /* \"contracts/SimpleStorage.sol\":483:505  People[] public person */\n            tag_4:\n              tag_13\n              0x04\n              dup1\n              calldatasize\n              sub\n              dup2\n              add\n              swap1\n              tag_14\n              swap2\n              swap1\n              tag_15\n              jump\t// in\n            tag_14:\n              tag_16\n              jump\t// in\n            tag_13:\n              mload(0x40)\n              tag_17\n              swap3\n              swap2\n              swap1\n              tag_18\n              jump\t// in\n            tag_17:\n              mload(0x40)\n              dup1\n              swap2\n              sub\n              swap1\n              return\n                /* \"contracts/SimpleStorage.sol\":195:278  function store (uint256 _favNumber) public{\r... */\n            tag_5:\n              tag_19\n              0x04\n              dup1\n              calldatasize\n              sub\n              dup2\n              add\n              swap1\n              tag_20\n              swap2\n              swap1\n              tag_15\n              jump\t// in\n            tag_20:\n              tag_21\n              jump\t// in\n            tag_19:\n              stop\n                /* \"contracts/SimpleStorage.sol\":162:186  uint256 public favNumber */\n            tag_6:\n              tag_22\n              tag_23\n              jump\t// in\n            tag_22:\n              mload(0x40)\n              tag_24\n              swap2\n              swap1\n              tag_12\n              jump\t// in\n            tag_24:\n              mload(0x40)\n              dup1\n              swap2\n              sub\n              swap1\n              return\n                /* \"contracts/SimpleStorage.sol\":284:326  mapping(string => People) public getPerson */\n            tag_7:\n              tag_25\n              0x04\n              dup1\n              calldatasize\n              sub\n              dup2\n              add\n              swap1\n              tag_26\n              swap2\n              swap1\n              tag_27\n              jump\t// in\n            tag_26:\n              tag_28\n              jump\t// in\n            tag_25:\n              mload(0x40)\n              tag_29\n              swap3\n              swap2\n              swap1\n              tag_18\n              jump\t// in\n            tag_29:\n              mload(0x40)\n              dup1\n              swap2\n              sub\n              swap1\n              return\n                /* \"contracts/SimpleStorage.sol\":516:713  function createNewPerson(uint256 age, string memory name) public{\r... */\n            tag_8:\n              tag_30\n              0x04\n              dup1\n              calldatasize\n              sub\n              dup2\n              add\n              swap1\n              tag_31\n              swap2\n              swap1\n              tag_32\n              jump\t// in\n            tag_31:\n              tag_33\n              jump\t// in\n            tag_30:\n              stop\n                /* \"contracts/SimpleStorage.sol\":721:808  function getFavNumber() public view returns(uint256){\r... */\n            tag_10:\n                /* \"contracts/SimpleStorage.sol\":765:772  uint256 */\n              0x00\n                /* \"contracts/SimpleStorage.sol\":791:800  favNumber */\n              dup1\n              sload\n                /* \"contracts/SimpleStorage.sol\":784:800  return favNumber */\n              swap1\n              pop\n                /* \"contracts/SimpleStorage.sol\":721:808  function getFavNumber() public view returns(uint256){\r... */\n              swap1\n              jump\t// out\n                /* \"contracts/SimpleStorage.sol\":483:505  People[] public person */\n            tag_16:\n              0x02\n              dup2\n              dup2\n              sload\n              dup2\n              lt\n              tag_35\n              jumpi\n              0x00\n              dup1\n              revert\n            tag_35:\n              swap1\n              0x00\n              mstore\n              keccak256(0x00, 0x20)\n              swap1\n              0x02\n              mul\n              add\n              0x00\n              swap2\n              pop\n              swap1\n              pop\n              dup1\n              0x00\n              add\n              sload\n              swap1\n              dup1\n              0x01\n              add\n              dup1\n              sload\n              tag_37\n              swap1\n              tag_38\n              jump\t// in\n            tag_37:\n              dup1\n              0x1f\n              add\n              0x20\n              dup1\n              swap2\n              div\n              mul\n              0x20\n              add\n              mload(0x40)\n              swap1\n              dup2\n              add\n              0x40\n              mstore\n              dup1\n              swap3\n              swap2\n              swap1\n              dup2\n              dup2\n              mstore\n              0x20\n              add\n              dup3\n              dup1\n              sload\n              tag_39\n              swap1\n              tag_38\n              jump\t// in\n            tag_39:\n              dup1\n              iszero\n              tag_40\n              jumpi\n              dup1\n              0x1f\n              lt\n              tag_41\n              jumpi\n              0x0100\n              dup1\n              dup4\n              sload\n              div\n              mul\n              dup4\n              mstore\n              swap2\n              0x20\n              add\n              swap2\n              jump(tag_40)\n            tag_41:\n              dup3\n              add\n              swap2\n              swap1\n              0x00\n              mstore\n              keccak256(0x00, 0x20)\n              swap1\n            tag_42:\n              dup2\n              sload\n              dup2\n              mstore\n              swap1\n              0x01\n              add\n              swap1\n              0x20\n              add\n              dup1\n              dup4\n              gt\n              tag_42\n              jumpi\n              dup3\n              swap1\n              sub\n              0x1f\n              and\n              dup3\n              add\n              swap2\n            tag_40:\n              pop\n              pop\n              pop\n              pop\n              pop\n              swap1\n              pop\n              dup3\n              jump\t// out\n                /* \"contracts/SimpleStorage.sol\":195:278  function store (uint256 _favNumber) public{\r... */\n            tag_21:\n                /* \"contracts/SimpleStorage.sol\":260:270  _favNumber */\n              dup1\n                /* \"contracts/SimpleStorage.sol\":248:257  favNumber */\n              0x00\n                /* \"contracts/SimpleStorage.sol\":248:270  favNumber = _favNumber */\n              dup2\n              swap1\n              sstore\n              pop\n                /* \"contracts/SimpleStorage.sol\":195:278  function store (uint256 _favNumber) public{\r... */\n              pop\n              jump\t// out\n                /* \"contracts/SimpleStorage.sol\":162:186  uint256 public favNumber */\n            tag_23:\n              sload(0x00)\n              dup2\n              jump\t// out\n                /* \"contracts/SimpleStorage.sol\":284:326  mapping(string => People) public getPerson */\n            tag_28:\n              0x01\n              dup2\n              dup1\n              mload\n              0x20\n              dup2\n              add\n              dup3\n              add\n              dup1\n              mload\n              dup5\n              dup3\n              mstore\n              0x20\n              dup4\n              add\n              0x20\n              dup6\n              add\n              keccak256\n              dup2\n              dup4\n              mstore\n              dup1\n              swap6\n              pop\n              pop\n              pop\n              pop\n              pop\n              pop\n              0x00\n              swap2\n              pop\n              swap1\n              pop\n              dup1\n              0x00\n              add\n              sload\n              swap1\n              dup1\n              0x01\n              add\n              dup1\n              sload\n              tag_44\n              swap1\n              tag_38\n              jump\t// in\n            tag_44:\n              dup1\n              0x1f\n              add\n              0x20\n              dup1\n              swap2\n              div\n              mul\n              0x20\n              add\n              mload(0x40)\n              swap1\n              dup2\n              add\n              0x40\n              mstore\n              dup1\n              swap3\n              swap2\n              swap1\n              dup2\n              dup2\n              mstore\n              0x20\n              add\n              dup3\n              dup1\n              sload\n              tag_45\n              swap1\n              tag_38\n              jump\t// in\n            tag_45:\n              dup1\n              iszero\n              tag_46\n              jumpi\n              dup1\n              0x1f\n              lt\n              tag_47\n              jumpi\n              0x0100\n              dup1\n              dup4\n              sload\n              div\n              mul\n              dup4\n              mstore\n              swap2\n              0x20\n              add\n              swap2\n              jump(tag_46)\n            tag_47:\n              dup3\n              add\n              swap2\n              swap1\n              0x00\n              mstore\n              keccak256(0x00, 0x20)\n              swap1\n            tag_48:\n              dup2\n              sload\n              dup2\n              mstore\n              swap1\n              0x01\n              add\n              swap1\n              0x20\n              add\n              dup1\n              dup4\n              gt\n              tag_48\n              jumpi\n              dup3\n              swap1\n              sub\n              0x1f\n              and\n              dup3\n              add\n              swap2\n            tag_46:\n              pop\n              pop\n              pop\n              pop\n              pop\n              swap1\n              pop\n              dup3\n              jump\t// out\n                /* \"contracts/SimpleStorage.sol\":516:713  function createNewPerson(uint256 age, string memory name) public{\r... */\n            tag_33:\n                /* \"contracts/SimpleStorage.sol\":591:614  People memory newPerson */\n              0x00\n                /* \"contracts/SimpleStorage.sol\":617:634  People(age, name) */\n              mload(0x40)\n              dup1\n              0x40\n              add\n              0x40\n              mstore\n              dup1\n                /* \"contracts/SimpleStorage.sol\":624:627  age */\n              dup5\n                /* \"contracts/SimpleStorage.sol\":617:634  People(age, name) */\n              dup2\n              mstore\n              0x20\n              add\n                /* \"contracts/SimpleStorage.sol\":629:633  name */\n              dup4\n                /* \"contracts/SimpleStorage.sol\":617:634  People(age, name) */\n              dup2\n              mstore\n              pop\n                /* \"contracts/SimpleStorage.sol\":591:634  People memory newPerson = People(age, name) */\n              swap1\n              pop\n                /* \"contracts/SimpleStorage.sol\":645:651  person */\n              0x02\n                /* \"contracts/SimpleStorage.sol\":657:666  newPerson */\n              dup2\n                /* \"contracts/SimpleStorage.sol\":645:667  person.push(newPerson) */\n              swap1\n              dup1\n              0x01\n              dup2\n              sload\n              add\n              dup1\n              dup3\n              sstore\n              dup1\n              swap2\n              pop\n              pop\n              0x01\n              swap1\n              sub\n              swap1\n              0x00\n              mstore\n              keccak256(0x00, 0x20)\n              swap1\n              0x02\n              mul\n              add\n              0x00\n              swap1\n              swap2\n              swap1\n              swap2\n              swap1\n              swap2\n              pop\n              0x00\n              dup3\n              add\n              mload\n              dup2\n              0x00\n              add\n              sstore\n              0x20\n              dup3\n              add\n              mload\n              dup2\n              0x01\n              add\n              swap1\n              dup1\n              mload\n              swap1\n              0x20\n              add\n              swap1\n              tag_51\n              swap3\n              swap2\n              swap1\n              tag_52\n              jump\t// in\n            tag_51:\n              pop\n              pop\n              pop\n                /* \"contracts/SimpleStorage.sol\":696:705  newPerson */\n              dup1\n                /* \"contracts/SimpleStorage.sol\":678:687  getPerson */\n              0x01\n                /* \"contracts/SimpleStorage.sol\":688:692  name */\n              dup4\n                /* \"contracts/SimpleStorage.sol\":678:693  getPerson[name] */\n              mload(0x40)\n              tag_53\n              swap2\n              swap1\n              tag_54\n              jump\t// in\n            tag_53:\n              swap1\n              dup2\n              mstore\n              0x20\n              add\n              mload(0x40)\n              dup1\n              swap2\n              sub\n              swap1\n              keccak256\n                /* \"contracts/SimpleStorage.sol\":678:705  getPerson[name] = newPerson */\n              0x00\n              dup3\n              add\n              mload\n              dup2\n              0x00\n              add\n              sstore\n              0x20\n              dup3\n              add\n              mload\n              dup2\n              0x01\n              add\n              swap1\n              dup1\n              mload\n              swap1\n              0x20\n              add\n              swap1\n              tag_55\n              swap3\n              swap2\n              swap1\n              tag_52\n              jump\t// in\n            tag_55:\n              pop\n              swap1\n              pop\n              pop\n                /* \"contracts/SimpleStorage.sol\":580:713  {\r... */\n              pop\n                /* \"contracts/SimpleStorage.sol\":516:713  function createNewPerson(uint256 age, string memory name) public{\r... */\n              pop\n              pop\n              jump\t// out\n            tag_52:\n              dup3\n              dup1\n              sload\n              tag_56\n              swap1\n              tag_38\n              jump\t// in\n            tag_56:\n              swap1\n              0x00\n              mstore\n              keccak256(0x00, 0x20)\n              swap1\n              0x1f\n              add\n              0x20\n              swap1\n              div\n              dup2\n              add\n              swap3\n              dup3\n              tag_58\n              jumpi\n              0x00\n              dup6\n              sstore\n              jump(tag_57)\n            tag_58:\n              dup3\n              0x1f\n              lt\n              tag_59\n              jumpi\n              dup1\n              mload\n              not(0xff)\n              and\n              dup4\n              dup1\n              add\n              or\n              dup6\n              sstore\n              jump(tag_57)\n            tag_59:\n              dup3\n              dup1\n              add\n              0x01\n              add\n              dup6\n              sstore\n              dup3\n              iszero\n              tag_57\n              jumpi\n              swap2\n              dup3\n              add\n            tag_60:\n              dup3\n              dup2\n              gt\n              iszero\n              tag_61\n              jumpi\n              dup3\n              mload\n              dup3\n              sstore\n              swap2\n              0x20\n              add\n              swap2\n              swap1\n              0x01\n              add\n              swap1\n              jump(tag_60)\n            tag_61:\n            tag_57:\n              pop\n              swap1\n              pop\n              tag_62\n              swap2\n              swap1\n              tag_63\n              jump\t// in\n            tag_62:\n              pop\n              swap1\n              jump\t// out\n            tag_63:\n            tag_64:\n              dup1\n              dup3\n              gt\n              iszero\n              tag_65\n              jumpi\n              0x00\n              dup2\n              0x00\n              swap1\n              sstore\n              pop\n              0x01\n              add\n              jump(tag_64)\n            tag_65:\n              pop\n              swap1\n              jump\t// out\n                /* \"#utility.yul\":7:419   */\n            tag_67:\n                /* \"#utility.yul\":85:90   */\n              0x00\n                /* \"#utility.yul\":110:176   */\n              tag_69\n                /* \"#utility.yul\":126:175   */\n              tag_70\n                /* \"#utility.yul\":168:174   */\n              dup5\n                /* \"#utility.yul\":126:175   */\n              tag_71\n              jump\t// in\n            tag_70:\n                /* \"#utility.yul\":110:176   */\n              tag_72\n              jump\t// in\n            tag_69:\n                /* \"#utility.yul\":101:176   */\n              swap1\n              pop\n                /* \"#utility.yul\":199:205   */\n              dup3\n                /* \"#utility.yul\":192:197   */\n              dup2\n                /* \"#utility.yul\":185:206   */\n              mstore\n                /* \"#utility.yul\":237:241   */\n              0x20\n                /* \"#utility.yul\":230:235   */\n              dup2\n                /* \"#utility.yul\":226:242   */\n              add\n                /* \"#utility.yul\":275:278   */\n              dup5\n                /* \"#utility.yul\":266:272   */\n              dup5\n                /* \"#utility.yul\":261:264   */\n              dup5\n                /* \"#utility.yul\":257:273   */\n              add\n                /* \"#utility.yul\":254:279   */\n              gt\n                /* \"#utility.yul\":251:363   */\n              iszero\n              tag_73\n              jumpi\n                /* \"#utility.yul\":282:361   */\n              tag_74\n              tag_75\n              jump\t// in\n            tag_74:\n                /* \"#utility.yul\":251:363   */\n            tag_73:\n                /* \"#utility.yul\":372:413   */\n              tag_76\n                /* \"#utility.yul\":406:412   */\n              dup5\n                /* \"#utility.yul\":401:404   */\n              dup3\n                /* \"#utility.yul\":396:399   */\n              dup6\n                /* \"#utility.yul\":372:413   */\n              tag_77\n              jump\t// in\n            tag_76:\n                /* \"#utility.yul\":91:419   */\n              pop\n                /* \"#utility.yul\":7:419   */\n              swap4\n              swap3\n              pop\n              pop\n              pop\n              jump\t// out\n                /* \"#utility.yul\":439:779   */\n            tag_78:\n                /* \"#utility.yul\":495:500   */\n              0x00\n                /* \"#utility.yul\":544:547   */\n              dup3\n                /* \"#utility.yul\":537:541   */\n              0x1f\n                /* \"#utility.yul\":529:535   */\n              dup4\n                /* \"#utility.yul\":525:542   */\n              add\n                /* \"#utility.yul\":521:548   */\n              slt\n                /* \"#utility.yul\":511:633   */\n              tag_80\n              jumpi\n                /* \"#utility.yul\":552:631   */\n              tag_81\n              tag_82\n              jump\t// in\n            tag_81:\n                /* \"#utility.yul\":511:633   */\n            tag_80:\n                /* \"#utility.yul\":669:675   */\n              dup2\n                /* \"#utility.yul\":656:676   */\n              calldataload\n                /* \"#utility.yul\":694:773   */\n              tag_83\n                /* \"#utility.yul\":769:772   */\n              dup5\n                /* \"#utility.yul\":761:767   */\n              dup3\n                /* \"#utility.yul\":754:758   */\n              0x20\n                /* \"#utility.yul\":746:752   */\n              dup7\n                /* \"#utility.yul\":742:759   */\n              add\n                /* \"#utility.yul\":694:773   */\n              tag_67\n              jump\t// in\n            tag_83:\n                /* \"#utility.yul\":685:773   */\n              swap2\n              pop\n                /* \"#utility.yul\":501:779   */\n              pop\n                /* \"#utility.yul\":439:779   */\n              swap3\n              swap2\n              pop\n              pop\n              jump\t// out\n                /* \"#utility.yul\":785:924   */\n            tag_84:\n                /* \"#utility.yul\":831:836   */\n              0x00\n                /* \"#utility.yul\":869:875   */\n              dup2\n                /* \"#utility.yul\":856:876   */\n              calldataload\n                /* \"#utility.yul\":847:876   */\n              swap1\n              pop\n                /* \"#utility.yul\":885:918   */\n              tag_86\n                /* \"#utility.yul\":912:917   */\n              dup2\n                /* \"#utility.yul\":885:918   */\n              tag_87\n              jump\t// in\n            tag_86:\n                /* \"#utility.yul\":785:924   */\n              swap3\n              swap2\n              pop\n              pop\n              jump\t// out\n                /* \"#utility.yul\":930:1439   */\n            tag_27:\n                /* \"#utility.yul\":999:1005   */\n              0x00\n                /* \"#utility.yul\":1048:1050   */\n              0x20\n                /* \"#utility.yul\":1036:1045   */\n              dup3\n                /* \"#utility.yul\":1027:1034   */\n              dup5\n                /* \"#utility.yul\":1023:1046   */\n              sub\n                /* \"#utility.yul\":1019:1051   */\n              slt\n                /* \"#utility.yul\":1016:1135   */\n              iszero\n              tag_89\n              jumpi\n                /* \"#utility.yul\":1054:1133   */\n              tag_90\n              tag_91\n              jump\t// in\n            tag_90:\n                /* \"#utility.yul\":1016:1135   */\n            tag_89:\n                /* \"#utility.yul\":1202:1203   */\n              0x00\n                /* \"#utility.yul\":1191:1200   */\n              dup3\n                /* \"#utility.yul\":1187:1204   */\n              add\n                /* \"#utility.yul\":1174:1205   */\n              calldataload\n                /* \"#utility.yul\":1232:1250   */\n              0xffffffffffffffff\n                /* \"#utility.yul\":1224:1230   */\n              dup2\n                /* \"#utility.yul\":1221:1251   */\n              gt\n                /* \"#utility.yul\":1218:1335   */\n              iszero\n              tag_92\n              jumpi\n                /* \"#utility.yul\":1254:1333   */\n              tag_93\n              tag_94\n              jump\t// in\n            tag_93:\n                /* \"#utility.yul\":1218:1335   */\n            tag_92:\n                /* \"#utility.yul\":1359:1422   */\n              tag_95\n                /* \"#utility.yul\":1414:1421   */\n              dup5\n                /* \"#utility.yul\":1405:1411   */\n              dup3\n                /* \"#utility.yul\":1394:1403   */\n              dup6\n                /* \"#utility.yul\":1390:1412   */\n              add\n                /* \"#utility.yul\":1359:1422   */\n              tag_78\n              jump\t// in\n            tag_95:\n                /* \"#utility.yul\":1349:1422   */\n              swap2\n              pop\n                /* \"#utility.yul\":1145:1432   */\n              pop\n                /* \"#utility.yul\":930:1439   */\n              swap3\n              swap2\n              pop\n              pop\n              jump\t// out\n                /* \"#utility.yul\":1445:1774   */\n            tag_15:\n                /* \"#utility.yul\":1504:1510   */\n              0x00\n                /* \"#utility.yul\":1553:1555   */\n              0x20\n                /* \"#utility.yul\":1541:1550   */\n              dup3\n                /* \"#utility.yul\":1532:1539   */\n              dup5\n                /* \"#utility.yul\":1528:1551   */\n              sub\n                /* \"#utility.yul\":1524:1556   */\n              slt\n                /* \"#utility.yul\":1521:1640   */\n              iszero\n              tag_97\n              jumpi\n                /* \"#utility.yul\":1559:1638   */\n              tag_98\n              tag_91\n              jump\t// in\n            tag_98:\n                /* \"#utility.yul\":1521:1640   */\n            tag_97:\n                /* \"#utility.yul\":1679:1680   */\n              0x00\n                /* \"#utility.yul\":1704:1757   */\n              tag_99\n                /* \"#utility.yul\":1749:1756   */\n              dup5\n                /* \"#utility.yul\":1740:1746   */\n              dup3\n                /* \"#utility.yul\":1729:1738   */\n              dup6\n                /* \"#utility.yul\":1725:1747   */\n              add\n                /* \"#utility.yul\":1704:1757   */\n              tag_84\n              jump\t// in\n            tag_99:\n                /* \"#utility.yul\":1694:1757   */\n              swap2\n              pop\n                /* \"#utility.yul\":1650:1767   */\n              pop\n                /* \"#utility.yul\":1445:1774   */\n              swap3\n              swap2\n              pop\n              pop\n              jump\t// out\n                /* \"#utility.yul\":1780:2434   */\n            tag_32:\n                /* \"#utility.yul\":1858:1864   */\n              0x00\n                /* \"#utility.yul\":1866:1872   */\n              dup1\n                /* \"#utility.yul\":1915:1917   */\n              0x40\n                /* \"#utility.yul\":1903:1912   */\n              dup4\n                /* \"#utility.yul\":1894:1901   */\n              dup6\n                /* \"#utility.yul\":1890:1913   */\n              sub\n                /* \"#utility.yul\":1886:1918   */\n              slt\n                /* \"#utility.yul\":1883:2002   */\n              iszero\n              tag_101\n              jumpi\n                /* \"#utility.yul\":1921:2000   */\n              tag_102\n              tag_91\n              jump\t// in\n            tag_102:\n                /* \"#utility.yul\":1883:2002   */\n            tag_101:\n                /* \"#utility.yul\":2041:2042   */\n              0x00\n                /* \"#utility.yul\":2066:2119   */\n              tag_103\n                /* \"#utility.yul\":2111:2118   */\n              dup6\n                /* \"#utility.yul\":2102:2108   */\n              dup3\n                /* \"#utility.yul\":2091:2100   */\n              dup7\n                /* \"#utility.yul\":2087:2109   */\n              add\n                /* \"#utility.yul\":2066:2119   */\n              tag_84\n              jump\t// in\n            tag_103:\n                /* \"#utility.yul\":2056:2119   */\n              swap3\n              pop\n                /* \"#utility.yul\":2012:2129   */\n              pop\n                /* \"#utility.yul\":2196:2198   */\n              0x20\n                /* \"#utility.yul\":2185:2194   */\n              dup4\n                /* \"#utility.yul\":2181:2199   */\n              add\n                /* \"#utility.yul\":2168:2200   */\n              calldataload\n                /* \"#utility.yul\":2227:2245   */\n              0xffffffffffffffff\n                /* \"#utility.yul\":2219:2225   */\n              dup2\n                /* \"#utility.yul\":2216:2246   */\n              gt\n                /* \"#utility.yul\":2213:2330   */\n              iszero\n              tag_104\n              jumpi\n                /* \"#utility.yul\":2249:2328   */\n              tag_105\n              tag_94\n              jump\t// in\n            tag_105:\n                /* \"#utility.yul\":2213:2330   */\n            tag_104:\n                /* \"#utility.yul\":2354:2417   */\n              tag_106\n                /* \"#utility.yul\":2409:2416   */\n              dup6\n                /* \"#utility.yul\":2400:2406   */\n              dup3\n                /* \"#utility.yul\":2389:2398   */\n              dup7\n                /* \"#utility.yul\":2385:2407   */\n              add\n                /* \"#utility.yul\":2354:2417   */\n              tag_78\n              jump\t// in\n            tag_106:\n                /* \"#utility.yul\":2344:2417   */\n              swap2\n              pop\n                /* \"#utility.yul\":2139:2427   */\n              pop\n                /* \"#utility.yul\":1780:2434   */\n              swap3\n              pop\n              swap3\n              swap1\n              pop\n              jump\t// out\n                /* \"#utility.yul\":2440:2804   */\n            tag_107:\n                /* \"#utility.yul\":2528:2531   */\n              0x00\n                /* \"#utility.yul\":2556:2595   */\n              tag_109\n                /* \"#utility.yul\":2589:2594   */\n              dup3\n                /* \"#utility.yul\":2556:2595   */\n              tag_110\n              jump\t// in\n            tag_109:\n                /* \"#utility.yul\":2611:2682   */\n              tag_111\n                /* \"#utility.yul\":2675:2681   */\n              dup2\n                /* \"#utility.yul\":2670:2673   */\n              dup6\n                /* \"#utility.yul\":2611:2682   */\n              tag_112\n              jump\t// in\n            tag_111:\n                /* \"#utility.yul\":2604:2682   */\n              swap4\n              pop\n                /* \"#utility.yul\":2691:2743   */\n              tag_113\n                /* \"#utility.yul\":2736:2742   */\n              dup2\n                /* \"#utility.yul\":2731:2734   */\n              dup6\n                /* \"#utility.yul\":2724:2728   */\n              0x20\n                /* \"#utility.yul\":2717:2722   */\n              dup7\n                /* \"#utility.yul\":2713:2729   */\n              add\n                /* \"#utility.yul\":2691:2743   */\n              tag_114\n              jump\t// in\n            tag_113:\n                /* \"#utility.yul\":2768:2797   */\n              tag_115\n                /* \"#utility.yul\":2790:2796   */\n              dup2\n                /* \"#utility.yul\":2768:2797   */\n              tag_116\n              jump\t// in\n            tag_115:\n                /* \"#utility.yul\":2763:2766   */\n              dup5\n                /* \"#utility.yul\":2759:2798   */\n              add\n                /* \"#utility.yul\":2752:2798   */\n              swap2\n              pop\n                /* \"#utility.yul\":2532:2804   */\n              pop\n                /* \"#utility.yul\":2440:2804   */\n              swap3\n              swap2\n              pop\n              pop\n              jump\t// out\n                /* \"#utility.yul\":2810:3187   */\n            tag_117:\n                /* \"#utility.yul\":2916:2919   */\n              0x00\n                /* \"#utility.yul\":2944:2983   */\n              tag_119\n                /* \"#utility.yul\":2977:2982   */\n              dup3\n                /* \"#utility.yul\":2944:2983   */\n              tag_110\n              jump\t// in\n            tag_119:\n                /* \"#utility.yul\":2999:3088   */\n              tag_120\n                /* \"#utility.yul\":3081:3087   */\n              dup2\n                /* \"#utility.yul\":3076:3079   */\n              dup6\n                /* \"#utility.yul\":2999:3088   */\n              tag_121\n              jump\t// in\n            tag_120:\n                /* \"#utility.yul\":2992:3088   */\n              swap4\n              pop\n                /* \"#utility.yul\":3097:3149   */\n              tag_122\n                /* \"#utility.yul\":3142:3148   */\n              dup2\n                /* \"#utility.yul\":3137:3140   */\n              dup6\n                /* \"#utility.yul\":3130:3134   */\n              0x20\n                /* \"#utility.yul\":3123:3128   */\n              dup7\n                /* \"#utility.yul\":3119:3135   */\n              add\n                /* \"#utility.yul\":3097:3149   */\n              tag_114\n              jump\t// in\n            tag_122:\n                /* \"#utility.yul\":3174:3180   */\n              dup1\n                /* \"#utility.yul\":3169:3172   */\n              dup5\n                /* \"#utility.yul\":3165:3181   */\n              add\n                /* \"#utility.yul\":3158:3181   */\n              swap2\n              pop\n                /* \"#utility.yul\":2920:3187   */\n              pop\n                /* \"#utility.yul\":2810:3187   */\n              swap3\n              swap2\n              pop\n              pop\n              jump\t// out\n                /* \"#utility.yul\":3193:3311   */\n            tag_123:\n                /* \"#utility.yul\":3280:3304   */\n              tag_125\n                /* \"#utility.yul\":3298:3303   */\n              dup2\n                /* \"#utility.yul\":3280:3304   */\n              tag_126\n              jump\t// in\n            tag_125:\n                /* \"#utility.yul\":3275:3278   */\n              dup3\n                /* \"#utility.yul\":3268:3305   */\n              mstore\n                /* \"#utility.yul\":3193:3311   */\n              pop\n              pop\n              jump\t// out\n                /* \"#utility.yul\":3317:3592   */\n            tag_54:\n                /* \"#utility.yul\":3449:3452   */\n              0x00\n                /* \"#utility.yul\":3471:3566   */\n              tag_128\n                /* \"#utility.yul\":3562:3565   */\n              dup3\n                /* \"#utility.yul\":3553:3559   */\n              dup5\n                /* \"#utility.yul\":3471:3566   */\n              tag_117\n              jump\t// in\n            tag_128:\n                /* \"#utility.yul\":3464:3566   */\n              swap2\n              pop\n                /* \"#utility.yul\":3583:3586   */\n              dup2\n                /* \"#utility.yul\":3576:3586   */\n              swap1\n              pop\n                /* \"#utility.yul\":3317:3592   */\n              swap3\n              swap2\n              pop\n              pop\n              jump\t// out\n                /* \"#utility.yul\":3598:3820   */\n            tag_12:\n                /* \"#utility.yul\":3691:3695   */\n              0x00\n                /* \"#utility.yul\":3729:3731   */\n              0x20\n                /* \"#utility.yul\":3718:3727   */\n              dup3\n                /* \"#utility.yul\":3714:3732   */\n              add\n                /* \"#utility.yul\":3706:3732   */\n              swap1\n              pop\n                /* \"#utility.yul\":3742:3813   */\n              tag_130\n                /* \"#utility.yul\":3810:3811   */\n              0x00\n                /* \"#utility.yul\":3799:3808   */\n              dup4\n                /* \"#utility.yul\":3795:3812   */\n              add\n                /* \"#utility.yul\":3786:3792   */\n              dup5\n                /* \"#utility.yul\":3742:3813   */\n              tag_123\n              jump\t// in\n            tag_130:\n                /* \"#utility.yul\":3598:3820   */\n              swap3\n              swap2\n              pop\n              pop\n              jump\t// out\n                /* \"#utility.yul\":3826:4249   */\n            tag_18:\n                /* \"#utility.yul\":3967:3971   */\n              0x00\n                /* \"#utility.yul\":4005:4007   */\n              0x40\n                /* \"#utility.yul\":3994:4003   */\n              dup3\n                /* \"#utility.yul\":3990:4008   */\n              add\n                /* \"#utility.yul\":3982:4008   */\n              swap1\n              pop\n                /* \"#utility.yul\":4018:4089   */\n              tag_132\n                /* \"#utility.yul\":4086:4087   */\n              0x00\n                /* \"#utility.yul\":4075:4084   */\n              dup4\n                /* \"#utility.yul\":4071:4088   */\n              add\n                /* \"#utility.yul\":4062:4068   */\n              dup6\n                /* \"#utility.yul\":4018:4089   */\n              tag_123\n              jump\t// in\n            tag_132:\n                /* \"#utility.yul\":4136:4145   */\n              dup2\n                /* \"#utility.yul\":4130:4134   */\n              dup2\n                /* \"#utility.yul\":4126:4146   */\n              sub\n                /* \"#utility.yul\":4121:4123   */\n              0x20\n                /* \"#utility.yul\":4110:4119   */\n              dup4\n                /* \"#utility.yul\":4106:4124   */\n              add\n                /* \"#utility.yul\":4099:4147   */\n              mstore\n                /* \"#utility.yul\":4164:4242   */\n              tag_133\n                /* \"#utility.yul\":4237:4241   */\n              dup2\n                /* \"#utility.yul\":4228:4234   */\n              dup5\n                /* \"#utility.yul\":4164:4242   */\n              tag_107\n              jump\t// in\n            tag_133:\n                /* \"#utility.yul\":4156:4242   */\n              swap1\n              pop\n                /* \"#utility.yul\":3826:4249   */\n              swap4\n              swap3\n              pop\n              pop\n              pop\n              jump\t// out\n                /* \"#utility.yul\":4255:4384   */\n            tag_72:\n                /* \"#utility.yul\":4289:4295   */\n              0x00\n                /* \"#utility.yul\":4316:4336   */\n              tag_135\n              tag_136\n              jump\t// in\n            tag_135:\n                /* \"#utility.yul\":4306:4336   */\n              swap1\n              pop\n                /* \"#utility.yul\":4345:4378   */\n              tag_137\n                /* \"#utility.yul\":4373:4377   */\n              dup3\n                /* \"#utility.yul\":4365:4371   */\n              dup3\n                /* \"#utility.yul\":4345:4378   */\n              tag_138\n              jump\t// in\n            tag_137:\n                /* \"#utility.yul\":4255:4384   */\n              swap2\n              swap1\n              pop\n              jump\t// out\n                /* \"#utility.yul\":4390:4465   */\n            tag_136:\n                /* \"#utility.yul\":4423:4429   */\n              0x00\n                /* \"#utility.yul\":4456:4458   */\n              0x40\n                /* \"#utility.yul\":4450:4459   */\n              mload\n                /* \"#utility.yul\":4440:4459   */\n              swap1\n              pop\n                /* \"#utility.yul\":4390:4465   */\n              swap1\n              jump\t// out\n                /* \"#utility.yul\":4471:4779   */\n            tag_71:\n                /* \"#utility.yul\":4533:4537   */\n              0x00\n                /* \"#utility.yul\":4623:4641   */\n              0xffffffffffffffff\n                /* \"#utility.yul\":4615:4621   */\n              dup3\n                /* \"#utility.yul\":4612:4642   */\n              gt\n                /* \"#utility.yul\":4609:4665   */\n              iszero\n              tag_141\n              jumpi\n                /* \"#utility.yul\":4645:4663   */\n              tag_142\n              tag_143\n              jump\t// in\n            tag_142:\n                /* \"#utility.yul\":4609:4665   */\n            tag_141:\n                /* \"#utility.yul\":4683:4712   */\n              tag_144\n                /* \"#utility.yul\":4705:4711   */\n              dup3\n                /* \"#utility.yul\":4683:4712   */\n              tag_116\n              jump\t// in\n            tag_144:\n                /* \"#utility.yul\":4675:4712   */\n              swap1\n              pop\n                /* \"#utility.yul\":4767:4771   */\n              0x20\n                /* \"#utility.yul\":4761:4765   */\n              dup2\n                /* \"#utility.yul\":4757:4772   */\n              add\n                /* \"#utility.yul\":4749:4772   */\n              swap1\n              pop\n                /* \"#utility.yul\":4471:4779   */\n              swap2\n              swap1\n              pop\n              jump\t// out\n                /* \"#utility.yul\":4785:4884   */\n            tag_110:\n                /* \"#utility.yul\":4837:4843   */\n              0x00\n                /* \"#utility.yul\":4871:4876   */\n              dup2\n                /* \"#utility.yul\":4865:4877   */\n              mload\n                /* \"#utility.yul\":4855:4877   */\n              swap1\n              pop\n                /* \"#utility.yul\":4785:4884   */\n              swap2\n              swap1\n              pop\n              jump\t// out\n                /* \"#utility.yul\":4890:5059   */\n            tag_112:\n                /* \"#utility.yul\":4974:4985   */\n              0x00\n                /* \"#utility.yul\":5008:5014   */\n              dup3\n                /* \"#utility.yul\":5003:5006   */\n              dup3\n                /* \"#utility.yul\":4996:5015   */\n              mstore\n                /* \"#utility.yul\":5048:5052   */\n              0x20\n                /* \"#utility.yul\":5043:5046   */\n              dup3\n                /* \"#utility.yul\":5039:5053   */\n              add\n                /* \"#utility.yul\":5024:5053   */\n              swap1\n              pop\n                /* \"#utility.yul\":4890:5059   */\n              swap3\n              swap2\n              pop\n              pop\n              jump\t// out\n                /* \"#utility.yul\":5065:5213   */\n            tag_121:\n                /* \"#utility.yul\":5167:5178   */\n              0x00\n                /* \"#utility.yul\":5204:5207   */\n              dup2\n                /* \"#utility.yul\":5189:5207   */\n              swap1\n              pop\n                /* \"#utility.yul\":5065:5213   */\n              swap3\n              swap2\n              pop\n              pop\n              jump\t// out\n                /* \"#utility.yul\":5219:5296   */\n            tag_126:\n                /* \"#utility.yul\":5256:5263   */\n              0x00\n                /* \"#utility.yul\":5285:5290   */\n              dup2\n                /* \"#utility.yul\":5274:5290   */\n              swap1\n              pop\n                /* \"#utility.yul\":5219:5296   */\n              swap2\n              swap1\n              pop\n              jump\t// out\n                /* \"#utility.yul\":5302:5456   */\n            tag_77:\n                /* \"#utility.yul\":5386:5392   */\n              dup3\n                /* \"#utility.yul\":5381:5384   */\n              dup2\n                /* \"#utility.yul\":5376:5379   */\n              dup4\n                /* \"#utility.yul\":5363:5393   */\n              calldatacopy\n                /* \"#utility.yul\":5448:5449   */\n              0x00\n                /* \"#utility.yul\":5439:5445   */\n              dup4\n                /* \"#utility.yul\":5434:5437   */\n              dup4\n                /* \"#utility.yul\":5430:5446   */\n              add\n                /* \"#utility.yul\":5423:5450   */\n              mstore\n                /* \"#utility.yul\":5302:5456   */\n              pop\n              pop\n              pop\n              jump\t// out\n                /* \"#utility.yul\":5462:5769   */\n            tag_114:\n                /* \"#utility.yul\":5530:5531   */\n              0x00\n                /* \"#utility.yul\":5540:5653   */\n            tag_151:\n                /* \"#utility.yul\":5554:5560   */\n              dup4\n                /* \"#utility.yul\":5551:5552   */\n              dup2\n                /* \"#utility.yul\":5548:5561   */\n              lt\n                /* \"#utility.yul\":5540:5653   */\n              iszero\n              tag_153\n              jumpi\n                /* \"#utility.yul\":5639:5640   */\n              dup1\n                /* \"#utility.yul\":5634:5637   */\n              dup3\n                /* \"#utility.yul\":5630:5641   */\n              add\n                /* \"#utility.yul\":5624:5642   */\n              mload\n                /* \"#utility.yul\":5620:5621   */\n              dup2\n                /* \"#utility.yul\":5615:5618   */\n              dup5\n                /* \"#utility.yul\":5611:5622   */\n              add\n                /* \"#utility.yul\":5604:5643   */\n              mstore\n                /* \"#utility.yul\":5576:5578   */\n              0x20\n                /* \"#utility.yul\":5573:5574   */\n              dup2\n                /* \"#utility.yul\":5569:5579   */\n              add\n                /* \"#utility.yul\":5564:5579   */\n              swap1\n              pop\n                /* \"#utility.yul\":5540:5653   */\n              jump(tag_151)\n            tag_153:\n                /* \"#utility.yul\":5671:5677   */\n              dup4\n                /* \"#utility.yul\":5668:5669   */\n              dup2\n                /* \"#utility.yul\":5665:5678   */\n              gt\n                /* \"#utility.yul\":5662:5763   */\n              iszero\n              tag_154\n              jumpi\n                /* \"#utility.yul\":5751:5752   */\n              0x00\n                /* \"#utility.yul\":5742:5748   */\n              dup5\n                /* \"#utility.yul\":5737:5740   */\n              dup5\n                /* \"#utility.yul\":5733:5749   */\n              add\n                /* \"#utility.yul\":5726:5753   */\n              mstore\n                /* \"#utility.yul\":5662:5763   */\n            tag_154:\n                /* \"#utility.yul\":5511:5769   */\n              pop\n                /* \"#utility.yul\":5462:5769   */\n              pop\n              pop\n              pop\n              jump\t// out\n                /* \"#utility.yul\":5775:6095   */\n            tag_38:\n                /* \"#utility.yul\":5819:5825   */\n              0x00\n                /* \"#utility.yul\":5856:5857   */\n              0x02\n                /* \"#utility.yul\":5850:5854   */\n              dup3\n                /* \"#utility.yul\":5846:5858   */\n              div\n                /* \"#utility.yul\":5836:5858   */\n              swap1\n              pop\n                /* \"#utility.yul\":5903:5904   */\n              0x01\n                /* \"#utility.yul\":5897:5901   */\n              dup3\n                /* \"#utility.yul\":5893:5905   */\n              and\n                /* \"#utility.yul\":5924:5942   */\n              dup1\n                /* \"#utility.yul\":5914:5995   */\n              tag_156\n              jumpi\n                /* \"#utility.yul\":5980:5984   */\n              0x7f\n                /* \"#utility.yul\":5972:5978   */\n              dup3\n                /* \"#utility.yul\":5968:5985   */\n              and\n                /* \"#utility.yul\":5958:5985   */\n              swap2\n              pop\n                /* \"#utility.yul\":5914:5995   */\n            tag_156:\n                /* \"#utility.yul\":6042:6044   */\n              0x20\n                /* \"#utility.yul\":6034:6040   */\n              dup3\n                /* \"#utility.yul\":6031:6045   */\n              lt\n                /* \"#utility.yul\":6011:6029   */\n              dup2\n                /* \"#utility.yul\":6008:6046   */\n              eq\n                /* \"#utility.yul\":6005:6089   */\n              iszero\n              tag_157\n              jumpi\n                /* \"#utility.yul\":6061:6079   */\n              tag_158\n              tag_159\n              jump\t// in\n            tag_158:\n                /* \"#utility.yul\":6005:6089   */\n            tag_157:\n                /* \"#utility.yul\":5826:6095   */\n              pop\n                /* \"#utility.yul\":5775:6095   */\n              swap2\n              swap1\n              pop\n              jump\t// out\n                /* \"#utility.yul\":6101:6382   */\n            tag_138:\n                /* \"#utility.yul\":6184:6211   */\n              tag_161\n                /* \"#utility.yul\":6206:6210   */\n              dup3\n                /* \"#utility.yul\":6184:6211   */\n              tag_116\n              jump\t// in\n            tag_161:\n                /* \"#utility.yul\":6176:6182   */\n              dup2\n                /* \"#utility.yul\":6172:6212   */\n              add\n                /* \"#utility.yul\":6314:6320   */\n              dup2\n                /* \"#utility.yul\":6302:6312   */\n              dup2\n                /* \"#utility.yul\":6299:6321   */\n              lt\n                /* \"#utility.yul\":6278:6296   */\n              0xffffffffffffffff\n                /* \"#utility.yul\":6266:6276   */\n              dup3\n                /* \"#utility.yul\":6263:6297   */\n              gt\n                /* \"#utility.yul\":6260:6322   */\n              or\n                /* \"#utility.yul\":6257:6345   */\n              iszero\n              tag_162\n              jumpi\n                /* \"#utility.yul\":6325:6343   */\n              tag_163\n              tag_143\n              jump\t// in\n            tag_163:\n                /* \"#utility.yul\":6257:6345   */\n            tag_162:\n                /* \"#utility.yul\":6365:6375   */\n              dup1\n                /* \"#utility.yul\":6361:6363   */\n              0x40\n                /* \"#utility.yul\":6354:6376   */\n              mstore\n                /* \"#utility.yul\":6144:6382   */\n              pop\n                /* \"#utility.yul\":6101:6382   */\n              pop\n              pop\n              jump\t// out\n                /* \"#utility.yul\":6388:6568   */\n            tag_159:\n                /* \"#utility.yul\":6436:6513   */\n              0x4e487b7100000000000000000000000000000000000000000000000000000000\n                /* \"#utility.yul\":6433:6434   */\n              0x00\n                /* \"#utility.yul\":6426:6514   */\n              mstore\n                /* \"#utility.yul\":6533:6537   */\n              0x22\n                /* \"#utility.yul\":6530:6531   */\n              0x04\n                /* \"#utility.yul\":6523:6538   */\n              mstore\n                /* \"#utility.yul\":6557:6561   */\n              0x24\n                /* \"#utility.yul\":6554:6555   */\n              0x00\n                /* \"#utility.yul\":6547:6562   */\n              revert\n                /* \"#utility.yul\":6574:6754   */\n            tag_143:\n                /* \"#utility.yul\":6622:6699   */\n              0x4e487b7100000000000000000000000000000000000000000000000000000000\n                /* \"#utility.yul\":6619:6620   */\n              0x00\n                /* \"#utility.yul\":6612:6700   */\n              mstore\n                /* \"#utility.yul\":6719:6723   */\n              0x41\n                /* \"#utility.yul\":6716:6717   */\n              0x04\n                /* \"#utility.yul\":6709:6724   */\n              mstore\n                /* \"#utility.yul\":6743:6747   */\n              0x24\n                /* \"#utility.yul\":6740:6741   */\n              0x00\n                /* \"#utility.yul\":6733:6748   */\n              revert\n                /* \"#utility.yul\":6760:6877   */\n            tag_82:\n                /* \"#utility.yul\":6869:6870   */\n              0x00\n                /* \"#utility.yul\":6866:6867   */\n              dup1\n                /* \"#utility.yul\":6859:6871   */\n              revert\n                /* \"#utility.yul\":6883:7000   */\n            tag_75:\n                /* \"#utility.yul\":6992:6993   */\n              0x00\n                /* \"#utility.yul\":6989:6990   */\n              dup1\n                /* \"#utility.yul\":6982:6994   */\n              revert\n                /* \"#utility.yul\":7006:7123   */\n            tag_94:\n                /* \"#utility.yul\":7115:7116   */\n              0x00\n                /* \"#utility.yul\":7112:7113   */\n              dup1\n                /* \"#utility.yul\":7105:7117   */\n              revert\n                /* \"#utility.yul\":7129:7246   */\n            tag_91:\n                /* \"#utility.yul\":7238:7239   */\n              0x00\n                /* \"#utility.yul\":7235:7236   */\n              dup1\n                /* \"#utility.yul\":7228:7240   */\n              revert\n                /* \"#utility.yul\":7252:7354   */\n            tag_116:\n                /* \"#utility.yul\":7293:7299   */\n              0x00\n                /* \"#utility.yul\":7344:7346   */\n              0x1f\n                /* \"#utility.yul\":7340:7347   */\n              not\n                /* \"#utility.yul\":7335:7337   */\n              0x1f\n                /* \"#utility.yul\":7328:7333   */\n              dup4\n                /* \"#utility.yul\":7324:7338   */\n              add\n                /* \"#utility.yul\":7320:7348   */\n              and\n                /* \"#utility.yul\":7310:7348   */\n              swap1\n              pop\n                /* \"#utility.yul\":7252:7354   */\n              swap2\n              swap1\n              pop\n              jump\t// out\n                /* \"#utility.yul\":7360:7482   */\n            tag_87:\n                /* \"#utility.yul\":7433:7457   */\n              tag_172\n                /* \"#utility.yul\":7451:7456   */\n              dup2\n                /* \"#utility.yul\":7433:7457   */\n              tag_126\n              jump\t// in\n            tag_172:\n                /* \"#utility.yul\":7426:7431   */\n              dup2\n                /* \"#utility.yul\":7423:7458   */\n              eq\n                /* \"#utility.yul\":7413:7476   */\n              tag_173\n              jumpi\n                /* \"#utility.yul\":7472:7473   */\n              0x00\n                /* \"#utility.yul\":7469:7470   */\n              dup1\n                /* \"#utility.yul\":7462:7474   */\n              revert\n                /* \"#utility.yul\":7413:7476   */\n            tag_173:\n                /* \"#utility.yul\":7360:7482   */\n              pop\n              jump\t// out\n\n            auxdata: 0xa26469706673582212205ac64aaf01a5d9b63575f78f1b4f182464aa279116af7cef3307c0e7f391ff5064736f6c63430008070033\n        }\n    }\n\n    auxdata: 0xa26469706673582212204c450c60959e202d0e818bf4b715ae164aa7940020a946831648a305dfed4d4864736f6c63430008070033\n}\n\nsub_1: assembly {\n        /* \"contracts/SimpleStorage.sol\":98:811  contract SimpleStorage {  \r... */\n      mstore(0x40, 0x80)\n      callvalue\n      dup1\n      iszero\n      tag_1\n      jumpi\n      0x00\n      dup1\n      revert\n    tag_1:\n      pop\n      dataSize(sub_0)\n      dup1\n      dataOffset(sub_0)\n      0x00\n      codecopy\n      0x00\n      return\n    stop\n\n    sub_0: assembly {\n            /* \"contracts/SimpleStorage.sol\":98:811  contract SimpleStorage {  \r... */\n          mstore(0x40, 0x80)\n          callvalue\n          dup1\n          iszero\n          tag_1\n          jumpi\n          0x00\n          dup1\n          revert\n        tag_1:\n          pop\n          jumpi(tag_2, lt(calldatasize, 0x04))\n          shr(0xe0, calldataload(0x00))\n          dup1\n          0x012d45ae\n          eq\n          tag_3\n          jumpi\n          dup1\n          0x092a1820\n          eq\n          tag_4\n          jumpi\n          dup1\n          0x6057361d\n          eq\n          tag_5\n          jumpi\n          dup1\n          0xc7a0d9f6\n          eq\n          tag_6\n          jumpi\n          dup1\n          0xe907247c\n          eq\n          tag_7\n          jumpi\n          dup1\n          0xfe5be356\n          eq\n          tag_8\n          jumpi\n        tag_2:\n          0x00\n          dup1\n          revert\n            /* \"contracts/SimpleStorage.sol\":721:808  function getFavNumber() public view returns(uint256){\r... */\n        tag_3:\n          tag_9\n          tag_10\n          jump\t// in\n        tag_9:\n          mload(0x40)\n          tag_11\n          swap2\n          swap1\n          tag_12\n          jump\t// in\n        tag_11:\n          mload(0x40)\n          dup1\n          swap2\n          sub\n          swap1\n          return\n            /* \"contracts/SimpleStorage.sol\":483:505  People[] public person */\n        tag_4:\n          tag_13\n          0x04\n          dup1\n          calldatasize\n          sub\n          dup2\n          add\n          swap1\n          tag_14\n          swap2\n          swap1\n          tag_15\n          jump\t// in\n        tag_14:\n          tag_16\n          jump\t// in\n        tag_13:\n          mload(0x40)\n          tag_17\n          swap3\n          swap2\n          swap1\n          tag_18\n          jump\t// in\n        tag_17:\n          mload(0x40)\n          dup1\n          swap2\n          sub\n          swap1\n          return\n            /* \"contracts/SimpleStorage.sol\":195:278  function store (uint256 _favNumber) public{\r... */\n        tag_5:\n          tag_19\n          0x04\n          dup1\n          calldatasize\n          sub\n          dup2\n          add\n          swap1\n          tag_20\n          swap2\n          swap1\n          tag_15\n          jump\t// in\n        tag_20:\n          tag_21\n          jump\t// in\n        tag_19:\n          stop\n            /* \"contracts/SimpleStorage.sol\":162:186  uint256 public favNumber */\n        tag_6:\n          tag_22\n          tag_23\n          jump\t// in\n        tag_22:\n          mload(0x40)\n          tag_24\n          swap2\n          swap1\n          tag_12\n          jump\t// in\n        tag_24:\n          mload(0x40)\n          dup1\n          swap2\n          sub\n          swap1\n          return\n            /* \"contracts/SimpleStorage.sol\":284:326  mapping(string => People) public getPerson */\n        tag_7:\n          tag_25\n          0x04\n          dup1\n          calldatasize\n          sub\n          dup2\n          add\n          swap1\n          tag_26\n          swap2\n          swap1\n          tag_27\n          jump\t// in\n        tag_26:\n          tag_28\n          jump\t// in\n        tag_25:\n          mload(0x40)\n          tag_29\n          swap3\n          swap2\n          swap1\n          tag_18\n          jump\t// in\n        tag_29:\n          mload(0x40)\n          dup1\n          swap2\n          sub\n          swap1\n          return\n            /* \"contracts/SimpleStorage.sol\":516:713  function createNewPerson(uint256 age, string memory name) public{\r... */\n        tag_8:\n          tag_30\n          0x04\n          dup1\n          calldatasize\n          sub\n          dup2\n          add\n          swap1\n          tag_31\n          swap2\n          swap1\n          tag_32\n          jump\t// in\n        tag_31:\n          tag_33\n          jump\t// in\n        tag_30:\n          stop\n            /* \"contracts/SimpleStorage.sol\":721:808  function getFavNumber() public view returns(uint256){\r... */\n        tag_10:\n            /* \"contracts/SimpleStorage.sol\":765:772  uint256 */\n          0x00\n            /* \"contracts/SimpleStorage.sol\":791:800  favNumber */\n          dup1\n          sload\n            /* \"contracts/SimpleStorage.sol\":784:800  return favNumber */\n          swap1\n          pop\n            /* \"contracts/SimpleStorage.sol\":721:808  function getFavNumber() public view returns(uint256){\r... */\n          swap1\n          jump\t// out\n            /* \"contracts/SimpleStorage.sol\":483:505  People[] public person */\n        tag_16:\n          0x02\n          dup2\n          dup2\n          sload\n          dup2\n          lt\n          tag_35\n          jumpi\n          0x00\n          dup1\n          revert\n        tag_35:\n          swap1\n          0x00\n          mstore\n          keccak256(0x00, 0x20)\n          swap1\n          0x02\n          mul\n          add\n          0x00\n          swap2\n          pop\n          swap1\n          pop\n          dup1\n          0x00\n          add\n          sload\n          swap1\n          dup1\n          0x01\n          add\n          dup1\n          sload\n          tag_37\n          swap1\n          tag_38\n          jump\t// in\n        tag_37:\n          dup1\n          0x1f\n          add\n          0x20\n          dup1\n          swap2\n          div\n          mul\n          0x20\n          add\n          mload(0x40)\n          swap1\n          dup2\n          add\n          0x40\n          mstore\n          dup1\n          swap3\n          swap2\n          swap1\n          dup2\n          dup2\n          mstore\n          0x20\n          add\n          dup3\n          dup1\n          sload\n          tag_39\n          swap1\n          tag_38\n          jump\t// in\n        tag_39:\n          dup1\n          iszero\n          tag_40\n          jumpi\n          dup1\n          0x1f\n          lt\n          tag_41\n          jumpi\n          0x0100\n          dup1\n          dup4\n          sload\n          div\n          mul\n          dup4\n          mstore\n          swap2\n          0x20\n          add\n          swap2\n          jump(tag_40)\n        tag_41:\n          dup3\n          add\n          swap2\n          swap1\n          0x00\n          mstore\n          keccak256(0x00, 0x20)\n          swap1\n        tag_42:\n          dup2\n          sload\n          dup2\n          mstore\n          swap1\n          0x01\n          add\n          swap1\n          0x20\n          add\n          dup1\n          dup4\n          gt\n          tag_42\n          jumpi\n          dup3\n          swap1\n          sub\n          0x1f\n          and\n          dup3\n          add\n          swap2\n        tag_40:\n          pop\n          pop\n          pop\n          pop\n          pop\n          swap1\n          pop\n          dup3\n          jump\t// out\n            /* \"contracts/SimpleStorage.sol\":195:278  function store (uint256 _favNumber) public{\r... */\n        tag_21:\n            /* \"contracts/SimpleStorage.sol\":260:270  _favNumber */\n          dup1\n            /* \"contracts/SimpleStorage.sol\":248:257  favNumber */\n          0x00\n            /* \"contracts/SimpleStorage.sol\":248:270  favNumber = _favNumber */\n          dup2\n          swap1\n          sstore\n          pop\n            /* \"contracts/SimpleStorage.sol\":195:278  function store (uint256 _favNumber) public{\r... */\n          pop\n          jump\t// out\n            /* \"contracts/SimpleStorage.sol\":162:186  uint256 public favNumber */\n        tag_23:\n          sload(0x00)\n          dup2\n          jump\t// out\n            /* \"contracts/SimpleStorage.sol\":284:326  mapping(string => People) public getPerson */\n        tag_28:\n          0x01\n          dup2\n          dup1\n          mload\n          0x20\n          dup2\n          add\n          dup3\n          add\n          dup1\n          mload\n          dup5\n          dup3\n          mstore\n          0x20\n          dup4\n          add\n          0x20\n          dup6\n          add\n          keccak256\n          dup2\n          dup4\n          mstore\n          dup1\n          swap6\n          pop\n          pop\n          pop\n          pop\n          pop\n          pop\n          0x00\n          swap2\n          pop\n          swap1\n          pop\n          dup1\n          0x00\n          add\n          sload\n          swap1\n          dup1\n          0x01\n          add\n          dup1\n          sload\n          tag_44\n          swap1\n          tag_38\n          jump\t// in\n        tag_44:\n          dup1\n          0x1f\n          add\n          0x20\n          dup1\n          swap2\n          div\n          mul\n          0x20\n          add\n          mload(0x40)\n          swap1\n          dup2\n          add\n          0x40\n          mstore\n          dup1\n          swap3\n          swap2\n          swap1\n          dup2\n          dup2\n          mstore\n          0x20\n          add\n          dup3\n          dup1\n          sload\n          tag_45\n          swap1\n          tag_38\n          jump\t// in\n        tag_45:\n          dup1\n          iszero\n          tag_46\n          jumpi\n          dup1\n          0x1f\n          lt\n          tag_47\n          jumpi\n          0x0100\n          dup1\n          dup4\n          sload\n          div\n          mul\n          dup4\n          mstore\n          swap2\n          0x20\n          add\n          swap2\n          jump(tag_46)\n        tag_47:\n          dup3\n          add\n          swap2\n          swap1\n          0x00\n          mstore\n          keccak256(0x00, 0x20)\n          swap1\n        tag_48:\n          dup2\n          sload\n          dup2\n          mstore\n          swap1\n          0x01\n          add\n          swap1\n          0x20\n          add\n          dup1\n          dup4\n          gt\n          tag_48\n          jumpi\n          dup3\n          swap1\n          sub\n          0x1f\n          and\n          dup3\n          add\n          swap2\n        tag_46:\n          pop\n          pop\n          pop\n          pop\n          pop\n          swap1\n          pop\n          dup3\n          jump\t// out\n            /* \"contracts/SimpleStorage.sol\":516:713  function createNewPerson(uint256 age, string memory name) public{\r... */\n        tag_33:\n            /* \"contracts/SimpleStorage.sol\":591:614  People memory newPerson */\n          0x00\n            /* \"contracts/SimpleStorage.sol\":617:634  People(age, name) */\n          mload(0x40)\n          dup1\n          0x40\n          add\n          0x40\n          mstore\n          dup1\n            /* \"contracts/SimpleStorage.sol\":624:627  age */\n          dup5\n            /* \"contracts/SimpleStorage.sol\":617:634  People(age, name) */\n          dup2\n          mstore\n          0x20\n          add\n            /* \"contracts/SimpleStorage.sol\":629:633  name */\n          dup4\n            /* \"contracts/SimpleStorage.sol\":617:634  People(age, name) */\n          dup2\n          mstore\n          pop\n            /* \"contracts/SimpleStorage.sol\":591:634  People memory newPerson = People(age, name) */\n          swap1\n          pop\n            /* \"contracts/SimpleStorage.sol\":645:651  person */\n          0x02\n            /* \"contracts/SimpleStorage.sol\":657:666  newPerson */\n          dup2\n            /* \"contracts/SimpleStorage.sol\":645:667  person.push(newPerson) */\n          swap1\n          dup1\n          0x01\n          dup2\n          sload\n          add\n          dup1\n          dup3\n          sstore\n          dup1\n          swap2\n          pop\n          pop\n          0x01\n          swap1\n          sub\n          swap1\n          0x00\n          mstore\n          keccak256(0x00, 0x20)\n          swap1\n          0x02\n          mul\n          add\n          0x00\n          swap1\n          swap2\n          swap1\n          swap2\n          swap1\n          swap2\n          pop\n          0x00\n          dup3\n          add\n          mload\n          dup2\n          0x00\n          add\n          sstore\n          0x20\n          dup3\n          add\n          mload\n          dup2\n          0x01\n          add\n          swap1\n          dup1\n          mload\n          swap1\n          0x20\n          add\n          swap1\n          tag_51\n          swap3\n          swap2\n          swap1\n          tag_52\n          jump\t// in\n        tag_51:\n          pop\n          pop\n          pop\n            /* \"contracts/SimpleStorage.sol\":696:705  newPerson */\n          dup1\n            /* \"contracts/SimpleStorage.sol\":678:687  getPerson */\n          0x01\n            /* \"contracts/SimpleStorage.sol\":688:692  name */\n          dup4\n            /* \"contracts/SimpleStorage.sol\":678:693  getPerson[name] */\n          mload(0x40)\n          tag_53\n          swap2\n          swap1\n          tag_54\n          jump\t// in\n        tag_53:\n          swap1\n          dup2\n          mstore\n          0x20\n          add\n          mload(0x40)\n          dup1\n          swap2\n          sub\n          swap1\n          keccak256\n            /* \"contracts/SimpleStorage.sol\":678:705  getPerson[name] = newPerson */\n          0x00\n          dup3\n          add\n          mload\n          dup2\n          0x00\n          add\n          sstore\n          0x20\n          dup3\n          add\n          mload\n          dup2\n          0x01\n          add\n          swap1\n          dup1\n          mload\n          swap1\n          0x20\n          add\n          swap1\n          tag_55\n          swap3\n          swap2\n          swap1\n          tag_52\n          jump\t// in\n        tag_55:\n          pop\n          swap1\n          pop\n          pop\n            /* \"contracts/SimpleStorage.sol\":580:713  {\r... */\n          pop\n            /* \"contracts/SimpleStorage.sol\":516:713  function createNewPerson(uint256 age, string memory name) public{\r... */\n          pop\n          pop\n          jump\t// out\n        tag_52:\n          dup3\n          dup1\n          sload\n          tag_56\n          swap1\n          tag_38\n          jump\t// in\n        tag_56:\n          swap1\n          0x00\n          mstore\n          keccak256(0x00, 0x20)\n          swap1\n          0x1f\n          add\n          0x20\n          swap1\n          div\n          dup2\n          add\n          swap3\n          dup3\n          tag_58\n          jumpi\n          0x00\n          dup6\n          sstore\n          jump(tag_57)\n        tag_58:\n          dup3\n          0x1f\n          lt\n          tag_59\n          jumpi\n          dup1\n          mload\n          not(0xff)\n          and\n          dup4\n          dup1\n          add\n          or\n          dup6\n          sstore\n          jump(tag_57)\n        tag_59:\n          dup3\n          dup1\n          add\n          0x01\n          add\n          dup6\n          sstore\n          dup3\n          iszero\n          tag_57\n          jumpi\n          swap2\n          dup3\n          add\n        tag_60:\n          dup3\n          dup2\n          gt\n          iszero\n          tag_61\n          jumpi\n          dup3\n          mload\n          dup3\n          sstore\n          swap2\n          0x20\n          add\n          swap2\n          swap1\n          0x01\n          add\n          swap1\n          jump(tag_60)\n        tag_61:\n        tag_57:\n          pop\n          swap1\n          pop\n          tag_62\n          swap2\n          swap1\n          tag_63\n          jump\t// in\n        tag_62:\n          pop\n          swap1\n          jump\t// out\n        tag_63:\n        tag_64:\n          dup1\n          dup3\n          gt\n          iszero\n          tag_65\n          jumpi\n          0x00\n          dup2\n          0x00\n          swap1\n          sstore\n          pop\n          0x01\n          add\n          jump(tag_64)\n        tag_65:\n          pop\n          swap1\n          jump\t// out\n            /* \"#utility.yul\":7:419   */\n        tag_67:\n            /* \"#utility.yul\":85:90   */\n          0x00\n            /* \"#utility.yul\":110:176   */\n          tag_69\n            /* \"#utility.yul\":126:175   */\n          tag_70\n            /* \"#utility.yul\":168:174   */\n          dup5\n            /* \"#utility.yul\":126:175   */\n          tag_71\n          jump\t// in\n        tag_70:\n            /* \"#utility.yul\":110:176   */\n          tag_72\n          jump\t// in\n        tag_69:\n            /* \"#utility.yul\":101:176   */\n          swap1\n          pop\n            /* \"#utility.yul\":199:205   */\n          dup3\n            /* \"#utility.yul\":192:197   */\n          dup2\n            /* \"#utility.yul\":185:206   */\n          mstore\n            /* \"#utility.yul\":237:241   */\n          0x20\n            /* \"#utility.yul\":230:235   */\n          dup2\n            /* \"#utility.yul\":226:242   */\n          add\n            /* \"#utility.yul\":275:278   */\n          dup5\n            /* \"#utility.yul\":266:272   */\n          dup5\n            /* \"#utility.yul\":261:264   */\n          dup5\n            /* \"#utility.yul\":257:273   */\n          add\n            /* \"#utility.yul\":254:279   */\n          gt\n            /* \"#utility.yul\":251:363   */\n          iszero\n          tag_73\n          jumpi\n            /* \"#utility.yul\":282:361   */\n          tag_74\n          tag_75\n          jump\t// in\n        tag_74:\n            /* \"#utility.yul\":251:363   */\n        tag_73:\n            /* \"#utility.yul\":372:413   */\n          tag_76\n            /* \"#utility.yul\":406:412   */\n          dup5\n            /* \"#utility.yul\":401:404   */\n          dup3\n            /* \"#utility.yul\":396:399   */\n          dup6\n            /* \"#utility.yul\":372:413   */\n          tag_77\n          jump\t// in\n        tag_76:\n            /* \"#utility.yul\":91:419   */\n          pop\n            /* \"#utility.yul\":7:419   */\n          swap4\n          swap3\n          pop\n          pop\n          pop\n          jump\t// out\n            /* \"#utility.yul\":439:779   */\n        tag_78:\n            /* \"#utility.yul\":495:500   */\n          0x00\n            /* \"#utility.yul\":544:547   */\n          dup3\n            /* \"#utility.yul\":537:541   */\n          0x1f\n            /* \"#utility.yul\":529:535   */\n          dup4\n            /* \"#utility.yul\":525:542   */\n          add\n            /* \"#utility.yul\":521:548   */\n          slt\n            /* \"#utility.yul\":511:633   */\n          tag_80\n          jumpi\n            /* \"#utility.yul\":552:631   */\n          tag_81\n          tag_82\n          jump\t// in\n        tag_81:\n            /* \"#utility.yul\":511:633   */\n        tag_80:\n            /* \"#utility.yul\":669:675   */\n          dup2\n            /* \"#utility.yul\":656:676   */\n          calldataload\n            /* \"#utility.yul\":694:773   */\n          tag_83\n            /* \"#utility.yul\":769:772   */\n          dup5\n            /* \"#utility.yul\":761:767   */\n          dup3\n            /* \"#utility.yul\":754:758   */\n          0x20\n            /* \"#utility.yul\":746:752   */\n          dup7\n            /* \"#utility.yul\":742:759   */\n          add\n            /* \"#utility.yul\":694:773   */\n          tag_67\n          jump\t// in\n        tag_83:\n            /* \"#utility.yul\":685:773   */\n          swap2\n          pop\n            /* \"#utility.yul\":501:779   */\n          pop\n            /* \"#utility.yul\":439:779   */\n          swap3\n          swap2\n          pop\n          pop\n          jump\t// out\n            /* \"#utility.yul\":785:924   */\n        tag_84:\n            /* \"#utility.yul\":831:836   */\n          0x00\n            /* \"#utility.yul\":869:875   */\n          dup2\n            /* \"#utility.yul\":856:876   */\n          calldataload\n            /* \"#utility.yul\":847:876   */\n          swap1\n          pop\n            /* \"#utility.yul\":885:918   */\n          tag_86\n            /* \"#utility.yul\":912:917   */\n          dup2\n            /* \"#utility.yul\":885:918   */\n          tag_87\n          jump\t// in\n        tag_86:\n            /* \"#utility.yul\":785:924   */\n          swap3\n          swap2\n          pop\n          pop\n          jump\t// out\n            /* \"#utility.yul\":930:1439   */\n        tag_27:\n            /* \"#utility.yul\":999:1005   */\n          0x00\n            /* \"#utility.yul\":1048:1050   */\n          0x20\n            /* \"#utility.yul\":1036:1045   */\n          dup3\n            /* \"#utility.yul\":1027:1034   */\n          dup5\n            /* \"#utility.yul\":1023:1046   */\n          sub\n            /* \"#utility.yul\":1019:1051   */\n          slt\n            /* \"#utility.yul\":1016:1135   */\n          iszero\n          tag_89\n          jumpi\n            /* \"#utility.yul\":1054:1133   */\n          tag_90\n          tag_91\n          jump\t// in\n        tag_90:\n            /* \"#utility.yul\":1016:1135   */\n        tag_89:\n            /* \"#utility.yul\":1202:1203   */\n          0x00\n            /* \"#utility.yul\":1191:1200   */\n          dup3\n            /* \"#utility.yul\":1187:1204   */\n          add\n            /* \"#utility.yul\":1174:1205   */\n          calldataload\n            /* \"#utility.yul\":1232:1250   */\n          0xffffffffffffffff\n            /* \"#utility.yul\":1224:1230   */\n          dup2\n            /* \"#utility.yul\":1221:1251   */\n          gt\n            /* \"#utility.yul\":1218:1335   */\n          iszero\n          tag_92\n          jumpi\n            /* \"#utility.yul\":1254:1333   */\n          tag_93\n          tag_94\n          jump\t// in\n        tag_93:\n            /* \"#utility.yul\":1218:1335   */\n        tag_92:\n            /* \"#utility.yul\":1359:1422   */\n          tag_95\n            /* \"#utility.yul\":1414:1421   */\n          dup5\n            /* \"#utility.yul\":1405:1411   */\n          dup3\n            /* \"#utility.yul\":1394:1403   */\n          dup6\n            /* \"#utility.yul\":1390:1412   */\n          add\n            /* \"#utility.yul\":1359:1422   */\n          tag_78\n          jump\t// in\n        tag_95:\n            /* \"#utility.yul\":1349:1422   */\n          swap2\n          pop\n            /* \"#utility.yul\":1145:1432   */\n          pop\n            /* \"#utility.yul\":930:1439   */\n          swap3\n          swap2\n          pop\n          pop\n          jump\t// out\n            /* \"#utility.yul\":1445:1774   */\n        tag_15:\n            /* \"#utility.yul\":1504:1510   */\n          0x00\n            /* \"#utility.yul\":1553:1555   */\n          0x20\n            /* \"#utility.yul\":1541:1550   */\n          dup3\n            /* \"#utility.yul\":1532:1539   */\n          dup5\n            /* \"#utility.yul\":1528:1551   */\n          sub\n            /* \"#utility.yul\":1524:1556   */\n          slt\n            /* \"#utility.yul\":1521:1640   */\n          iszero\n          tag_97\n          jumpi\n            /* \"#utility.yul\":1559:1638   */\n          tag_98\n          tag_91\n          jump\t// in\n        tag_98:\n            /* \"#utility.yul\":1521:1640   */\n        tag_97:\n            /* \"#utility.yul\":1679:1680   */\n          0x00\n            /* \"#utility.yul\":1704:1757   */\n          tag_99\n            /* \"#utility.yul\":1749:1756   */\n          dup5\n            /* \"#utility.yul\":1740:1746   */\n          dup3\n            /* \"#utility.yul\":1729:1738   */\n          dup6\n            /* \"#utility.yul\":1725:1747   */\n          add\n            /* \"#utility.yul\":1704:1757   */\n          tag_84\n          jump\t// in\n        tag_99:\n            /* \"#utility.yul\":1694:1757   */\n          swap2\n          pop\n            /* \"#utility.yul\":1650:1767   */\n          pop\n            /* \"#utility.yul\":1445:1774   */\n          swap3\n          swap2\n          pop\n          pop\n          jump\t// out\n            /* \"#utility.yul\":1780:2434   */\n        tag_32:\n            /* \"#utility.yul\":1858:1864   */\n          0x00\n            /* \"#utility.yul\":1866:1872   */\n          dup1\n            /* \"#utility.yul\":1915:1917   */\n          0x40\n            /* \"#utility.yul\":1903:1912   */\n          dup4\n            /* \"#utility.yul\":1894:1901   */\n          dup6\n            /* \"#utility.yul\":1890:1913   */\n          sub\n            /* \"#utility.yul\":1886:1918   */\n          slt\n            /* \"#utility.yul\":1883:2002   */\n          iszero\n          tag_101\n          jumpi\n            /* \"#utility.yul\":1921:2000   */\n          tag_102\n          tag_91\n          jump\t// in\n        tag_102:\n            /* \"#utility.yul\":1883:2002   */\n        tag_101:\n            /* \"#utility.yul\":2041:2042   */\n          0x00\n            /* \"#utility.yul\":2066:2119   */\n          tag_103\n            /* \"#utility.yul\":2111:2118   */\n          dup6\n            /* \"#utility.yul\":2102:2108   */\n          dup3\n            /* \"#utility.yul\":2091:2100   */\n          dup7\n            /* \"#utility.yul\":2087:2109   */\n          add\n            /* \"#utility.yul\":2066:2119   */\n          tag_84\n          jump\t// in\n        tag_103:\n            /* \"#utility.yul\":2056:2119   */\n          swap3\n          pop\n            /* \"#utility.yul\":2012:2129   */\n          pop\n            /* \"#utility.yul\":2196:2198   */\n          0x20\n            /* \"#utility.yul\":2185:2194   */\n          dup4\n            /* \"#utility.yul\":2181:2199   */\n          add\n            /* \"#utility.yul\":2168:2200   */\n          calldataload\n            /* \"#utility.yul\":2227:2245   */\n          0xffffffffffffffff\n            /* \"#utility.yul\":2219:2225   */\n          dup2\n            /* \"#utility.yul\":2216:2246   */\n          gt\n            /* \"#utility.yul\":2213:2330   */\n          iszero\n          tag_104\n          jumpi\n            /* \"#utility.yul\":2249:2328   */\n          tag_105\n          tag_94\n          jump\t// in\n        tag_105:\n            /* \"#utility.yul\":2213:2330   */\n        tag_104:\n            /* \"#utility.yul\":2354:2417   */\n          tag_106\n            /* \"#utility.yul\":2409:2416   */\n          dup6\n            /* \"#utility.yul\":2400:2406   */\n          dup3\n            /* \"#utility.yul\":2389:2398   */\n          dup7\n            /* \"#utility.yul\":2385:2407   */\n          add\n            /* \"#utility.yul\":2354:2417   */\n          tag_78\n          jump\t// in\n        tag_106:\n            /* \"#utility.yul\":2344:2417   */\n          swap2\n          pop\n            /* \"#utility.yul\":2139:2427   */\n          pop\n            /* \"#utility.yul\":1780:2434   */\n          swap3\n          pop\n          swap3\n          swap1\n          pop\n          jump\t// out\n            /* \"#utility.yul\":2440:2804   */\n        tag_107:\n            /* \"#utility.yul\":2528:2531   */\n          0x00\n            /* \"#utility.yul\":2556:2595   */\n          tag_109\n            /* \"#utility.yul\":2589:2594   */\n          dup3\n            /* \"#utility.yul\":2556:2595   */\n          tag_110\n          jump\t// in\n        tag_109:\n            /* \"#utility.yul\":2611:2682   */\n          tag_111\n            /* \"#utility.yul\":2675:2681   */\n          dup2\n            /* \"#utility.yul\":2670:2673   */\n          dup6\n            /* \"#utility.yul\":2611:2682   */\n          tag_112\n          jump\t// in\n        tag_111:\n            /* \"#utility.yul\":2604:2682   */\n          swap4\n          pop\n            /* \"#utility.yul\":2691:2743   */\n          tag_113\n            /* \"#utility.yul\":2736:2742   */\n          dup2\n            /* \"#utility.yul\":2731:2734   */\n          dup6\n            /* \"#utility.yul\":2724:2728   */\n          0x20\n            /* \"#utility.yul\":2717:2722   */\n          dup7\n            /* \"#utility.yul\":2713:2729   */\n          add\n            /* \"#utility.yul\":2691:2743   */\n          tag_114\n          jump\t// in\n        tag_113:\n            /* \"#utility.yul\":2768:2797   */\n          tag_115\n            /* \"#utility.yul\":2790:2796   */\n          dup2\n            /* \"#utility.yul\":2768:2797   */\n          tag_116\n          jump\t// in\n        tag_115:\n            /* \"#utility.yul\":2763:2766   */\n          dup5\n            /* \"#utility.yul\":2759:2798   */\n          add\n            /* \"#utility.yul\":2752:2798   */\n          swap2\n          pop\n            /* \"#utility.yul\":2532:2804   */\n          pop\n            /* \"#utility.yul\":2440:2804   */\n          swap3\n          swap2\n          pop\n          pop\n          jump\t// out\n            /* \"#utility.yul\":2810:3187   */\n        tag_117:\n            /* \"#utility.yul\":2916:2919   */\n          0x00\n            /* \"#utility.yul\":2944:2983   */\n          tag_119\n            /* \"#utility.yul\":2977:2982   */\n          dup3\n            /* \"#utility.yul\":2944:2983   */\n          tag_110\n          jump\t// in\n        tag_119:\n            /* \"#utility.yul\":2999:3088   */\n          tag_120\n            /* \"#utility.yul\":3081:3087   */\n          dup2\n            /* \"#utility.yul\":3076:3079   */\n          dup6\n            /* \"#utility.yul\":2999:3088   */\n          tag_121\n          jump\t// in\n        tag_120:\n            /* \"#utility.yul\":2992:3088   */\n          swap4\n          pop\n            /* \"#utility.yul\":3097:3149   */\n          tag_122\n            /* \"#utility.yul\":3142:3148   */\n          dup2\n            /* \"#utility.yul\":3137:3140   */\n          dup6\n            /* \"#utility.yul\":3130:3134   */\n          0x20\n            /* \"#utility.yul\":3123:3128   */\n          dup7\n            /* \"#utility.yul\":3119:3135   */\n          add\n            /* \"#utility.yul\":3097:3149   */\n          tag_114\n          jump\t// in\n        tag_122:\n            /* \"#utility.yul\":3174:3180   */\n          dup1\n            /* \"#utility.yul\":3169:3172   */\n          dup5\n            /* \"#utility.yul\":3165:3181   */\n          add\n            /* \"#utility.yul\":3158:3181   */\n          swap2\n          pop\n            /* \"#utility.yul\":2920:3187   */\n          pop\n            /* \"#utility.yul\":2810:3187   */\n          swap3\n          swap2\n          pop\n          pop\n          jump\t// out\n            /* \"#utility.yul\":3193:3311   */\n        tag_123:\n            /* \"#utility.yul\":3280:3304   */\n          tag_125\n            /* \"#utility.yul\":3298:3303   */\n          dup2\n            /* \"#utility.yul\":3280:3304   */\n          tag_126\n          jump\t// in\n        tag_125:\n            /* \"#utility.yul\":3275:3278   */\n          dup3\n            /* \"#utility.yul\":3268:3305   */\n          mstore\n            /* \"#utility.yul\":3193:3311   */\n          pop\n          pop\n          jump\t// out\n            /* \"#utility.yul\":3317:3592   */\n        tag_54:\n            /* \"#utility.yul\":3449:3452   */\n          0x00\n            /* \"#utility.yul\":3471:3566   */\n          tag_128\n            /* \"#utility.yul\":3562:3565   */\n          dup3\n            /* \"#utility.yul\":3553:3559   */\n          dup5\n            /* \"#utility.yul\":3471:3566   */\n          tag_117\n          jump\t// in\n        tag_128:\n            /* \"#utility.yul\":3464:3566   */\n          swap2\n          pop\n            /* \"#utility.yul\":3583:3586   */\n          dup2\n            /* \"#utility.yul\":3576:3586   */\n          swap1\n          pop\n            /* \"#utility.yul\":3317:3592   */\n          swap3\n          swap2\n          pop\n          pop\n          jump\t// out\n            /* \"#utility.yul\":3598:3820   */\n        tag_12:\n            /* \"#utility.yul\":3691:3695   */\n          0x00\n            /* \"#utility.yul\":3729:3731   */\n          0x20\n            /* \"#utility.yul\":3718:3727   */\n          dup3\n            /* \"#utility.yul\":3714:3732   */\n          add\n            /* \"#utility.yul\":3706:3732   */\n          swap1\n          pop\n            /* \"#utility.yul\":3742:3813   */\n          tag_130\n            /* \"#utility.yul\":3810:3811   */\n          0x00\n            /* \"#utility.yul\":3799:3808   */\n          dup4\n            /* \"#utility.yul\":3795:3812   */\n          add\n            /* \"#utility.yul\":3786:3792   */\n          dup5\n            /* \"#utility.yul\":3742:3813   */\n          tag_123\n          jump\t// in\n        tag_130:\n            /* \"#utility.yul\":3598:3820   */\n          swap3\n          swap2\n          pop\n          pop\n          jump\t// out\n            /* \"#utility.yul\":3826:4249   */\n        tag_18:\n            /* \"#utility.yul\":3967:3971   */\n          0x00\n            /* \"#utility.yul\":4005:4007   */\n          0x40\n            /* \"#utility.yul\":3994:4003   */\n          dup3\n            /* \"#utility.yul\":3990:4008   */\n          add\n            /* \"#utility.yul\":3982:4008   */\n          swap1\n          pop\n            /* \"#utility.yul\":4018:4089   */\n          tag_132\n            /* \"#utility.yul\":4086:4087   */\n          0x00\n            /* \"#utility.yul\":4075:4084   */\n          dup4\n            /* \"#utility.yul\":4071:4088   */\n          add\n            /* \"#utility.yul\":4062:4068   */\n          dup6\n            /* \"#utility.yul\":4018:4089   */\n          tag_123\n          jump\t// in\n        tag_132:\n            /* \"#utility.yul\":4136:4145   */\n          dup2\n            /* \"#utility.yul\":4130:4134   */\n          dup2\n            /* \"#utility.yul\":4126:4146   */\n          sub\n            /* \"#utility.yul\":4121:4123   */\n          0x20\n            /* \"#utility.yul\":4110:4119   */\n          dup4\n            /* \"#utility.yul\":4106:4124   */\n          add\n            /* \"#utility.yul\":4099:4147   */\n          mstore\n            /* \"#utility.yul\":4164:4242   */\n          tag_133\n            /* \"#utility.yul\":4237:4241   */\n          dup2\n            /* \"#utility.yul\":4228:4234   */\n          dup5\n            /* \"#utility.yul\":4164:4242   */\n          tag_107\n          jump\t// in\n        tag_133:\n            /* \"#utility.yul\":4156:4242   */\n          swap1\n          pop\n            /* \"#utility.yul\":3826:4249   */\n          swap4\n          swap3\n          pop\n          pop\n          pop\n          jump\t// out\n            /* \"#utility.yul\":4255:4384   */\n        tag_72:\n            /* \"#utility.yul\":4289:4295   */\n          0x00\n            /* \"#utility.yul\":4316:4336   */\n          tag_135\n          tag_136\n          jump\t// in\n        tag_135:\n            /* \"#utility.yul\":4306:4336   */\n          swap1\n          pop\n            /* \"#utility.yul\":4345:4378   */\n          tag_137\n            /* \"#utility.yul\":4373:4377   */\n          dup3\n            /* \"#utility.yul\":4365:4371   */\n          dup3\n            /* \"#utility.yul\":4345:4378   */\n          tag_138\n          jump\t// in\n        tag_137:\n            /* \"#utility.yul\":4255:4384   */\n          swap2\n          swap1\n          pop\n          jump\t// out\n            /* \"#utility.yul\":4390:4465   */\n        tag_136:\n            /* \"#utility.yul\":4423:4429   */\n          0x00\n            /* \"#utility.yul\":4456:4458   */\n          0x40\n            /* \"#utility.yul\":4450:4459   */\n          mload\n            /* \"#utility.yul\":4440:4459   */\n          swap1\n          pop\n            /* \"#utility.yul\":4390:4465   */\n          swap1\n          jump\t// out\n            /* \"#utility.yul\":4471:4779   */\n        tag_71:\n            /* \"#utility.yul\":4533:4537   */\n          0x00\n            /* \"#utility.yul\":4623:4641   */\n          0xffffffffffffffff\n            /* \"#utility.yul\":4615:4621   */\n          dup3\n            /* \"#utility.yul\":4612:4642   */\n          gt\n            /* \"#utility.yul\":4609:4665   */\n          iszero\n          tag_141\n          jumpi\n            /* \"#utility.yul\":4645:4663   */\n          tag_142\n          tag_143\n          jump\t// in\n        tag_142:\n            /* \"#utility.yul\":4609:4665   */\n        tag_141:\n            /* \"#utility.yul\":4683:4712   */\n          tag_144\n            /* \"#utility.yul\":4705:4711   */\n          dup3\n            /* \"#utility.yul\":4683:4712   */\n          tag_116\n          jump\t// in\n        tag_144:\n            /* \"#utility.yul\":4675:4712   */\n          swap1\n          pop\n            /* \"#utility.yul\":4767:4771   */\n          0x20\n            /* \"#utility.yul\":4761:4765   */\n          dup2\n            /* \"#utility.yul\":4757:4772   */\n          add\n            /* \"#utility.yul\":4749:4772   */\n          swap1\n          pop\n            /* \"#utility.yul\":4471:4779   */\n          swap2\n          swap1\n          pop\n          jump\t// out\n            /* \"#utility.yul\":4785:4884   */\n        tag_110:\n            /* \"#utility.yul\":4837:4843   */\n          0x00\n            /* \"#utility.yul\":4871:4876   */\n          dup2\n            /* \"#utility.yul\":4865:4877   */\n          mload\n            /* \"#utility.yul\":4855:4877   */\n          swap1\n          pop\n            /* \"#utility.yul\":4785:4884   */\n          swap2\n          swap1\n          pop\n          jump\t// out\n            /* \"#utility.yul\":4890:5059   */\n        tag_112:\n            /* \"#utility.yul\":4974:4985   */\n          0x00\n            /* \"#utility.yul\":5008:5014   */\n          dup3\n            /* \"#utility.yul\":5003:5006   */\n          dup3\n            /* \"#utility.yul\":4996:5015   */\n          mstore\n            /* \"#utility.yul\":5048:5052   */\n          0x20\n            /* \"#utility.yul\":5043:5046   */\n          dup3\n            /* \"#utility.yul\":5039:5053   */\n          add\n            /* \"#utility.yul\":5024:5053   */\n          swap1\n          pop\n            /* \"#utility.yul\":4890:5059   */\n          swap3\n          swap2\n          pop\n          pop\n          jump\t// out\n            /* \"#utility.yul\":5065:5213   */\n        tag_121:\n            /* \"#utility.yul\":5167:5178   */\n          0x00\n            /* \"#utility.yul\":5204:5207   */\n          dup2\n            /* \"#utility.yul\":5189:5207   */\n          swap1\n          pop\n            /* \"#utility.yul\":5065:5213   */\n          swap3\n          swap2\n          pop\n          pop\n          jump\t// out\n            /* \"#utility.yul\":5219:5296   */\n        tag_126:\n            /* \"#utility.yul\":5256:5263   */\n          0x00\n            /* \"#utility.yul\":5285:5290   */\n          dup2\n            /* \"#utility.yul\":5274:5290   */\n          swap1\n          pop\n            /* \"#utility.yul\":5219:5296   */\n          swap2\n          swap1\n          pop\n          jump\t// out\n            /* \"#utility.yul\":5302:5456   */\n        tag_77:\n            /* \"#utility.yul\":5386:5392   */\n          dup3\n            /* \"#utility.yul\":5381:5384   */\n          dup2\n            /* \"#utility.yul\":5376:5379   */\n          dup4\n            /* \"#utility.yul\":5363:5393   */\n          calldatacopy\n            /* \"#utility.yul\":5448:5449   */\n          0x00\n            /* \"#utility.yul\":5439:5445   */\n          dup4\n            /* \"#utility.yul\":5434:5437   */\n          dup4\n            /* \"#utility.yul\":5430:5446   */\n          add\n            /* \"#utility.yul\":5423:5450   */\n          mstore\n            /* \"#utility.yul\":5302:5456   */\n          pop\n          pop\n          pop\n          jump\t// out\n            /* \"#utility.yul\":5462:5769   */\n        tag_114:\n            /* \"#utility.yul\":5530:5531   */\n          0x00\n            /* \"#utility.yul\":5540:5653   */\n        tag_151:\n            /* \"#utility.yul\":5554:5560   */\n          dup4\n            /* \"#utility.yul\":5551:5552   */\n          dup2\n            /* \"#utility.yul\":5548:5561   */\n          lt\n            /* \"#utility.yul\":5540:5653   */\n          iszero\n          tag_153\n          jumpi\n            /* \"#utility.yul\":5639:5640   */\n          dup1\n            /* \"#utility.yul\":5634:5637   */\n          dup3\n            /* \"#utility.yul\":5630:5641   */\n          add\n            /* \"#utility.yul\":5624:5642   */\n          mload\n            /* \"#utility.yul\":5620:5621   */\n          dup2\n            /* \"#utility.yul\":5615:5618   */\n          dup5\n            /* \"#utility.yul\":5611:5622   */\n          add\n            /* \"#utility.yul\":5604:5643   */\n          mstore\n            /* \"#utility.yul\":5576:5578   */\n          0x20\n            /* \"#utility.yul\":5573:5574   */\n          dup2\n            /* \"#utility.yul\":5569:5579   */\n          add\n            /* \"#utility.yul\":5564:5579   */\n          swap1\n          pop\n            /* \"#utility.yul\":5540:5653   */\n          jump(tag_151)\n        tag_153:\n            /* \"#utility.yul\":5671:5677   */\n          dup4\n            /* \"#utility.yul\":5668:5669   */\n          dup2\n            /* \"#utility.yul\":5665:5678   */\n          gt\n            /* \"#utility.yul\":5662:5763   */\n          iszero\n          tag_154\n          jumpi\n            /* \"#utility.yul\":5751:5752   */\n          0x00\n            /* \"#utility.yul\":5742:5748   */\n          dup5\n            /* \"#utility.yul\":5737:5740   */\n          dup5\n            /* \"#utility.yul\":5733:5749   */\n          add\n            /* \"#utility.yul\":5726:5753   */\n          mstore\n            /* \"#utility.yul\":5662:5763   */\n        tag_154:\n            /* \"#utility.yul\":5511:5769   */\n          pop\n            /* \"#utility.yul\":5462:5769   */\n          pop\n          pop\n          pop\n          jump\t// out\n            /* \"#utility.yul\":5775:6095   */\n        tag_38:\n            /* \"#utility.yul\":5819:5825   */\n          0x00\n            /* \"#utility.yul\":5856:5857   */\n          0x02\n            /* \"#utility.yul\":5850:5854   */\n          dup3\n            /* \"#utility.yul\":5846:5858   */\n          div\n            /* \"#utility.yul\":5836:5858   */\n          swap1\n          pop\n            /* \"#utility.yul\":5903:5904   */\n          0x01\n            /* \"#utility.yul\":5897:5901   */\n          dup3\n            /* \"#utility.yul\":5893:5905   */\n          and\n            /* \"#utility.yul\":5924:5942   */\n          dup1\n            /* \"#utility.yul\":5914:5995   */\n          tag_156\n          jumpi\n            /* \"#utility.yul\":5980:5984   */\n          0x7f\n            /* \"#utility.yul\":5972:5978   */\n          dup3\n            /* \"#utility.yul\":5968:5985   */\n          and\n            /* \"#utility.yul\":5958:5985   */\n          swap2\n          pop\n            /* \"#utility.yul\":5914:5995   */\n        tag_156:\n            /* \"#utility.yul\":6042:6044   */\n          0x20\n            /* \"#utility.yul\":6034:6040   */\n          dup3\n            /* \"#utility.yul\":6031:6045   */\n          lt\n            /* \"#utility.yul\":6011:6029   */\n          dup2\n            /* \"#utility.yul\":6008:6046   */\n          eq\n            /* \"#utility.yul\":6005:6089   */\n          iszero\n          tag_157\n          jumpi\n            /* \"#utility.yul\":6061:6079   */\n          tag_158\n          tag_159\n          jump\t// in\n        tag_158:\n            /* \"#utility.yul\":6005:6089   */\n        tag_157:\n            /* \"#utility.yul\":5826:6095   */\n          pop\n            /* \"#utility.yul\":5775:6095   */\n          swap2\n          swap1\n          pop\n          jump\t// out\n            /* \"#utility.yul\":6101:6382   */\n        tag_138:\n            /* \"#utility.yul\":6184:6211   */\n          tag_161\n            /* \"#utility.yul\":6206:6210   */\n          dup3\n            /* \"#utility.yul\":6184:6211   */\n          tag_116\n          jump\t// in\n        tag_161:\n            /* \"#utility.yul\":6176:6182   */\n          dup2\n            /* \"#utility.yul\":6172:6212   */\n          add\n            /* \"#utility.yul\":6314:6320   */\n          dup2\n            /* \"#utility.yul\":6302:6312   */\n          dup2\n            /* \"#utility.yul\":6299:6321   */\n          lt\n            /* \"#utility.yul\":6278:6296   */\n          0xffffffffffffffff\n            /* \"#utility.yul\":6266:6276   */\n          dup3\n            /* \"#utility.yul\":6263:6297   */\n          gt\n            /* \"#utility.yul\":6260:6322   */\n          or\n            /* \"#utility.yul\":6257:6345   */\n          iszero\n          tag_162\n          jumpi\n            /* \"#utility.yul\":6325:6343   */\n          tag_163\n          tag_143\n          jump\t// in\n        tag_163:\n            /* \"#utility.yul\":6257:6345   */\n        tag_162:\n            /* \"#utility.yul\":6365:6375   */\n          dup1\n            /* \"#utility.yul\":6361:6363   */\n          0x40\n            /* \"#utility.yul\":6354:6376   */\n          mstore\n            /* \"#utility.yul\":6144:6382   */\n          pop\n            /* \"#utility.yul\":6101:6382   */\n          pop\n          pop\n          jump\t// out\n            /* \"#utility.yul\":6388:6568   */\n        tag_159:\n            /* \"#utility.yul\":6436:6513   */\n          0x4e487b7100000000000000000000000000000000000000000000000000000000\n            /* \"#utility.yul\":6433:6434   */\n          0x00\n            /* \"#utility.yul\":6426:6514   */\n          mstore\n            /* \"#utility.yul\":6533:6537   */\n          0x22\n            /* \"#utility.yul\":6530:6531   */\n          0x04\n            /* \"#utility.yul\":6523:6538   */\n          mstore\n            /* \"#utility.yul\":6557:6561   */\n          0x24\n            /* \"#utility.yul\":6554:6555   */\n          0x00\n            /* \"#utility.yul\":6547:6562   */\n          revert\n            /* \"#utility.yul\":6574:6754   */\n        tag_143:\n            /* \"#utility.yul\":6622:6699   */\n          0x4e487b7100000000000000000000000000000000000000000000000000000000\n            /* \"#utility.yul\":6619:6620   */\n          0x00\n            /* \"#utility.yul\":6612:6700   */\n          mstore\n            /* \"#utility.yul\":6719:6723   */\n          0x41\n            /* \"#utility.yul\":6716:6717   */\n          0x04\n            /* \"#utility.yul\":6709:6724   */\n          mstore\n            /* \"#utility.yul\":6743:6747   */\n          0x24\n            /* \"#utility.yul\":6740:6741   */\n          0x00\n            /* \"#utility.yul\":6733:6748   */\n          revert\n            /* \"#utility.yul\":6760:6877   */\n        tag_82:\n            /* \"#utility.yul\":6869:6870   */\n          0x00\n            /* \"#utility.yul\":6866:6867   */\n          dup1\n            /* \"#utility.yul\":6859:6871   */\n          revert\n            /* \"#utility.yul\":6883:7000   */\n        tag_75:\n            /* \"#utility.yul\":6992:6993   */\n          0x00\n            /* \"#utility.yul\":6989:6990   */\n          dup1\n            /* \"#utility.yul\":6982:6994   */\n          revert\n            /* \"#utility.yul\":7006:7123   */\n        tag_94:\n            /* \"#utility.yul\":7115:7116   */\n          0x00\n            /* \"#utility.yul\":7112:7113   */\n          dup1\n            /* \"#utility.yul\":7105:7117   */\n          revert\n            /* \"#utility.yul\":7129:7246   */\n        tag_91:\n            /* \"#utility.yul\":7238:7239   */\n          0x00\n            /* \"#utility.yul\":7235:7236   */\n          dup1\n            /* \"#utility.yul\":7228:7240   */\n          revert\n            /* \"#utility.yul\":7252:7354   */\n        tag_116:\n            /* \"#utility.yul\":7293:7299   */\n          0x00\n            /* \"#utility.yul\":7344:7346   */\n          0x1f\n            /* \"#utility.yul\":7340:7347   */\n          not\n            /* \"#utility.yul\":7335:7337   */\n          0x1f\n            /* \"#utility.yul\":7328:7333   */\n          dup4\n            /* \"#utility.yul\":7324:7338   */\n          add\n            /* \"#utility.yul\":7320:7348   */\n          and\n            /* \"#utility.yul\":7310:7348   */\n          swap1\n          pop\n            /* \"#utility.yul\":7252:7354   */\n          swap2\n          swap1\n          pop\n          jump\t// out\n            /* \"#utility.yul\":7360:7482   */\n        tag_87:\n            /* \"#utility.yul\":7433:7457   */\n          tag_172\n            /* \"#utility.yul\":7451:7456   */\n          dup2\n            /* \"#utility.yul\":7433:7457   */\n          tag_126\n          jump\t// in\n        tag_172:\n            /* \"#utility.yul\":7426:7431   */\n          dup2\n            /* \"#utility.yul\":7423:7458   */\n          eq\n            /* \"#utility.yul\":7413:7476   */\n          tag_173\n          jumpi\n            /* \"#utility.yul\":7472:7473   */\n          0x00\n            /* \"#utility.yul\":7469:7470   */\n          dup1\n            /* \"#utility.yul\":7462:7474   */\n          revert\n            /* \"#utility.yul\":7413:7476   */\n        tag_173:\n            /* \"#utility.yul\":7360:7482   */\n          pop\n          jump\t// out\n\n        auxdata: 0xa26469706673582212205ac64aaf01a5d9b63575f78f1b4f182464aa279116af7cef3307c0e7f391ff5064736f6c63430008070033\n    }\n}\n",
				"bytecode": {
					"linkReferences": {},
					"object": "608060405234801561001057600080fd5b5060405161001d9061007e565b604051809103906000f080158015610039573d6000803e3d6000fd5b506000806101000a81548173ffffffffffffffffffffffffffffffffffffffff021916908373ffffffffffffffffffffffffffffffffffffffff16021790555061008b565b61088180610d2783390190565b610c8d8061009a6000396000f3fe608060405234801561001057600080fd5b506004361061004c5760003560e01c80631e7e25b71461005157806321fa92ec1461006d5780634678a3b11461008b5780636be0d6bf14610095575b600080fd5b61006b600480360381019061006691906102ac565b6100b3565b005b610075610141565b604051610082919061033f565b60405180910390f35b6100936101e7565b005b61009d610251565b6040516100aa9190610324565b60405180910390f35b60008054906101000a900473ffffffffffffffffffffffffffffffffffffffff1673ffffffffffffffffffffffffffffffffffffffff16636057361d826040518263ffffffff1660e01b815260040161010c919061033f565b600060405180830381600087803b15801561012657600080fd5b505af115801561013a573d6000803e3d6000fd5b5050505050565b60008060009054906101000a900473ffffffffffffffffffffffffffffffffffffffff1673ffffffffffffffffffffffffffffffffffffffff1663012d45ae6040518163ffffffff1660e01b815260040160206040518083038186803b1580156101aa57600080fd5b505afa1580156101be573d6000803e3d6000fd5b505050506040513d601f19601f820116820180604052508101906101e291906102d9565b905090565b6040516101f390610275565b604051809103906000f08015801561020f573d6000803e3d6000fd5b506000806101000a81548173ffffffffffffffffffffffffffffffffffffffff021916908373ffffffffffffffffffffffffffffffffffffffff160217905550565b60008054906101000a900473ffffffffffffffffffffffffffffffffffffffff1681565b610881806103d783390190565b600081359050610291816103bf565b92915050565b6000815190506102a6816103bf565b92915050565b6000602082840312156102c2576102c16103ba565b5b60006102d084828501610282565b91505092915050565b6000602082840312156102ef576102ee6103ba565b5b60006102fd84828501610297565b91505092915050565b61030f81610384565b82525050565b61031e8161037a565b82525050565b60006020820190506103396000830184610306565b92915050565b60006020820190506103546000830184610315565b92915050565b600073ffffffffffffffffffffffffffffffffffffffff82169050919050565b6000819050919050565b600061038f82610396565b9050919050565b60006103a1826103a8565b9050919050565b60006103b38261035a565b9050919050565b600080fd5b6103c88161037a565b81146103d357600080fd5b5056fe608060405234801561001057600080fd5b50610861806100206000396000f3fe608060405234801561001057600080fd5b50600436106100625760003560e01c8063012d45ae14610067578063092a1820146100855780636057361d146100b6578063c7a0d9f6146100d2578063e907247c146100f0578063fe5be35614610121575b600080fd5b61006f61013d565b60405161007c919061061a565b60405180910390f35b61009f600480360381019061009a9190610501565b610146565b6040516100ad929190610635565b60405180910390f35b6100d060048036038101906100cb9190610501565b610202565b005b6100da61020c565b6040516100e7919061061a565b60405180910390f35b61010a600480360381019061010591906104b8565b610212565b604051610118929190610635565b60405180910390f35b61013b6004803603810190610136919061052e565b6102d4565b005b60008054905090565b6002818154811061015657600080fd5b906000526020600020906002020160009150905080600001549080600101805461017f9061072e565b80601f01602080910402602001604051908101604052809291908181526020018280546101ab9061072e565b80156101f85780601f106101cd576101008083540402835291602001916101f8565b820191906000526020600020905b8154815290600101906020018083116101db57829003601f168201915b5050505050905082565b8060008190555050565b60005481565b6001818051602081018201805184825260208301602085012081835280955050505050506000915090508060000154908060010180546102519061072e565b80601f016020809104026020016040519081016040528092919081815260200182805461027d9061072e565b80156102ca5780601f1061029f576101008083540402835291602001916102ca565b820191906000526020600020905b8154815290600101906020018083116102ad57829003601f168201915b5050505050905082565b60006040518060400160405280848152602001838152509050600281908060018154018082558091505060019003906000526020600020906002020160009091909190915060008201518160000155602082015181600101908051906020019061033f929190610390565b505050806001836040516103539190610603565b9081526020016040518091039020600082015181600001556020820151816001019080519060200190610387929190610390565b50905050505050565b82805461039c9061072e565b90600052602060002090601f0160209004810192826103be5760008555610405565b82601f106103d757805160ff1916838001178555610405565b82800160010185558215610405579182015b828111156104045782518255916020019190600101906103e9565b5b5090506104129190610416565b5090565b5b8082111561042f576000816000905550600101610417565b5090565b60006104466104418461068a565b610665565b905082815260208101848484011115610462576104616107f4565b5b61046d8482856106ec565b509392505050565b600082601f83011261048a576104896107ef565b5b813561049a848260208601610433565b91505092915050565b6000813590506104b281610814565b92915050565b6000602082840312156104ce576104cd6107fe565b5b600082013567ffffffffffffffff8111156104ec576104eb6107f9565b5b6104f884828501610475565b91505092915050565b600060208284031215610517576105166107fe565b5b6000610525848285016104a3565b91505092915050565b60008060408385031215610545576105446107fe565b5b6000610553858286016104a3565b925050602083013567ffffffffffffffff811115610574576105736107f9565b5b61058085828601610475565b9150509250929050565b6000610595826106bb565b61059f81856106c6565b93506105af8185602086016106fb565b6105b881610803565b840191505092915050565b60006105ce826106bb565b6105d881856106d7565b93506105e88185602086016106fb565b80840191505092915050565b6105fd816106e2565b82525050565b600061060f82846105c3565b915081905092915050565b600060208201905061062f60008301846105f4565b92915050565b600060408201905061064a60008301856105f4565b818103602083015261065c818461058a565b90509392505050565b600061066f610680565b905061067b8282610760565b919050565b6000604051905090565b600067ffffffffffffffff8211156106a5576106a46107c0565b5b6106ae82610803565b9050602081019050919050565b600081519050919050565b600082825260208201905092915050565b600081905092915050565b6000819050919050565b82818337600083830152505050565b60005b838110156107195780820151818401526020810190506106fe565b83811115610728576000848401525b50505050565b6000600282049050600182168061074657607f821691505b6020821081141561075a57610759610791565b5b50919050565b61076982610803565b810181811067ffffffffffffffff82111715610788576107876107c0565b5b80604052505050565b7f4e487b7100000000000000000000000000000000000000000000000000000000600052602260045260246000fd5b7f4e487b7100000000000000000000000000000000000000000000000000000000600052604160045260246000fd5b600080fd5b600080fd5b600080fd5b600080fd5b6000601f19601f8301169050919050565b61081d816106e2565b811461082857600080fd5b5056fea26469706673582212205ac64aaf01a5d9b63575f78f1b4f182464aa279116af7cef3307c0e7f391ff5064736f6c63430008070033a26469706673582212204c450c60959e202d0e818bf4b715ae164aa7940020a946831648a305dfed4d4864736f6c63430008070033608060405234801561001057600080fd5b50610861806100206000396000f3fe608060405234801561001057600080fd5b50600436106100625760003560e01c8063012d45ae14610067578063092a1820146100855780636057361d146100b6578063c7a0d9f6146100d2578063e907247c146100f0578063fe5be35614610121575b600080fd5b61006f61013d565b60405161007c919061061a565b60405180910390f35b61009f600480360381019061009a9190610501565b610146565b6040516100ad929190610635565b60405180910390f35b6100d060048036038101906100cb9190610501565b610202565b005b6100da61020c565b6040516100e7919061061a565b60405180910390f35b61010a600480360381019061010591906104b8565b610212565b604051610118929190610635565b60405180910390f35b61013b6004803603810190610136919061052e565b6102d4565b005b60008054905090565b6002818154811061015657600080fd5b906000526020600020906002020160009150905080600001549080600101805461017f9061072e565b80601f01602080910402602001604051908101604052809291908181526020018280546101ab9061072e565b80156101f85780601f106101cd576101008083540402835291602001916101f8565b820191906000526020600020905b8154815290600101906020018083116101db57829003601f168201915b5050505050905082565b8060008190555050565b60005481565b6001818051602081018201805184825260208301602085012081835280955050505050506000915090508060000154908060010180546102519061072e565b80601f016020809104026020016040519081016040528092919081815260200182805461027d9061072e565b80156102ca5780601f1061029f576101008083540402835291602001916102ca565b820191906000526020600020905b8154815290600101906020018083116102ad57829003601f168201915b5050505050905082565b60006040518060400160405280848152602001838152509050600281908060018154018082558091505060019003906000526020600020906002020160009091909190915060008201518160000155602082015181600101908051906020019061033f929190610390565b505050806001836040516103539190610603565b9081526020016040518091039020600082015181600001556020820151816001019080519060200190610387929190610390565b50905050505050565b82805461039c9061072e565b90600052602060002090601f0160209004810192826103be5760008555610405565b82601f106103d757805160ff1916838001178555610405565b82800160010185558215610405579182015b828111156104045782518255916020019190600101906103e9565b5b5090506104129190610416565b5090565b5b8082111561042f576000816000905550600101610417565b5090565b60006104466104418461068a565b610665565b905082815260208101848484011115610462576104616107f4565b5b61046d8482856106ec565b509392505050565b600082601f83011261048a576104896107ef565b5b813561049a848260208601610433565b91505092915050565b6000813590506104b281610814565b92915050565b6000602082840312156104ce576104cd6107fe565b5b600082013567ffffffffffffffff8111156104ec576104eb6107f9565b5b6104f884828501610475565b91505092915050565b600060208284031215610517576105166107fe565b5b6000610525848285016104a3565b91505092915050565b60008060408385031215610545576105446107fe565b5b6000610553858286016104a3565b925050602083013567ffffffffffffffff811115610574576105736107f9565b5b61058085828601610475565b9150509250929050565b6000610595826106bb565b61059f81856106c6565b93506105af8185602086016106fb565b6105b881610803565b840191505092915050565b60006105ce826106bb565b6105d881856106d7565b93506105e88185602086016106fb565b80840191505092915050565b6105fd816106e2565b82525050565b600061060f82846105c3565b915081905092915050565b600060208201905061062f60008301846105f4565b92915050565b600060408201905061064a60008301856105f4565b818103602083015261065c818461058a565b90509392505050565b600061066f610680565b905061067b8282610760565b919050565b6000604051905090565b600067ffffffffffffffff8211156106a5576106a46107c0565b5b6106ae82610803565b9050602081019050919050565b600081519050919050565b600082825260208201905092915050565b600081905092915050565b6000819050919050565b82818337600083830152505050565b60005b838110156107195780820151818401526020810190506106fe565b83811115610728576000848401525b50505050565b6000600282049050600182168061074657607f821691505b6020821081141561075a57610759610791565b5b50919050565b61076982610803565b810181811067ffffffffffffffff82111715610788576107876107c0565b5b80604052505050565b7f4e487b7100000000000000000000000000000000000000000000000000000000600052602260045260246000fd5b7f4e487b7100000000000000000000000000000000000000000000000000000000600052604160045260246000fd5b600080fd5b600080fd5b600080fd5b600080fd5b6000601f19601f8301169050919050565b61081d816106e2565b811461082857600080fd5b5056fea26469706673582212205ac64aaf01a5d9b63575f78f1b4f182464aa279116af7cef3307c0e7f391ff5064736f6c63430008070033",
					"opcodes": "PUSH1 0x80 PUSH1 0x40 MSTORE CALLVALUE DUP1 ISZERO PUSH2 0x10 JUMPI PUSH1 0x0 DUP1 REVERT JUMPDEST POP PUSH1 0x40 MLOAD PUSH2 0x1D SWAP1 PUSH2 0x7E JUMP JUMPDEST PUSH1 0x40 MLOAD DUP1 SWAP2 SUB SWAP1 PUSH1 0x0 CREATE DUP1 ISZERO DUP1 ISZERO PUSH2 0x39 JUMPI RETURNDATASIZE PUSH1 0x0 DUP1 RETURNDATACOPY RETURNDATASIZE PUSH1 0x0 REVERT JUMPDEST POP PUSH1 0x0 DUP1 PUSH2 0x100 EXP DUP2 SLOAD DUP2 PUSH20 0xFFFFFFFFFFFFFFFFFFFFFFFFFFFFFFFFFFFFFFFF MUL NOT AND SWAP1 DUP4 PUSH20 0xFFFFFFFFFFFFFFFFFFFFFFFFFFFFFFFFFFFFFFFF AND MUL OR SWAP1 SSTORE POP PUSH2 0x8B JUMP JUMPDEST PUSH2 0x881 DUP1 PUSH2 0xD27 DUP4 CODECOPY ADD SWAP1 JUMP JUMPDEST PUSH2 0xC8D DUP1 PUSH2 0x9A PUSH1 0x0 CODECOPY PUSH1 0x0 RETURN INVALID PUSH1 0x80 PUSH1 0x40 MSTORE CALLVALUE DUP1 ISZERO PUSH2 0x10 JUMPI PUSH1 0x0 DUP1 REVERT JUMPDEST POP PUSH1 0x4 CALLDATASIZE LT PUSH2 0x4C JUMPI PUSH1 0x0 CALLDATALOAD PUSH1 0xE0 SHR DUP1 PUSH4 0x1E7E25B7 EQ PUSH2 0x51 JUMPI DUP1 PUSH4 0x21FA92EC EQ PUSH2 0x6D JUMPI DUP1 PUSH4 0x4678A3B1 EQ PUSH2 0x8B JUMPI DUP1 PUSH4 0x6BE0D6BF EQ PUSH2 0x95 JUMPI JUMPDEST PUSH1 0x0 DUP1 REVERT JUMPDEST PUSH2 0x6B PUSH1 0x4 DUP1 CALLDATASIZE SUB DUP2 ADD SWAP1 PUSH2 0x66 SWAP2 SWAP1 PUSH2 0x2AC JUMP JUMPDEST PUSH2 0xB3 JUMP JUMPDEST STOP JUMPDEST PUSH2 0x75 PUSH2 0x141 JUMP JUMPDEST PUSH1 0x40 MLOAD PUSH2 0x82 SWAP2 SWAP1 PUSH2 0x33F JUMP JUMPDEST PUSH1 0x40 MLOAD DUP1 SWAP2 SUB SWAP1 RETURN JUMPDEST PUSH2 0x93 PUSH2 0x1E7 JUMP JUMPDEST STOP JUMPDEST PUSH2 0x9D PUSH2 0x251 JUMP JUMPDEST PUSH1 0x40 MLOAD PUSH2 0xAA SWAP2 SWAP1 PUSH2 0x324 JUMP JUMPDEST PUSH1 0x40 MLOAD DUP1 SWAP2 SUB SWAP1 RETURN JUMPDEST PUSH1 0x0 DUP1 SLOAD SWAP1 PUSH2 0x100 EXP SWAP1 DIV PUSH20 0xFFFFFFFFFFFFFFFFFFFFFFFFFFFFFFFFFFFFFFFF AND PUSH20 0xFFFFFFFFFFFFFFFFFFFFFFFFFFFFFFFFFFFFFFFF AND PUSH4 0x6057361D DUP3 PUSH1 0x40 MLOAD DUP3 PUSH4 0xFFFFFFFF AND PUSH1 0xE0 SHL DUP2 MSTORE PUSH1 0x4 ADD PUSH2 0x10C SWAP2 SWAP1 PUSH2 0x33F JUMP JUMPDEST PUSH1 0x0 PUSH1 0x40 MLOAD DUP1 DUP4 SUB DUP2 PUSH1 0x0 DUP8 DUP1 EXTCODESIZE ISZERO DUP1 ISZERO PUSH2 0x126 JUMPI PUSH1 0x0 DUP1 REVERT JUMPDEST POP GAS CALL ISZERO DUP1 ISZERO PUSH2 0x13A JUMPI RETURNDATASIZE PUSH1 0x0 DUP1 RETURNDATACOPY RETURNDATASIZE PUSH1 0x0 REVERT JUMPDEST POP POP POP POP POP JUMP JUMPDEST PUSH1 0x0 DUP1 PUSH1 0x0 SWAP1 SLOAD SWAP1 PUSH2 0x100 EXP SWAP1 DIV PUSH20 0xFFFFFFFFFFFFFFFFFFFFFFFFFFFFFFFFFFFFFFFF AND PUSH20 0xFFFFFFFFFFFFFFFFFFFFFFFFFFFFFFFFFFFFFFFF AND PUSH4 0x12D45AE PUSH1 0x40 MLOAD DUP2 PUSH4 0xFFFFFFFF AND PUSH1 0xE0 SHL DUP2 MSTORE PUSH1 0x4 ADD PUSH1 0x20 PUSH1 0x40 MLOAD DUP1 DUP4 SUB DUP2 DUP7 DUP1 EXTCODESIZE ISZERO DUP1 ISZERO PUSH2 0x1AA JUMPI PUSH1 0x0 DUP1 REVERT JUMPDEST POP GAS STATICCALL ISZERO DUP1 ISZERO PUSH2 0x1BE JUMPI RETURNDATASIZE PUSH1 0x0 DUP1 RETURNDATACOPY RETURNDATASIZE PUSH1 0x0 REVERT JUMPDEST POP POP POP POP PUSH1 0x40 MLOAD RETURNDATASIZE PUSH1 0x1F NOT PUSH1 0x1F DUP3 ADD AND DUP3 ADD DUP1 PUSH1 0x40 MSTORE POP DUP2 ADD SWAP1 PUSH2 0x1E2 SWAP2 SWAP1 PUSH2 0x2D9 JUMP JUMPDEST SWAP1 POP SWAP1 JUMP JUMPDEST PUSH1 0x40 MLOAD PUSH2 0x1F3 SWAP1 PUSH2 0x275 JUMP JUMPDEST PUSH1 0x40 MLOAD DUP1 SWAP2 SUB SWAP1 PUSH1 0x0 CREATE DUP1 ISZERO DUP1 ISZERO PUSH2 0x20F JUMPI RETURNDATASIZE PUSH1 0x0 DUP1 RETURNDATACOPY RETURNDATASIZE PUSH1 0x0 REVERT JUMPDEST POP PUSH1 0x0 DUP1 PUSH2 0x100 EXP DUP2 SLOAD DUP2 PUSH20 0xFFFFFFFFFFFFFFFFFFFFFFFFFFFFFFFFFFFFFFFF MUL NOT AND SWAP1 DUP4 PUSH20 0xFFFFFFFFFFFFFFFFFFFFFFFFFFFFFFFFFFFFFFFF AND MUL OR SWAP1 SSTORE POP JUMP JUMPDEST PUSH1 0x0 DUP1 SLOAD SWAP1 PUSH2 0x100 EXP SWAP1 DIV PUSH20 0xFFFFFFFFFFFFFFFFFFFFFFFFFFFFFFFFFFFFFFFF AND DUP2 JUMP JUMPDEST PUSH2 0x881 DUP1 PUSH2 0x3D7 DUP4 CODECOPY ADD SWAP1 JUMP JUMPDEST PUSH1 0x0 DUP2 CALLDATALOAD SWAP1 POP PUSH2 0x291 DUP2 PUSH2 0x3BF JUMP JUMPDEST SWAP3 SWAP2 POP POP JUMP JUMPDEST PUSH1 0x0 DUP2 MLOAD SWAP1 POP PUSH2 0x2A6 DUP2 PUSH2 0x3BF JUMP JUMPDEST SWAP3 SWAP2 POP POP JUMP JUMPDEST PUSH1 0x0 PUSH1 0x20 DUP3 DUP5 SUB SLT ISZERO PUSH2 0x2C2 JUMPI PUSH2 0x2C1 PUSH2 0x3BA JUMP JUMPDEST JUMPDEST PUSH1 0x0 PUSH2 0x2D0 DUP5 DUP3 DUP6 ADD PUSH2 0x282 JUMP JUMPDEST SWAP2 POP POP SWAP3 SWAP2 POP POP JUMP JUMPDEST PUSH1 0x0 PUSH1 0x20 DUP3 DUP5 SUB SLT ISZERO PUSH2 0x2EF JUMPI PUSH2 0x2EE PUSH2 0x3BA JUMP JUMPDEST JUMPDEST PUSH1 0x0 PUSH2 0x2FD DUP5 DUP3 DUP6 ADD PUSH2 0x297 JUMP JUMPDEST SWAP2 POP POP SWAP3 SWAP2 POP POP JUMP JUMPDEST PUSH2 0x30F DUP2 PUSH2 0x384 JUMP JUMPDEST DUP3 MSTORE POP POP JUMP JUMPDEST PUSH2 0x31E DUP2 PUSH2 0x37A JUMP JUMPDEST DUP3 MSTORE POP POP JUMP JUMPDEST PUSH1 0x0 PUSH1 0x20 DUP3 ADD SWAP1 POP PUSH2 0x339 PUSH1 0x0 DUP4 ADD DUP5 PUSH2 0x306 JUMP JUMPDEST SWAP3 SWAP2 POP POP JUMP JUMPDEST PUSH1 0x0 PUSH1 0x20 DUP3 ADD SWAP1 POP PUSH2 0x354 PUSH1 0x0 DUP4 ADD DUP5 PUSH2 0x315 JUMP JUMPDEST SWAP3 SWAP2 POP POP JUMP JUMPDEST PUSH1 0x0 PUSH20 0xFFFFFFFFFFFFFFFFFFFFFFFFFFFFFFFFFFFFFFFF DUP3 AND SWAP1 POP SWAP2 SWAP1 POP JUMP JUMPDEST PUSH1 0x0 DUP2 SWAP1 POP SWAP2 SWAP1 POP JUMP JUMPDEST PUSH1 0x0 PUSH2 0x38F DUP3 PUSH2 0x396 JUMP JUMPDEST SWAP1 POP SWAP2 SWAP1 POP JUMP JUMPDEST PUSH1 0x0 PUSH2 0x3A1 DUP3 PUSH2 0x3A8 JUMP JUMPDEST SWAP1 POP SWAP2 SWAP1 POP JUMP JUMPDEST PUSH1 0x0 PUSH2 0x3B3 DUP3 PUSH2 0x35A JUMP JUMPDEST SWAP1 POP SWAP2 SWAP1 POP JUMP JUMPDEST PUSH1 0x0 DUP1 REVERT JUMPDEST PUSH2 0x3C8 DUP2 PUSH2 0x37A JUMP JUMPDEST DUP2 EQ PUSH2 0x3D3 JUMPI PUSH1 0x0 DUP1 REVERT JUMPDEST POP JUMP INVALID PUSH1 0x80 PUSH1 0x40 MSTORE CALLVALUE DUP1 ISZERO PUSH2 0x10 JUMPI PUSH1 0x0 DUP1 REVERT JUMPDEST POP PUSH2 0x861 DUP1 PUSH2 0x20 PUSH1 0x0 CODECOPY PUSH1 0x0 RETURN INVALID PUSH1 0x80 PUSH1 0x40 MSTORE CALLVALUE DUP1 ISZERO PUSH2 0x10 JUMPI PUSH1 0x0 DUP1 REVERT JUMPDEST POP PUSH1 0x4 CALLDATASIZE LT PUSH2 0x62 JUMPI PUSH1 0x0 CALLDATALOAD PUSH1 0xE0 SHR DUP1 PUSH4 0x12D45AE EQ PUSH2 0x67 JUMPI DUP1 PUSH4 0x92A1820 EQ PUSH2 0x85 JUMPI DUP1 PUSH4 0x6057361D EQ PUSH2 0xB6 JUMPI DUP1 PUSH4 0xC7A0D9F6 EQ PUSH2 0xD2 JUMPI DUP1 PUSH4 0xE907247C EQ PUSH2 0xF0 JUMPI DUP1 PUSH4 0xFE5BE356 EQ PUSH2 0x121 JUMPI JUMPDEST PUSH1 0x0 DUP1 REVERT JUMPDEST PUSH2 0x6F PUSH2 0x13D JUMP JUMPDEST PUSH1 0x40 MLOAD PUSH2 0x7C SWAP2 SWAP1 PUSH2 0x61A JUMP JUMPDEST PUSH1 0x40 MLOAD DUP1 SWAP2 SUB SWAP1 RETURN JUMPDEST PUSH2 0x9F PUSH1 0x4 DUP1 CALLDATASIZE SUB DUP2 ADD SWAP1 PUSH2 0x9A SWAP2 SWAP1 PUSH2 0x501 JUMP JUMPDEST PUSH2 0x146 JUMP JUMPDEST PUSH1 0x40 MLOAD PUSH2 0xAD SWAP3 SWAP2 SWAP1 PUSH2 0x635 JUMP JUMPDEST PUSH1 0x40 MLOAD DUP1 SWAP2 SUB SWAP1 RETURN JUMPDEST PUSH2 0xD0 PUSH1 0x4 DUP1 CALLDATASIZE SUB DUP2 ADD SWAP1 PUSH2 0xCB SWAP2 SWAP1 PUSH2 0x501 JUMP JUMPDEST PUSH2 0x202 JUMP JUMPDEST STOP JUMPDEST PUSH2 0xDA PUSH2 0x20C JUMP JUMPDEST PUSH1 0x40 MLOAD PUSH2 0xE7 SWAP2 SWAP1 PUSH2 0x61A JUMP JUMPDEST PUSH1 0x40 MLOAD DUP1 SWAP2 SUB SWAP1 RETURN JUMPDEST PUSH2 0x10A PUSH1 0x4 DUP1 CALLDATASIZE SUB DUP2 ADD SWAP1 PUSH2 0x105 SWAP2 SWAP1 PUSH2 0x4B8 JUMP JUMPDEST PUSH2 0x212 JUMP JUMPDEST PUSH1 0x40 MLOAD PUSH2 0x118 SWAP3 SWAP2 SWAP1 PUSH2 0x635 JUMP JUMPDEST PUSH1 0x40 MLOAD DUP1 SWAP2 SUB SWAP1 RETURN JUMPDEST PUSH2 0x13B PUSH1 0x4 DUP1 CALLDATASIZE SUB DUP2 ADD SWAP1 PUSH2 0x136 SWAP2 SWAP1 PUSH2 0x52E JUMP JUMPDEST PUSH2 0x2D4 JUMP JUMPDEST STOP JUMPDEST PUSH1 0x0 DUP1 SLOAD SWAP1 POP SWAP1 JUMP JUMPDEST PUSH1 0x2 DUP2 DUP2 SLOAD DUP2 LT PUSH2 0x156 JUMPI PUSH1 0x0 DUP1 REVERT JUMPDEST SWAP1 PUSH1 0x0 MSTORE PUSH1 0x20 PUSH1 0x0 KECCAK256 SWAP1 PUSH1 0x2 MUL ADD PUSH1 0x0 SWAP2 POP SWAP1 POP DUP1 PUSH1 0x0 ADD SLOAD SWAP1 DUP1 PUSH1 0x1 ADD DUP1 SLOAD PUSH2 0x17F SWAP1 PUSH2 0x72E JUMP JUMPDEST DUP1 PUSH1 0x1F ADD PUSH1 0x20 DUP1 SWAP2 DIV MUL PUSH1 0x20 ADD PUSH1 0x40 MLOAD SWAP1 DUP2 ADD PUSH1 0x40 MSTORE DUP1 SWAP3 SWAP2 SWAP1 DUP2 DUP2 MSTORE PUSH1 0x20 ADD DUP3 DUP1 SLOAD PUSH2 0x1AB SWAP1 PUSH2 0x72E JUMP JUMPDEST DUP1 ISZERO PUSH2 0x1F8 JUMPI DUP1 PUSH1 0x1F LT PUSH2 0x1CD JUMPI PUSH2 0x100 DUP1 DUP4 SLOAD DIV MUL DUP4 MSTORE SWAP2 PUSH1 0x20 ADD SWAP2 PUSH2 0x1F8 JUMP JUMPDEST DUP3 ADD SWAP2 SWAP1 PUSH1 0x0 MSTORE PUSH1 0x20 PUSH1 0x0 KECCAK256 SWAP1 JUMPDEST DUP2 SLOAD DUP2 MSTORE SWAP1 PUSH1 0x1 ADD SWAP1 PUSH1 0x20 ADD DUP1 DUP4 GT PUSH2 0x1DB JUMPI DUP3 SWAP1 SUB PUSH1 0x1F AND DUP3 ADD SWAP2 JUMPDEST POP POP POP POP POP SWAP1 POP DUP3 JUMP JUMPDEST DUP1 PUSH1 0x0 DUP2 SWAP1 SSTORE POP POP JUMP JUMPDEST PUSH1 0x0 SLOAD DUP2 JUMP JUMPDEST PUSH1 0x1 DUP2 DUP1 MLOAD PUSH1 0x20 DUP2 ADD DUP3 ADD DUP1 MLOAD DUP5 DUP3 MSTORE PUSH1 0x20 DUP4 ADD PUSH1 0x20 DUP6 ADD KECCAK256 DUP2 DUP4 MSTORE DUP1 SWAP6 POP POP POP POP POP POP PUSH1 0x0 SWAP2 POP SWAP1 POP DUP1 PUSH1 0x0 ADD SLOAD SWAP1 DUP1 PUSH1 0x1 ADD DUP1 SLOAD PUSH2 0x251 SWAP1 PUSH2 0x72E JUMP JUMPDEST DUP1 PUSH1 0x1F ADD PUSH1 0x20 DUP1 SWAP2 DIV MUL PUSH1 0x20 ADD PUSH1 0x40 MLOAD SWAP1 DUP2 ADD PUSH1 0x40 MSTORE DUP1 SWAP3 SWAP2 SWAP1 DUP2 DUP2 MSTORE PUSH1 0x20 ADD DUP3 DUP1 SLOAD PUSH2 0x27D SWAP1 PUSH2 0x72E JUMP JUMPDEST DUP1 ISZERO PUSH2 0x2CA JUMPI DUP1 PUSH1 0x1F LT PUSH2 0x29F JUMPI PUSH2 0x100 DUP1 DUP4 SLOAD DIV MUL DUP4 MSTORE SWAP2 PUSH1 0x20 ADD SWAP2 PUSH2 0x2CA JUMP JUMPDEST DUP3 ADD SWAP2 SWAP1 PUSH1 0x0 MSTORE PUSH1 0x20 PUSH1 0x0 KECCAK256 SWAP1 JUMPDEST DUP2 SLOAD DUP2 MSTORE SWAP1 PUSH1 0x1 ADD SWAP1 PUSH1 0x20 ADD DUP1 DUP4 GT PUSH2 0x2AD JUMPI DUP3 SWAP1 SUB PUSH1 0x1F AND DUP3 ADD SWAP2 JUMPDEST POP POP POP POP POP SWAP1 POP DUP3 JUMP JUMPDEST PUSH1 0x0 PUSH1 0x40 MLOAD DUP1 PUSH1 0x40 ADD PUSH1 0x40 MSTORE DUP1 DUP5 DUP2 MSTORE PUSH1 0x20 ADD DUP4 DUP2 MSTORE POP SWAP1 POP PUSH1 0x2 DUP2 SWAP1 DUP1 PUSH1 0x1 DUP2 SLOAD ADD DUP1 DUP3 SSTORE DUP1 SWAP2 POP POP PUSH1 0x1 SWAP1 SUB SWAP1 PUSH1 0x0 MSTORE PUSH1 0x20 PUSH1 0x0 KECCAK256 SWAP1 PUSH1 0x2 MUL ADD PUSH1 0x0 SWAP1 SWAP2 SWAP1 SWAP2 SWAP1 SWAP2 POP PUSH1 0x0 DUP3 ADD MLOAD DUP2 PUSH1 0x0 ADD SSTORE PUSH1 0x20 DUP3 ADD MLOAD DUP2 PUSH1 0x1 ADD SWAP1 DUP1 MLOAD SWAP1 PUSH1 0x20 ADD SWAP1 PUSH2 0x33F SWAP3 SWAP2 SWAP1 PUSH2 0x390 JUMP JUMPDEST POP POP POP DUP1 PUSH1 0x1 DUP4 PUSH1 0x40 MLOAD PUSH2 0x353 SWAP2 SWAP1 PUSH2 0x603 JUMP JUMPDEST SWAP1 DUP2 MSTORE PUSH1 0x20 ADD PUSH1 0x40 MLOAD DUP1 SWAP2 SUB SWAP1 KECCAK256 PUSH1 0x0 DUP3 ADD MLOAD DUP2 PUSH1 0x0 ADD SSTORE PUSH1 0x20 DUP3 ADD MLOAD DUP2 PUSH1 0x1 ADD SWAP1 DUP1 MLOAD SWAP1 PUSH1 0x20 ADD SWAP1 PUSH2 0x387 SWAP3 SWAP2 SWAP1 PUSH2 0x390 JUMP JUMPDEST POP SWAP1 POP POP POP POP POP JUMP JUMPDEST DUP3 DUP1 SLOAD PUSH2 0x39C SWAP1 PUSH2 0x72E JUMP JUMPDEST SWAP1 PUSH1 0x0 MSTORE PUSH1 0x20 PUSH1 0x0 KECCAK256 SWAP1 PUSH1 0x1F ADD PUSH1 0x20 SWAP1 DIV DUP2 ADD SWAP3 DUP3 PUSH2 0x3BE JUMPI PUSH1 0x0 DUP6 SSTORE PUSH2 0x405 JUMP JUMPDEST DUP3 PUSH1 0x1F LT PUSH2 0x3D7 JUMPI DUP1 MLOAD PUSH1 0xFF NOT AND DUP4 DUP1 ADD OR DUP6 SSTORE PUSH2 0x405 JUMP JUMPDEST DUP3 DUP1 ADD PUSH1 0x1 ADD DUP6 SSTORE DUP3 ISZERO PUSH2 0x405 JUMPI SWAP2 DUP3 ADD JUMPDEST DUP3 DUP2 GT ISZERO PUSH2 0x404 JUMPI DUP3 MLOAD DUP3 SSTORE SWAP2 PUSH1 0x20 ADD SWAP2 SWAP1 PUSH1 0x1 ADD SWAP1 PUSH2 0x3E9 JUMP JUMPDEST JUMPDEST POP SWAP1 POP PUSH2 0x412 SWAP2 SWAP1 PUSH2 0x416 JUMP JUMPDEST POP SWAP1 JUMP JUMPDEST JUMPDEST DUP1 DUP3 GT ISZERO PUSH2 0x42F JUMPI PUSH1 0x0 DUP2 PUSH1 0x0 SWAP1 SSTORE POP PUSH1 0x1 ADD PUSH2 0x417 JUMP JUMPDEST POP SWAP1 JUMP JUMPDEST PUSH1 0x0 PUSH2 0x446 PUSH2 0x441 DUP5 PUSH2 0x68A JUMP JUMPDEST PUSH2 0x665 JUMP JUMPDEST SWAP1 POP DUP3 DUP2 MSTORE PUSH1 0x20 DUP2 ADD DUP5 DUP5 DUP5 ADD GT ISZERO PUSH2 0x462 JUMPI PUSH2 0x461 PUSH2 0x7F4 JUMP JUMPDEST JUMPDEST PUSH2 0x46D DUP5 DUP3 DUP6 PUSH2 0x6EC JUMP JUMPDEST POP SWAP4 SWAP3 POP POP POP JUMP JUMPDEST PUSH1 0x0 DUP3 PUSH1 0x1F DUP4 ADD SLT PUSH2 0x48A JUMPI PUSH2 0x489 PUSH2 0x7EF JUMP JUMPDEST JUMPDEST DUP2 CALLDATALOAD PUSH2 0x49A DUP5 DUP3 PUSH1 0x20 DUP7 ADD PUSH2 0x433 JUMP JUMPDEST SWAP2 POP POP SWAP3 SWAP2 POP POP JUMP JUMPDEST PUSH1 0x0 DUP2 CALLDATALOAD SWAP1 POP PUSH2 0x4B2 DUP2 PUSH2 0x814 JUMP JUMPDEST SWAP3 SWAP2 POP POP JUMP JUMPDEST PUSH1 0x0 PUSH1 0x20 DUP3 DUP5 SUB SLT ISZERO PUSH2 0x4CE JUMPI PUSH2 0x4CD PUSH2 0x7FE JUMP JUMPDEST JUMPDEST PUSH1 0x0 DUP3 ADD CALLDATALOAD PUSH8 0xFFFFFFFFFFFFFFFF DUP2 GT ISZERO PUSH2 0x4EC JUMPI PUSH2 0x4EB PUSH2 0x7F9 JUMP JUMPDEST JUMPDEST PUSH2 0x4F8 DUP5 DUP3 DUP6 ADD PUSH2 0x475 JUMP JUMPDEST SWAP2 POP POP SWAP3 SWAP2 POP POP JUMP JUMPDEST PUSH1 0x0 PUSH1 0x20 DUP3 DUP5 SUB SLT ISZERO PUSH2 0x517 JUMPI PUSH2 0x516 PUSH2 0x7FE JUMP JUMPDEST JUMPDEST PUSH1 0x0 PUSH2 0x525 DUP5 DUP3 DUP6 ADD PUSH2 0x4A3 JUMP JUMPDEST SWAP2 POP POP SWAP3 SWAP2 POP POP JUMP JUMPDEST PUSH1 0x0 DUP1 PUSH1 0x40 DUP4 DUP6 SUB SLT ISZERO PUSH2 0x545 JUMPI PUSH2 0x544 PUSH2 0x7FE JUMP JUMPDEST JUMPDEST PUSH1 0x0 PUSH2 0x553 DUP6 DUP3 DUP7 ADD PUSH2 0x4A3 JUMP JUMPDEST SWAP3 POP POP PUSH1 0x20 DUP4 ADD CALLDATALOAD PUSH8 0xFFFFFFFFFFFFFFFF DUP2 GT ISZERO PUSH2 0x574 JUMPI PUSH2 0x573 PUSH2 0x7F9 JUMP JUMPDEST JUMPDEST PUSH2 0x580 DUP6 DUP3 DUP7 ADD PUSH2 0x475 JUMP JUMPDEST SWAP2 POP POP SWAP3 POP SWAP3 SWAP1 POP JUMP JUMPDEST PUSH1 0x0 PUSH2 0x595 DUP3 PUSH2 0x6BB JUMP JUMPDEST PUSH2 0x59F DUP2 DUP6 PUSH2 0x6C6 JUMP JUMPDEST SWAP4 POP PUSH2 0x5AF DUP2 DUP6 PUSH1 0x20 DUP7 ADD PUSH2 0x6FB JUMP JUMPDEST PUSH2 0x5B8 DUP2 PUSH2 0x803 JUMP JUMPDEST DUP5 ADD SWAP2 POP POP SWAP3 SWAP2 POP POP JUMP JUMPDEST PUSH1 0x0 PUSH2 0x5CE DUP3 PUSH2 0x6BB JUMP JUMPDEST PUSH2 0x5D8 DUP2 DUP6 PUSH2 0x6D7 JUMP JUMPDEST SWAP4 POP PUSH2 0x5E8 DUP2 DUP6 PUSH1 0x20 DUP7 ADD PUSH2 0x6FB JUMP JUMPDEST DUP1 DUP5 ADD SWAP2 POP POP SWAP3 SWAP2 POP POP JUMP JUMPDEST PUSH2 0x5FD DUP2 PUSH2 0x6E2 JUMP JUMPDEST DUP3 MSTORE POP POP JUMP JUMPDEST PUSH1 0x0 PUSH2 0x60F DUP3 DUP5 PUSH2 0x5C3 JUMP JUMPDEST SWAP2 POP DUP2 SWAP1 POP SWAP3 SWAP2 POP POP JUMP JUMPDEST PUSH1 0x0 PUSH1 0x20 DUP3 ADD SWAP1 POP PUSH2 0x62F PUSH1 0x0 DUP4 ADD DUP5 PUSH2 0x5F4 JUMP JUMPDEST SWAP3 SWAP2 POP POP JUMP JUMPDEST PUSH1 0x0 PUSH1 0x40 DUP3 ADD SWAP1 POP PUSH2 0x64A PUSH1 0x0 DUP4 ADD DUP6 PUSH2 0x5F4 JUMP JUMPDEST DUP2 DUP2 SUB PUSH1 0x20 DUP4 ADD MSTORE PUSH2 0x65C DUP2 DUP5 PUSH2 0x58A JUMP JUMPDEST SWAP1 POP SWAP4 SWAP3 POP POP POP JUMP JUMPDEST PUSH1 0x0 PUSH2 0x66F PUSH2 0x680 JUMP JUMPDEST SWAP1 POP PUSH2 0x67B DUP3 DUP3 PUSH2 0x760 JUMP JUMPDEST SWAP2 SWAP1 POP JUMP JUMPDEST PUSH1 0x0 PUSH1 0x40 MLOAD SWAP1 POP SWAP1 JUMP JUMPDEST PUSH1 0x0 PUSH8 0xFFFFFFFFFFFFFFFF DUP3 GT ISZERO PUSH2 0x6A5 JUMPI PUSH2 0x6A4 PUSH2 0x7C0 JUMP JUMPDEST JUMPDEST PUSH2 0x6AE DUP3 PUSH2 0x803 JUMP JUMPDEST SWAP1 POP PUSH1 0x20 DUP2 ADD SWAP1 POP SWAP2 SWAP1 POP JUMP JUMPDEST PUSH1 0x0 DUP2 MLOAD SWAP1 POP SWAP2 SWAP1 POP JUMP JUMPDEST PUSH1 0x0 DUP3 DUP3 MSTORE PUSH1 0x20 DUP3 ADD SWAP1 POP SWAP3 SWAP2 POP POP JUMP JUMPDEST PUSH1 0x0 DUP2 SWAP1 POP SWAP3 SWAP2 POP POP JUMP JUMPDEST PUSH1 0x0 DUP2 SWAP1 POP SWAP2 SWAP1 POP JUMP JUMPDEST DUP3 DUP2 DUP4 CALLDATACOPY PUSH1 0x0 DUP4 DUP4 ADD MSTORE POP POP POP JUMP JUMPDEST PUSH1 0x0 JUMPDEST DUP4 DUP2 LT ISZERO PUSH2 0x719 JUMPI DUP1 DUP3 ADD MLOAD DUP2 DUP5 ADD MSTORE PUSH1 0x20 DUP2 ADD SWAP1 POP PUSH2 0x6FE JUMP JUMPDEST DUP4 DUP2 GT ISZERO PUSH2 0x728 JUMPI PUSH1 0x0 DUP5 DUP5 ADD MSTORE JUMPDEST POP POP POP POP JUMP JUMPDEST PUSH1 0x0 PUSH1 0x2 DUP3 DIV SWAP1 POP PUSH1 0x1 DUP3 AND DUP1 PUSH2 0x746 JUMPI PUSH1 0x7F DUP3 AND SWAP2 POP JUMPDEST PUSH1 0x20 DUP3 LT DUP2 EQ ISZERO PUSH2 0x75A JUMPI PUSH2 0x759 PUSH2 0x791 JUMP JUMPDEST JUMPDEST POP SWAP2 SWAP1 POP JUMP JUMPDEST PUSH2 0x769 DUP3 PUSH2 0x803 JUMP JUMPDEST DUP2 ADD DUP2 DUP2 LT PUSH8 0xFFFFFFFFFFFFFFFF DUP3 GT OR ISZERO PUSH2 0x788 JUMPI PUSH2 0x787 PUSH2 0x7C0 JUMP JUMPDEST JUMPDEST DUP1 PUSH1 0x40 MSTORE POP POP POP JUMP JUMPDEST PUSH32 0x4E487B7100000000000000000000000000000000000000000000000000000000 PUSH1 0x0 MSTORE PUSH1 0x22 PUSH1 0x4 MSTORE PUSH1 0x24 PUSH1 0x0 REVERT JUMPDEST PUSH32 0x4E487B7100000000000000000000000000000000000000000000000000000000 PUSH1 0x0 MSTORE PUSH1 0x41 PUSH1 0x4 MSTORE PUSH1 0x24 PUSH1 0x0 REVERT JUMPDEST PUSH1 0x0 DUP1 REVERT JUMPDEST PUSH1 0x0 DUP1 REVERT JUMPDEST PUSH1 0x0 DUP1 REVERT JUMPDEST PUSH1 0x0 DUP1 REVERT JUMPDEST PUSH1 0x0 PUSH1 0x1F NOT PUSH1 0x1F DUP4 ADD AND SWAP1 POP SWAP2 SWAP1 POP JUMP JUMPDEST PUSH2 0x81D DUP2 PUSH2 0x6E2 JUMP JUMPDEST DUP2 EQ PUSH2 0x828 JUMPI PUSH1 0x0 DUP1 REVERT JUMPDEST POP JUMP INVALID LOG2 PUSH5 0x6970667358 0x22 SLT KECCAK256 GAS 0xC6 0x4A 0xAF ADD 0xA5 0xD9 0xB6 CALLDATALOAD PUSH22 0xF78F1B4F182464AA279116AF7CEF3307C0E7F391FF50 PUSH5 0x736F6C6343 STOP ADDMOD SMOD STOP CALLER LOG2 PUSH5 0x6970667358 0x22 SLT KECCAK256 0x4C GASLIMIT 0xC PUSH1 0x95 SWAP15 KECCAK256 0x2D 0xE DUP2 DUP12 DELEGATECALL 0xB7 ISZERO 0xAE AND 0x4A 0xA7 SWAP5 STOP KECCAK256 0xA9 CHAINID DUP4 AND BASEFEE LOG3 SDIV 0xDF 0xED 0x4D BASEFEE PUSH5 0x736F6C6343 STOP ADDMOD SMOD STOP CALLER PUSH1 0x80 PUSH1 0x40 MSTORE CALLVALUE DUP1 ISZERO PUSH2 0x10 JUMPI PUSH1 0x0 DUP1 REVERT JUMPDEST POP PUSH2 0x861 DUP1 PUSH2 0x20 PUSH1 0x0 CODECOPY PUSH1 0x0 RETURN INVALID PUSH1 0x80 PUSH1 0x40 MSTORE CALLVALUE DUP1 ISZERO PUSH2 0x10 JUMPI PUSH1 0x0 DUP1 REVERT JUMPDEST POP PUSH1 0x4 CALLDATASIZE LT PUSH2 0x62 JUMPI PUSH1 0x0 CALLDATALOAD PUSH1 0xE0 SHR DUP1 PUSH4 0x12D45AE EQ PUSH2 0x67 JUMPI DUP1 PUSH4 0x92A1820 EQ PUSH2 0x85 JUMPI DUP1 PUSH4 0x6057361D EQ PUSH2 0xB6 JUMPI DUP1 PUSH4 0xC7A0D9F6 EQ PUSH2 0xD2 JUMPI DUP1 PUSH4 0xE907247C EQ PUSH2 0xF0 JUMPI DUP1 PUSH4 0xFE5BE356 EQ PUSH2 0x121 JUMPI JUMPDEST PUSH1 0x0 DUP1 REVERT JUMPDEST PUSH2 0x6F PUSH2 0x13D JUMP JUMPDEST PUSH1 0x40 MLOAD PUSH2 0x7C SWAP2 SWAP1 PUSH2 0x61A JUMP JUMPDEST PUSH1 0x40 MLOAD DUP1 SWAP2 SUB SWAP1 RETURN JUMPDEST PUSH2 0x9F PUSH1 0x4 DUP1 CALLDATASIZE SUB DUP2 ADD SWAP1 PUSH2 0x9A SWAP2 SWAP1 PUSH2 0x501 JUMP JUMPDEST PUSH2 0x146 JUMP JUMPDEST PUSH1 0x40 MLOAD PUSH2 0xAD SWAP3 SWAP2 SWAP1 PUSH2 0x635 JUMP JUMPDEST PUSH1 0x40 MLOAD DUP1 SWAP2 SUB SWAP1 RETURN JUMPDEST PUSH2 0xD0 PUSH1 0x4 DUP1 CALLDATASIZE SUB DUP2 ADD SWAP1 PUSH2 0xCB SWAP2 SWAP1 PUSH2 0x501 JUMP JUMPDEST PUSH2 0x202 JUMP JUMPDEST STOP JUMPDEST PUSH2 0xDA PUSH2 0x20C JUMP JUMPDEST PUSH1 0x40 MLOAD PUSH2 0xE7 SWAP2 SWAP1 PUSH2 0x61A JUMP JUMPDEST PUSH1 0x40 MLOAD DUP1 SWAP2 SUB SWAP1 RETURN JUMPDEST PUSH2 0x10A PUSH1 0x4 DUP1 CALLDATASIZE SUB DUP2 ADD SWAP1 PUSH2 0x105 SWAP2 SWAP1 PUSH2 0x4B8 JUMP JUMPDEST PUSH2 0x212 JUMP JUMPDEST PUSH1 0x40 MLOAD PUSH2 0x118 SWAP3 SWAP2 SWAP1 PUSH2 0x635 JUMP JUMPDEST PUSH1 0x40 MLOAD DUP1 SWAP2 SUB SWAP1 RETURN JUMPDEST PUSH2 0x13B PUSH1 0x4 DUP1 CALLDATASIZE SUB DUP2 ADD SWAP1 PUSH2 0x136 SWAP2 SWAP1 PUSH2 0x52E JUMP JUMPDEST PUSH2 0x2D4 JUMP JUMPDEST STOP JUMPDEST PUSH1 0x0 DUP1 SLOAD SWAP1 POP SWAP1 JUMP JUMPDEST PUSH1 0x2 DUP2 DUP2 SLOAD DUP2 LT PUSH2 0x156 JUMPI PUSH1 0x0 DUP1 REVERT JUMPDEST SWAP1 PUSH1 0x0 MSTORE PUSH1 0x20 PUSH1 0x0 KECCAK256 SWAP1 PUSH1 0x2 MUL ADD PUSH1 0x0 SWAP2 POP SWAP1 POP DUP1 PUSH1 0x0 ADD SLOAD SWAP1 DUP1 PUSH1 0x1 ADD DUP1 SLOAD PUSH2 0x17F SWAP1 PUSH2 0x72E JUMP JUMPDEST DUP1 PUSH1 0x1F ADD PUSH1 0x20 DUP1 SWAP2 DIV MUL PUSH1 0x20 ADD PUSH1 0x40 MLOAD SWAP1 DUP2 ADD PUSH1 0x40 MSTORE DUP1 SWAP3 SWAP2 SWAP1 DUP2 DUP2 MSTORE PUSH1 0x20 ADD DUP3 DUP1 SLOAD PUSH2 0x1AB SWAP1 PUSH2 0x72E JUMP JUMPDEST DUP1 ISZERO PUSH2 0x1F8 JUMPI DUP1 PUSH1 0x1F LT PUSH2 0x1CD JUMPI PUSH2 0x100 DUP1 DUP4 SLOAD DIV MUL DUP4 MSTORE SWAP2 PUSH1 0x20 ADD SWAP2 PUSH2 0x1F8 JUMP JUMPDEST DUP3 ADD SWAP2 SWAP1 PUSH1 0x0 MSTORE PUSH1 0x20 PUSH1 0x0 KECCAK256 SWAP1 JUMPDEST DUP2 SLOAD DUP2 MSTORE SWAP1 PUSH1 0x1 ADD SWAP1 PUSH1 0x20 ADD DUP1 DUP4 GT PUSH2 0x1DB JUMPI DUP3 SWAP1 SUB PUSH1 0x1F AND DUP3 ADD SWAP2 JUMPDEST POP POP POP POP POP SWAP1 POP DUP3 JUMP JUMPDEST DUP1 PUSH1 0x0 DUP2 SWAP1 SSTORE POP POP JUMP JUMPDEST PUSH1 0x0 SLOAD DUP2 JUMP JUMPDEST PUSH1 0x1 DUP2 DUP1 MLOAD PUSH1 0x20 DUP2 ADD DUP3 ADD DUP1 MLOAD DUP5 DUP3 MSTORE PUSH1 0x20 DUP4 ADD PUSH1 0x20 DUP6 ADD KECCAK256 DUP2 DUP4 MSTORE DUP1 SWAP6 POP POP POP POP POP POP PUSH1 0x0 SWAP2 POP SWAP1 POP DUP1 PUSH1 0x0 ADD SLOAD SWAP1 DUP1 PUSH1 0x1 ADD DUP1 SLOAD PUSH2 0x251 SWAP1 PUSH2 0x72E JUMP JUMPDEST DUP1 PUSH1 0x1F ADD PUSH1 0x20 DUP1 SWAP2 DIV MUL PUSH1 0x20 ADD PUSH1 0x40 MLOAD SWAP1 DUP2 ADD PUSH1 0x40 MSTORE DUP1 SWAP3 SWAP2 SWAP1 DUP2 DUP2 MSTORE PUSH1 0x20 ADD DUP3 DUP1 SLOAD PUSH2 0x27D SWAP1 PUSH2 0x72E JUMP JUMPDEST DUP1 ISZERO PUSH2 0x2CA JUMPI DUP1 PUSH1 0x1F LT PUSH2 0x29F JUMPI PUSH2 0x100 DUP1 DUP4 SLOAD DIV MUL DUP4 MSTORE SWAP2 PUSH1 0x20 ADD SWAP2 PUSH2 0x2CA JUMP JUMPDEST DUP3 ADD SWAP2 SWAP1 PUSH1 0x0 MSTORE PUSH1 0x20 PUSH1 0x0 KECCAK256 SWAP1 JUMPDEST DUP2 SLOAD DUP2 MSTORE SWAP1 PUSH1 0x1 ADD SWAP1 PUSH1 0x20 ADD DUP1 DUP4 GT PUSH2 0x2AD JUMPI DUP3 SWAP1 SUB PUSH1 0x1F AND DUP3 ADD SWAP2 JUMPDEST POP POP POP POP POP SWAP1 POP DUP3 JUMP JUMPDEST PUSH1 0x0 PUSH1 0x40 MLOAD DUP1 PUSH1 0x40 ADD PUSH1 0x40 MSTORE DUP1 DUP5 DUP2 MSTORE PUSH1 0x20 ADD DUP4 DUP2 MSTORE POP SWAP1 POP PUSH1 0x2 DUP2 SWAP1 DUP1 PUSH1 0x1 DUP2 SLOAD ADD DUP1 DUP3 SSTORE DUP1 SWAP2 POP POP PUSH1 0x1 SWAP1 SUB SWAP1 PUSH1 0x0 MSTORE PUSH1 0x20 PUSH1 0x0 KECCAK256 SWAP1 PUSH1 0x2 MUL ADD PUSH1 0x0 SWAP1 SWAP2 SWAP1 SWAP2 SWAP1 SWAP2 POP PUSH1 0x0 DUP3 ADD MLOAD DUP2 PUSH1 0x0 ADD SSTORE PUSH1 0x20 DUP3 ADD MLOAD DUP2 PUSH1 0x1 ADD SWAP1 DUP1 MLOAD SWAP1 PUSH1 0x20 ADD SWAP1 PUSH2 0x33F SWAP3 SWAP2 SWAP1 PUSH2 0x390 JUMP JUMPDEST POP POP POP DUP1 PUSH1 0x1 DUP4 PUSH1 0x40 MLOAD PUSH2 0x353 SWAP2 SWAP1 PUSH2 0x603 JUMP JUMPDEST SWAP1 DUP2 MSTORE PUSH1 0x20 ADD PUSH1 0x40 MLOAD DUP1 SWAP2 SUB SWAP1 KECCAK256 PUSH1 0x0 DUP3 ADD MLOAD DUP2 PUSH1 0x0 ADD SSTORE PUSH1 0x20 DUP3 ADD MLOAD DUP2 PUSH1 0x1 ADD SWAP1 DUP1 MLOAD SWAP1 PUSH1 0x20 ADD SWAP1 PUSH2 0x387 SWAP3 SWAP2 SWAP1 PUSH2 0x390 JUMP JUMPDEST POP SWAP1 POP POP POP POP POP JUMP JUMPDEST DUP3 DUP1 SLOAD PUSH2 0x39C SWAP1 PUSH2 0x72E JUMP JUMPDEST SWAP1 PUSH1 0x0 MSTORE PUSH1 0x20 PUSH1 0x0 KECCAK256 SWAP1 PUSH1 0x1F ADD PUSH1 0x20 SWAP1 DIV DUP2 ADD SWAP3 DUP3 PUSH2 0x3BE JUMPI PUSH1 0x0 DUP6 SSTORE PUSH2 0x405 JUMP JUMPDEST DUP3 PUSH1 0x1F LT PUSH2 0x3D7 JUMPI DUP1 MLOAD PUSH1 0xFF NOT AND DUP4 DUP1 ADD OR DUP6 SSTORE PUSH2 0x405 JUMP JUMPDEST DUP3 DUP1 ADD PUSH1 0x1 ADD DUP6 SSTORE DUP3 ISZERO PUSH2 0x405 JUMPI SWAP2 DUP3 ADD JUMPDEST DUP3 DUP2 GT ISZERO PUSH2 0x404 JUMPI DUP3 MLOAD DUP3 SSTORE SWAP2 PUSH1 0x20 ADD SWAP2 SWAP1 PUSH1 0x1 ADD SWAP1 PUSH2 0x3E9 JUMP JUMPDEST JUMPDEST POP SWAP1 POP PUSH2 0x412 SWAP2 SWAP1 PUSH2 0x416 JUMP JUMPDEST POP SWAP1 JUMP JUMPDEST JUMPDEST DUP1 DUP3 GT ISZERO PUSH2 0x42F JUMPI PUSH1 0x0 DUP2 PUSH1 0x0 SWAP1 SSTORE POP PUSH1 0x1 ADD PUSH2 0x417 JUMP JUMPDEST POP SWAP1 JUMP JUMPDEST PUSH1 0x0 PUSH2 0x446 PUSH2 0x441 DUP5 PUSH2 0x68A JUMP JUMPDEST PUSH2 0x665 JUMP JUMPDEST SWAP1 POP DUP3 DUP2 MSTORE PUSH1 0x20 DUP2 ADD DUP5 DUP5 DUP5 ADD GT ISZERO PUSH2 0x462 JUMPI PUSH2 0x461 PUSH2 0x7F4 JUMP JUMPDEST JUMPDEST PUSH2 0x46D DUP5 DUP3 DUP6 PUSH2 0x6EC JUMP JUMPDEST POP SWAP4 SWAP3 POP POP POP JUMP JUMPDEST PUSH1 0x0 DUP3 PUSH1 0x1F DUP4 ADD SLT PUSH2 0x48A JUMPI PUSH2 0x489 PUSH2 0x7EF JUMP JUMPDEST JUMPDEST DUP2 CALLDATALOAD PUSH2 0x49A DUP5 DUP3 PUSH1 0x20 DUP7 ADD PUSH2 0x433 JUMP JUMPDEST SWAP2 POP POP SWAP3 SWAP2 POP POP JUMP JUMPDEST PUSH1 0x0 DUP2 CALLDATALOAD SWAP1 POP PUSH2 0x4B2 DUP2 PUSH2 0x814 JUMP JUMPDEST SWAP3 SWAP2 POP POP JUMP JUMPDEST PUSH1 0x0 PUSH1 0x20 DUP3 DUP5 SUB SLT ISZERO PUSH2 0x4CE JUMPI PUSH2 0x4CD PUSH2 0x7FE JUMP JUMPDEST JUMPDEST PUSH1 0x0 DUP3 ADD CALLDATALOAD PUSH8 0xFFFFFFFFFFFFFFFF DUP2 GT ISZERO PUSH2 0x4EC JUMPI PUSH2 0x4EB PUSH2 0x7F9 JUMP JUMPDEST JUMPDEST PUSH2 0x4F8 DUP5 DUP3 DUP6 ADD PUSH2 0x475 JUMP JUMPDEST SWAP2 POP POP SWAP3 SWAP2 POP POP JUMP JUMPDEST PUSH1 0x0 PUSH1 0x20 DUP3 DUP5 SUB SLT ISZERO PUSH2 0x517 JUMPI PUSH2 0x516 PUSH2 0x7FE JUMP JUMPDEST JUMPDEST PUSH1 0x0 PUSH2 0x525 DUP5 DUP3 DUP6 ADD PUSH2 0x4A3 JUMP JUMPDEST SWAP2 POP POP SWAP3 SWAP2 POP POP JUMP JUMPDEST PUSH1 0x0 DUP1 PUSH1 0x40 DUP4 DUP6 SUB SLT ISZERO PUSH2 0x545 JUMPI PUSH2 0x544 PUSH2 0x7FE JUMP JUMPDEST JUMPDEST PUSH1 0x0 PUSH2 0x553 DUP6 DUP3 DUP7 ADD PUSH2 0x4A3 JUMP JUMPDEST SWAP3 POP POP PUSH1 0x20 DUP4 ADD CALLDATALOAD PUSH8 0xFFFFFFFFFFFFFFFF DUP2 GT ISZERO PUSH2 0x574 JUMPI PUSH2 0x573 PUSH2 0x7F9 JUMP JUMPDEST JUMPDEST PUSH2 0x580 DUP6 DUP3 DUP7 ADD PUSH2 0x475 JUMP JUMPDEST SWAP2 POP POP SWAP3 POP SWAP3 SWAP1 POP JUMP JUMPDEST PUSH1 0x0 PUSH2 0x595 DUP3 PUSH2 0x6BB JUMP JUMPDEST PUSH2 0x59F DUP2 DUP6 PUSH2 0x6C6 JUMP JUMPDEST SWAP4 POP PUSH2 0x5AF DUP2 DUP6 PUSH1 0x20 DUP7 ADD PUSH2 0x6FB JUMP JUMPDEST PUSH2 0x5B8 DUP2 PUSH2 0x803 JUMP JUMPDEST DUP5 ADD SWAP2 POP POP SWAP3 SWAP2 POP POP JUMP JUMPDEST PUSH1 0x0 PUSH2 0x5CE DUP3 PUSH2 0x6BB JUMP JUMPDEST PUSH2 0x5D8 DUP2 DUP6 PUSH2 0x6D7 JUMP JUMPDEST SWAP4 POP PUSH2 0x5E8 DUP2 DUP6 PUSH1 0x20 DUP7 ADD PUSH2 0x6FB JUMP JUMPDEST DUP1 DUP5 ADD SWAP2 POP POP SWAP3 SWAP2 POP POP JUMP JUMPDEST PUSH2 0x5FD DUP2 PUSH2 0x6E2 JUMP JUMPDEST DUP3 MSTORE POP POP JUMP JUMPDEST PUSH1 0x0 PUSH2 0x60F DUP3 DUP5 PUSH2 0x5C3 JUMP JUMPDEST SWAP2 POP DUP2 SWAP1 POP SWAP3 SWAP2 POP POP JUMP JUMPDEST PUSH1 0x0 PUSH1 0x20 DUP3 ADD SWAP1 POP PUSH2 0x62F PUSH1 0x0 DUP4 ADD DUP5 PUSH2 0x5F4 JUMP JUMPDEST SWAP3 SWAP2 POP POP JUMP JUMPDEST PUSH1 0x0 PUSH1 0x40 DUP3 ADD SWAP1 POP PUSH2 0x64A PUSH1 0x0 DUP4 ADD DUP6 PUSH2 0x5F4 JUMP JUMPDEST DUP2 DUP2 SUB PUSH1 0x20 DUP4 ADD MSTORE PUSH2 0x65C DUP2 DUP5 PUSH2 0x58A JUMP JUMPDEST SWAP1 POP SWAP4 SWAP3 POP POP POP JUMP JUMPDEST PUSH1 0x0 PUSH2 0x66F PUSH2 0x680 JUMP JUMPDEST SWAP1 POP PUSH2 0x67B DUP3 DUP3 PUSH2 0x760 JUMP JUMPDEST SWAP2 SWAP1 POP JUMP JUMPDEST PUSH1 0x0 PUSH1 0x40 MLOAD SWAP1 POP SWAP1 JUMP JUMPDEST PUSH1 0x0 PUSH8 0xFFFFFFFFFFFFFFFF DUP3 GT ISZERO PUSH2 0x6A5 JUMPI PUSH2 0x6A4 PUSH2 0x7C0 JUMP JUMPDEST JUMPDEST PUSH2 0x6AE DUP3 PUSH2 0x803 JUMP JUMPDEST SWAP1 POP PUSH1 0x20 DUP2 ADD SWAP1 POP SWAP2 SWAP1 POP JUMP JUMPDEST PUSH1 0x0 DUP2 MLOAD SWAP1 POP SWAP2 SWAP1 POP JUMP JUMPDEST PUSH1 0x0 DUP3 DUP3 MSTORE PUSH1 0x20 DUP3 ADD SWAP1 POP SWAP3 SWAP2 POP POP JUMP JUMPDEST PUSH1 0x0 DUP2 SWAP1 POP SWAP3 SWAP2 POP POP JUMP JUMPDEST PUSH1 0x0 DUP2 SWAP1 POP SWAP2 SWAP1 POP JUMP JUMPDEST DUP3 DUP2 DUP4 CALLDATACOPY PUSH1 0x0 DUP4 DUP4 ADD MSTORE POP POP POP JUMP JUMPDEST PUSH1 0x0 JUMPDEST DUP4 DUP2 LT ISZERO PUSH2 0x719 JUMPI DUP1 DUP3 ADD MLOAD DUP2 DUP5 ADD MSTORE PUSH1 0x20 DUP2 ADD SWAP1 POP PUSH2 0x6FE JUMP JUMPDEST DUP4 DUP2 GT ISZERO PUSH2 0x728 JUMPI PUSH1 0x0 DUP5 DUP5 ADD MSTORE JUMPDEST POP POP POP POP JUMP JUMPDEST PUSH1 0x0 PUSH1 0x2 DUP3 DIV SWAP1 POP PUSH1 0x1 DUP3 AND DUP1 PUSH2 0x746 JUMPI PUSH1 0x7F DUP3 AND SWAP2 POP JUMPDEST PUSH1 0x20 DUP3 LT DUP2 EQ ISZERO PUSH2 0x75A JUMPI PUSH2 0x759 PUSH2 0x791 JUMP JUMPDEST JUMPDEST POP SWAP2 SWAP1 POP JUMP JUMPDEST PUSH2 0x769 DUP3 PUSH2 0x803 JUMP JUMPDEST DUP2 ADD DUP2 DUP2 LT PUSH8 0xFFFFFFFFFFFFFFFF DUP3 GT OR ISZERO PUSH2 0x788 JUMPI PUSH2 0x787 PUSH2 0x7C0 JUMP JUMPDEST JUMPDEST DUP1 PUSH1 0x40 MSTORE POP POP POP JUMP JUMPDEST PUSH32 0x4E487B7100000000000000000000000000000000000000000000000000000000 PUSH1 0x0 MSTORE PUSH1 0x22 PUSH1 0x4 MSTORE PUSH1 0x24 PUSH1 0x0 REVERT JUMPDEST PUSH32 0x4E487B7100000000000000000000000000000000000000000000000000000000 PUSH1 0x0 MSTORE PUSH1 0x41 PUSH1 0x4 MSTORE PUSH1 0x24 PUSH1 0x0 REVERT JUMPDEST PUSH1 0x0 DUP1 REVERT JUMPDEST PUSH1 0x0 DUP1 REVERT JUMPDEST PUSH1 0x0 DUP1 REVERT JUMPDEST PUSH1 0x0 DUP1 REVERT JUMPDEST PUSH1 0x0 PUSH1 0x1F NOT PUSH1 0x1F DUP4 ADD AND SWAP1 POP SWAP2 SWAP1 POP JUMP JUMPDEST PUSH2 0x81D DUP2 PUSH2 0x6E2 JUMP JUMPDEST DUP2 EQ PUSH2 0x828 JUMPI PUSH1 0x0 DUP1 REVERT JUMPDEST POP JUMP INVALID LOG2 PUSH5 0x6970667358 0x22 SLT KECCAK256 GAS 0xC6 0x4A 0xAF ADD 0xA5 0xD9 0xB6 CALLDATALOAD PUSH22 0xF78F1B4F182464AA279116AF7CEF3307C0E7F391FF50 PUSH5 0x736F6C6343 STOP ADDMOD SMOD STOP CALLER "
				},
				"gasEstimates": {
					"creation": {
						"codeDepositCost": "642600",
						"executionCost": "infinite",
						"totalCost": "infinite"
					},
					"external": {
						"CreateNewSimpleStorageContact()": "infinite",
						"callStoreFromSimpleStorage(uint256)": "infinite",
						"getFavFromSimpleStorage()": "infinite",
						"simpleStorage()": "2641"
					}
				},
				"methodIdentifiers": {
					"CreateNewSimpleStorageContact()": "4678a3b1",
					"callStoreFromSimpleStorage(uint256)": "1e7e25b7",
					"getFavFromSimpleStorage()": "21fa92ec",
					"simpleStorage()": "6be0d6bf"
				}
			},
			"storageLayout": {
				"storage": [
					{
						"astId": 70,
						"contract": "contracts/StorageFactory.sol:StorageFactory",
						"label": "simpleStorage",
						"offset": 0,
						"slot": "0",
						"type": "t_contract(SimpleStorage)64"
					}
				],
				"types": {
					"t_contract(SimpleStorage)64": {
						"encoding": "inplace",
						"label": "contract SimpleStorage",
						"numberOfBytes": "20"
					}
				}
			},
			"userdoc": {
				"kind": "user",
				"methods": {},
				"version": 1
			}
		}
	}
}