{
	"data": {
		"bytecode": {
			"linkReferences": {},
			"object": "608060405234801561001057600080fd5b506108f2806100206000396000f3fe608060405234801561001057600080fd5b50600436106100625760003560e01c8063012d45ae14610067578063092a1820146100855780636057361d146100b6578063c7a0d9f6146100d2578063e907247c146100f0578063fe5be35614610121575b600080fd5b61006f61013d565b60405161007c9190610626565b60405180910390f35b61009f600480360381019061009a919061050d565b610146565b6040516100ad929190610641565b60405180910390f35b6100d060048036038101906100cb919061050d565b610202565b005b6100da610218565b6040516100e79190610626565b60405180910390f35b61010a600480360381019061010591906104c4565b61021e565b604051610118929190610641565b60405180910390f35b61013b6004803603810190610136919061053a565b6102e0565b005b60008054905090565b6002818154811061015657600080fd5b906000526020600020906002020160009150905080600001549080600101805461017f90610790565b80601f01602080910402602001604051908101604052809291908181526020018280546101ab90610790565b80156101f85780601f106101cd576101008083540402835291602001916101f8565b820191906000526020600020905b8154815290600101906020018083116101db57829003601f168201915b5050505050905082565b60058161020f91906106ee565b60008190555050565b60005481565b60018180516020810182018051848252602083016020850120818352809550505050505060009150905080600001549080600101805461025d90610790565b80601f016020809104026020016040519081016040528092919081815260200182805461028990610790565b80156102d65780601f106102ab576101008083540402835291602001916102d6565b820191906000526020600020905b8154815290600101906020018083116102b957829003601f168201915b5050505050905082565b60006040518060400160405280848152602001838152509050600281908060018154018082558091505060019003906000526020600020906002020160009091909190915060008201518160000155602082015181600101908051906020019061034b92919061039c565b5050508060018360405161035f919061060f565b908152602001604051809103902060008201518160000155602082015181600101908051906020019061039392919061039c565b50905050505050565b8280546103a890610790565b90600052602060002090601f0160209004810192826103ca5760008555610411565b82601f106103e357805160ff1916838001178555610411565b82800160010185558215610411579182015b828111156104105782518255916020019190600101906103f5565b5b50905061041e9190610422565b5090565b5b8082111561043b576000816000905550600101610423565b5090565b600061045261044d84610696565b610671565b90508281526020810184848401111561046e5761046d610885565b5b61047984828561074e565b509392505050565b600082601f83011261049657610495610880565b5b81356104a684826020860161043f565b91505092915050565b6000813590506104be816108a5565b92915050565b6000602082840312156104da576104d961088f565b5b600082013567ffffffffffffffff8111156104f8576104f761088a565b5b61050484828501610481565b91505092915050565b6000602082840312156105235761052261088f565b5b6000610531848285016104af565b91505092915050565b600080604083850312156105515761055061088f565b5b600061055f858286016104af565b925050602083013567ffffffffffffffff8111156105805761057f61088a565b5b61058c85828601610481565b9150509250929050565b60006105a1826106c7565b6105ab81856106d2565b93506105bb81856020860161075d565b6105c481610894565b840191505092915050565b60006105da826106c7565b6105e481856106e3565b93506105f481856020860161075d565b80840191505092915050565b61060981610744565b82525050565b600061061b82846105cf565b915081905092915050565b600060208201905061063b6000830184610600565b92915050565b60006040820190506106566000830185610600565b81810360208301526106688184610596565b90509392505050565b600061067b61068c565b905061068782826107c2565b919050565b6000604051905090565b600067ffffffffffffffff8211156106b1576106b0610851565b5b6106ba82610894565b9050602081019050919050565b600081519050919050565b600082825260208201905092915050565b600081905092915050565b60006106f982610744565b915061070483610744565b9250827fffffffffffffffffffffffffffffffffffffffffffffffffffffffffffffffff03821115610739576107386107f3565b5b828201905092915050565b6000819050919050565b82818337600083830152505050565b60005b8381101561077b578082015181840152602081019050610760565b8381111561078a576000848401525b50505050565b600060028204905060018216806107a857607f821691505b602082108114156107bc576107bb610822565b5b50919050565b6107cb82610894565b810181811067ffffffffffffffff821117156107ea576107e9610851565b5b80604052505050565b7f4e487b7100000000000000000000000000000000000000000000000000000000600052601160045260246000fd5b7f4e487b7100000000000000000000000000000000000000000000000000000000600052602260045260246000fd5b7f4e487b7100000000000000000000000000000000000000000000000000000000600052604160045260246000fd5b600080fd5b600080fd5b600080fd5b600080fd5b6000601f19601f8301169050919050565b6108ae81610744565b81146108b957600080fd5b5056fea26469706673582212209ca42618b2d0838b2c5e3f19dd6ecdbb0364e3d377b738c83ea357512719102b64736f6c63430008070033",
			"opcodes": "PUSH1 0x80 PUSH1 0x40 MSTORE CALLVALUE DUP1 ISZERO PUSH2 0x10 JUMPI PUSH1 0x0 DUP1 REVERT JUMPDEST POP PUSH2 0x8F2 DUP1 PUSH2 0x20 PUSH1 0x0 CODECOPY PUSH1 0x0 RETURN INVALID PUSH1 0x80 PUSH1 0x40 MSTORE CALLVALUE DUP1 ISZERO PUSH2 0x10 JUMPI PUSH1 0x0 DUP1 REVERT JUMPDEST POP PUSH1 0x4 CALLDATASIZE LT PUSH2 0x62 JUMPI PUSH1 0x0 CALLDATALOAD PUSH1 0xE0 SHR DUP1 PUSH4 0x12D45AE EQ PUSH2 0x67 JUMPI DUP1 PUSH4 0x92A1820 EQ PUSH2 0x85 JUMPI DUP1 PUSH4 0x6057361D EQ PUSH2 0xB6 JUMPI DUP1 PUSH4 0xC7A0D9F6 EQ PUSH2 0xD2 JUMPI DUP1 PUSH4 0xE907247C EQ PUSH2 0xF0 JUMPI DUP1 PUSH4 0xFE5BE356 EQ PUSH2 0x121 JUMPI JUMPDEST PUSH1 0x0 DUP1 REVERT JUMPDEST PUSH2 0x6F PUSH2 0x13D JUMP JUMPDEST PUSH1 0x40 MLOAD PUSH2 0x7C SWAP2 SWAP1 PUSH2 0x626 JUMP JUMPDEST PUSH1 0x40 MLOAD DUP1 SWAP2 SUB SWAP1 RETURN JUMPDEST PUSH2 0x9F PUSH1 0x4 DUP1 CALLDATASIZE SUB DUP2 ADD SWAP1 PUSH2 0x9A SWAP2 SWAP1 PUSH2 0x50D JUMP JUMPDEST PUSH2 0x146 JUMP JUMPDEST PUSH1 0x40 MLOAD PUSH2 0xAD SWAP3 SWAP2 SWAP1 PUSH2 0x641 JUMP JUMPDEST PUSH1 0x40 MLOAD DUP1 SWAP2 SUB SWAP1 RETURN JUMPDEST PUSH2 0xD0 PUSH1 0x4 DUP1 CALLDATASIZE SUB DUP2 ADD SWAP1 PUSH2 0xCB SWAP2 SWAP1 PUSH2 0x50D JUMP JUMPDEST PUSH2 0x202 JUMP JUMPDEST STOP JUMPDEST PUSH2 0xDA PUSH2 0x218 JUMP JUMPDEST PUSH1 0x40 MLOAD PUSH2 0xE7 SWAP2 SWAP1 PUSH2 0x626 JUMP JUMPDEST PUSH1 0x40 MLOAD DUP1 SWAP2 SUB SWAP1 RETURN JUMPDEST PUSH2 0x10A PUSH1 0x4 DUP1 CALLDATASIZE SUB DUP2 ADD SWAP1 PUSH2 0x105 SWAP2 SWAP1 PUSH2 0x4C4 JUMP JUMPDEST PUSH2 0x21E JUMP JUMPDEST PUSH1 0x40 MLOAD PUSH2 0x118 SWAP3 SWAP2 SWAP1 PUSH2 0x641 JUMP JUMPDEST PUSH1 0x40 MLOAD DUP1 SWAP2 SUB SWAP1 RETURN JUMPDEST PUSH2 0x13B PUSH1 0x4 DUP1 CALLDATASIZE SUB DUP2 ADD SWAP1 PUSH2 0x136 SWAP2 SWAP1 PUSH2 0x53A JUMP JUMPDEST PUSH2 0x2E0 JUMP JUMPDEST STOP JUMPDEST PUSH1 0x0 DUP1 SLOAD SWAP1 POP SWAP1 JUMP JUMPDEST PUSH1 0x2 DUP2 DUP2 SLOAD DUP2 LT PUSH2 0x156 JUMPI PUSH1 0x0 DUP1 REVERT JUMPDEST SWAP1 PUSH1 0x0 MSTORE PUSH1 0x20 PUSH1 0x0 KECCAK256 SWAP1 PUSH1 0x2 MUL ADD PUSH1 0x0 SWAP2 POP SWAP1 POP DUP1 PUSH1 0x0 ADD SLOAD SWAP1 DUP1 PUSH1 0x1 ADD DUP1 SLOAD PUSH2 0x17F SWAP1 PUSH2 0x790 JUMP JUMPDEST DUP1 PUSH1 0x1F ADD PUSH1 0x20 DUP1 SWAP2 DIV MUL PUSH1 0x20 ADD PUSH1 0x40 MLOAD SWAP1 DUP2 ADD PUSH1 0x40 MSTORE DUP1 SWAP3 SWAP2 SWAP1 DUP2 DUP2 MSTORE PUSH1 0x20 ADD DUP3 DUP1 SLOAD PUSH2 0x1AB SWAP1 PUSH2 0x790 JUMP JUMPDEST DUP1 ISZERO PUSH2 0x1F8 JUMPI DUP1 PUSH1 0x1F LT PUSH2 0x1CD JUMPI PUSH2 0x100 DUP1 DUP4 SLOAD DIV MUL DUP4 MSTORE SWAP2 PUSH1 0x20 ADD SWAP2 PUSH2 0x1F8 JUMP JUMPDEST DUP3 ADD SWAP2 SWAP1 PUSH1 0x0 MSTORE PUSH1 0x20 PUSH1 0x0 KECCAK256 SWAP1 JUMPDEST DUP2 SLOAD DUP2 MSTORE SWAP1 PUSH1 0x1 ADD SWAP1 PUSH1 0x20 ADD DUP1 DUP4 GT PUSH2 0x1DB JUMPI DUP3 SWAP1 SUB PUSH1 0x1F AND DUP3 ADD SWAP2 JUMPDEST POP POP POP POP POP SWAP1 POP DUP3 JUMP JUMPDEST PUSH1 0x5 DUP2 PUSH2 0x20F SWAP2 SWAP1 PUSH2 0x6EE JUMP JUMPDEST PUSH1 0x0 DUP2 SWAP1 SSTORE POP POP JUMP JUMPDEST PUSH1 0x0 SLOAD DUP2 JUMP JUMPDEST PUSH1 0x1 DUP2 DUP1 MLOAD PUSH1 0x20 DUP2 ADD DUP3 ADD DUP1 MLOAD DUP5 DUP3 MSTORE PUSH1 0x20 DUP4 ADD PUSH1 0x20 DUP6 ADD KECCAK256 DUP2 DUP4 MSTORE DUP1 SWAP6 POP POP POP POP POP POP PUSH1 0x0 SWAP2 POP SWAP1 POP DUP1 PUSH1 0x0 ADD SLOAD SWAP1 DUP1 PUSH1 0x1 ADD DUP1 SLOAD PUSH2 0x25D SWAP1 PUSH2 0x790 JUMP JUMPDEST DUP1 PUSH1 0x1F ADD PUSH1 0x20 DUP1 SWAP2 DIV MUL PUSH1 0x20 ADD PUSH1 0x40 MLOAD SWAP1 DUP2 ADD PUSH1 0x40 MSTORE DUP1 SWAP3 SWAP2 SWAP1 DUP2 DUP2 MSTORE PUSH1 0x20 ADD DUP3 DUP1 SLOAD PUSH2 0x289 SWAP1 PUSH2 0x790 JUMP JUMPDEST DUP1 ISZERO PUSH2 0x2D6 JUMPI DUP1 PUSH1 0x1F LT PUSH2 0x2AB JUMPI PUSH2 0x100 DUP1 DUP4 SLOAD DIV MUL DUP4 MSTORE SWAP2 PUSH1 0x20 ADD SWAP2 PUSH2 0x2D6 JUMP JUMPDEST DUP3 ADD SWAP2 SWAP1 PUSH1 0x0 MSTORE PUSH1 0x20 PUSH1 0x0 KECCAK256 SWAP1 JUMPDEST DUP2 SLOAD DUP2 MSTORE SWAP1 PUSH1 0x1 ADD SWAP1 PUSH1 0x20 ADD DUP1 DUP4 GT PUSH2 0x2B9 JUMPI DUP3 SWAP1 SUB PUSH1 0x1F AND DUP3 ADD SWAP2 JUMPDEST POP POP POP POP POP SWAP1 POP DUP3 JUMP JUMPDEST PUSH1 0x0 PUSH1 0x40 MLOAD DUP1 PUSH1 0x40 ADD PUSH1 0x40 MSTORE DUP1 DUP5 DUP2 MSTORE PUSH1 0x20 ADD DUP4 DUP2 MSTORE POP SWAP1 POP PUSH1 0x2 DUP2 SWAP1 DUP1 PUSH1 0x1 DUP2 SLOAD ADD DUP1 DUP3 SSTORE DUP1 SWAP2 POP POP PUSH1 0x1 SWAP1 SUB SWAP1 PUSH1 0x0 MSTORE PUSH1 0x20 PUSH1 0x0 KECCAK256 SWAP1 PUSH1 0x2 MUL ADD PUSH1 0x0 SWAP1 SWAP2 SWAP1 SWAP2 SWAP1 SWAP2 POP PUSH1 0x0 DUP3 ADD MLOAD DUP2 PUSH1 0x0 ADD SSTORE PUSH1 0x20 DUP3 ADD MLOAD DUP2 PUSH1 0x1 ADD SWAP1 DUP1 MLOAD SWAP1 PUSH1 0x20 ADD SWAP1 PUSH2 0x34B SWAP3 SWAP2 SWAP1 PUSH2 0x39C JUMP JUMPDEST POP POP POP DUP1 PUSH1 0x1 DUP4 PUSH1 0x40 MLOAD PUSH2 0x35F SWAP2 SWAP1 PUSH2 0x60F JUMP JUMPDEST SWAP1 DUP2 MSTORE PUSH1 0x20 ADD PUSH1 0x40 MLOAD DUP1 SWAP2 SUB SWAP1 KECCAK256 PUSH1 0x0 DUP3 ADD MLOAD DUP2 PUSH1 0x0 ADD SSTORE PUSH1 0x20 DUP3 ADD MLOAD DUP2 PUSH1 0x1 ADD SWAP1 DUP1 MLOAD SWAP1 PUSH1 0x20 ADD SWAP1 PUSH2 0x393 SWAP3 SWAP2 SWAP1 PUSH2 0x39C JUMP JUMPDEST POP SWAP1 POP POP POP POP POP JUMP JUMPDEST DUP3 DUP1 SLOAD PUSH2 0x3A8 SWAP1 PUSH2 0x790 JUMP JUMPDEST SWAP1 PUSH1 0x0 MSTORE PUSH1 0x20 PUSH1 0x0 KECCAK256 SWAP1 PUSH1 0x1F ADD PUSH1 0x20 SWAP1 DIV DUP2 ADD SWAP3 DUP3 PUSH2 0x3CA JUMPI PUSH1 0x0 DUP6 SSTORE PUSH2 0x411 JUMP JUMPDEST DUP3 PUSH1 0x1F LT PUSH2 0x3E3 JUMPI DUP1 MLOAD PUSH1 0xFF NOT AND DUP4 DUP1 ADD OR DUP6 SSTORE PUSH2 0x411 JUMP JUMPDEST DUP3 DUP1 ADD PUSH1 0x1 ADD DUP6 SSTORE DUP3 ISZERO PUSH2 0x411 JUMPI SWAP2 DUP3 ADD JUMPDEST DUP3 DUP2 GT ISZERO PUSH2 0x410 JUMPI DUP3 MLOAD DUP3 SSTORE SWAP2 PUSH1 0x20 ADD SWAP2 SWAP1 PUSH1 0x1 ADD SWAP1 PUSH2 0x3F5 JUMP JUMPDEST JUMPDEST POP SWAP1 POP PUSH2 0x41E SWAP2 SWAP1 PUSH2 0x422 JUMP JUMPDEST POP SWAP1 JUMP JUMPDEST JUMPDEST DUP1 DUP3 GT ISZERO PUSH2 0x43B JUMPI PUSH1 0x0 DUP2 PUSH1 0x0 SWAP1 SSTORE POP PUSH1 0x1 ADD PUSH2 0x423 JUMP JUMPDEST POP SWAP1 JUMP JUMPDEST PUSH1 0x0 PUSH2 0x452 PUSH2 0x44D DUP5 PUSH2 0x696 JUMP JUMPDEST PUSH2 0x671 JUMP JUMPDEST SWAP1 POP DUP3 DUP2 MSTORE PUSH1 0x20 DUP2 ADD DUP5 DUP5 DUP5 ADD GT ISZERO PUSH2 0x46E JUMPI PUSH2 0x46D PUSH2 0x885 JUMP JUMPDEST JUMPDEST PUSH2 0x479 DUP5 DUP3 DUP6 PUSH2 0x74E JUMP JUMPDEST POP SWAP4 SWAP3 POP POP POP JUMP JUMPDEST PUSH1 0x0 DUP3 PUSH1 0x1F DUP4 ADD SLT PUSH2 0x496 JUMPI PUSH2 0x495 PUSH2 0x880 JUMP JUMPDEST JUMPDEST DUP2 CALLDATALOAD PUSH2 0x4A6 DUP5 DUP3 PUSH1 0x20 DUP7 ADD PUSH2 0x43F JUMP JUMPDEST SWAP2 POP POP SWAP3 SWAP2 POP POP JUMP JUMPDEST PUSH1 0x0 DUP2 CALLDATALOAD SWAP1 POP PUSH2 0x4BE DUP2 PUSH2 0x8A5 JUMP JUMPDEST SWAP3 SWAP2 POP POP JUMP JUMPDEST PUSH1 0x0 PUSH1 0x20 DUP3 DUP5 SUB SLT ISZERO PUSH2 0x4DA JUMPI PUSH2 0x4D9 PUSH2 0x88F JUMP JUMPDEST JUMPDEST PUSH1 0x0 DUP3 ADD CALLDATALOAD PUSH8 0xFFFFFFFFFFFFFFFF DUP2 GT ISZERO PUSH2 0x4F8 JUMPI PUSH2 0x4F7 PUSH2 0x88A JUMP JUMPDEST JUMPDEST PUSH2 0x504 DUP5 DUP3 DUP6 ADD PUSH2 0x481 JUMP JUMPDEST SWAP2 POP POP SWAP3 SWAP2 POP POP JUMP JUMPDEST PUSH1 0x0 PUSH1 0x20 DUP3 DUP5 SUB SLT ISZERO PUSH2 0x523 JUMPI PUSH2 0x522 PUSH2 0x88F JUMP JUMPDEST JUMPDEST PUSH1 0x0 PUSH2 0x531 DUP5 DUP3 DUP6 ADD PUSH2 0x4AF JUMP JUMPDEST SWAP2 POP POP SWAP3 SWAP2 POP POP JUMP JUMPDEST PUSH1 0x0 DUP1 PUSH1 0x40 DUP4 DUP6 SUB SLT ISZERO PUSH2 0x551 JUMPI PUSH2 0x550 PUSH2 0x88F JUMP JUMPDEST JUMPDEST PUSH1 0x0 PUSH2 0x55F DUP6 DUP3 DUP7 ADD PUSH2 0x4AF JUMP JUMPDEST SWAP3 POP POP PUSH1 0x20 DUP4 ADD CALLDATALOAD PUSH8 0xFFFFFFFFFFFFFFFF DUP2 GT ISZERO PUSH2 0x580 JUMPI PUSH2 0x57F PUSH2 0x88A JUMP JUMPDEST JUMPDEST PUSH2 0x58C DUP6 DUP3 DUP7 ADD PUSH2 0x481 JUMP JUMPDEST SWAP2 POP POP SWAP3 POP SWAP3 SWAP1 POP JUMP JUMPDEST PUSH1 0x0 PUSH2 0x5A1 DUP3 PUSH2 0x6C7 JUMP JUMPDEST PUSH2 0x5AB DUP2 DUP6 PUSH2 0x6D2 JUMP JUMPDEST SWAP4 POP PUSH2 0x5BB DUP2 DUP6 PUSH1 0x20 DUP7 ADD PUSH2 0x75D JUMP JUMPDEST PUSH2 0x5C4 DUP2 PUSH2 0x894 JUMP JUMPDEST DUP5 ADD SWAP2 POP POP SWAP3 SWAP2 POP POP JUMP JUMPDEST PUSH1 0x0 PUSH2 0x5DA DUP3 PUSH2 0x6C7 JUMP JUMPDEST PUSH2 0x5E4 DUP2 DUP6 PUSH2 0x6E3 JUMP JUMPDEST SWAP4 POP PUSH2 0x5F4 DUP2 DUP6 PUSH1 0x20 DUP7 ADD PUSH2 0x75D JUMP JUMPDEST DUP1 DUP5 ADD SWAP2 POP POP SWAP3 SWAP2 POP POP JUMP JUMPDEST PUSH2 0x609 DUP2 PUSH2 0x744 JUMP JUMPDEST DUP3 MSTORE POP POP JUMP JUMPDEST PUSH1 0x0 PUSH2 0x61B DUP3 DUP5 PUSH2 0x5CF JUMP JUMPDEST SWAP2 POP DUP2 SWAP1 POP SWAP3 SWAP2 POP POP JUMP JUMPDEST PUSH1 0x0 PUSH1 0x20 DUP3 ADD SWAP1 POP PUSH2 0x63B PUSH1 0x0 DUP4 ADD DUP5 PUSH2 0x600 JUMP JUMPDEST SWAP3 SWAP2 POP POP JUMP JUMPDEST PUSH1 0x0 PUSH1 0x40 DUP3 ADD SWAP1 POP PUSH2 0x656 PUSH1 0x0 DUP4 ADD DUP6 PUSH2 0x600 JUMP JUMPDEST DUP2 DUP2 SUB PUSH1 0x20 DUP4 ADD MSTORE PUSH2 0x668 DUP2 DUP5 PUSH2 0x596 JUMP JUMPDEST SWAP1 POP SWAP4 SWAP3 POP POP POP JUMP JUMPDEST PUSH1 0x0 PUSH2 0x67B PUSH2 0x68C JUMP JUMPDEST SWAP1 POP PUSH2 0x687 DUP3 DUP3 PUSH2 0x7C2 JUMP JUMPDEST SWAP2 SWAP1 POP JUMP JUMPDEST PUSH1 0x0 PUSH1 0x40 MLOAD SWAP1 POP SWAP1 JUMP JUMPDEST PUSH1 0x0 PUSH8 0xFFFFFFFFFFFFFFFF DUP3 GT ISZERO PUSH2 0x6B1 JUMPI PUSH2 0x6B0 PUSH2 0x851 JUMP JUMPDEST JUMPDEST PUSH2 0x6BA DUP3 PUSH2 0x894 JUMP JUMPDEST SWAP1 POP PUSH1 0x20 DUP2 ADD SWAP1 POP SWAP2 SWAP1 POP JUMP JUMPDEST PUSH1 0x0 DUP2 MLOAD SWAP1 POP SWAP2 SWAP1 POP JUMP JUMPDEST PUSH1 0x0 DUP3 DUP3 MSTORE PUSH1 0x20 DUP3 ADD SWAP1 POP SWAP3 SWAP2 POP POP JUMP JUMPDEST PUSH1 0x0 DUP2 SWAP1 POP SWAP3 SWAP2 POP POP JUMP JUMPDEST PUSH1 0x0 PUSH2 0x6F9 DUP3 PUSH2 0x744 JUMP JUMPDEST SWAP2 POP PUSH2 0x704 DUP4 PUSH2 0x744 JUMP JUMPDEST SWAP3 POP DUP3 PUSH32 0xFFFFFFFFFFFFFFFFFFFFFFFFFFFFFFFFFFFFFFFFFFFFFFFFFFFFFFFFFFFFFFFF SUB DUP3 GT ISZERO PUSH2 0x739 JUMPI PUSH2 0x738 PUSH2 0x7F3 JUMP JUMPDEST JUMPDEST DUP3 DUP3 ADD SWAP1 POP SWAP3 SWAP2 POP POP JUMP JUMPDEST PUSH1 0x0 DUP2 SWAP1 POP SWAP2 SWAP1 POP JUMP JUMPDEST DUP3 DUP2 DUP4 CALLDATACOPY PUSH1 0x0 DUP4 DUP4 ADD MSTORE POP POP POP JUMP JUMPDEST PUSH1 0x0 JUMPDEST DUP4 DUP2 LT ISZERO PUSH2 0x77B JUMPI DUP1 DUP3 ADD MLOAD DUP2 DUP5 ADD MSTORE PUSH1 0x20 DUP2 ADD SWAP1 POP PUSH2 0x760 JUMP JUMPDEST DUP4 DUP2 GT ISZERO PUSH2 0x78A JUMPI PUSH1 0x0 DUP5 DUP5 ADD MSTORE JUMPDEST POP POP POP POP JUMP JUMPDEST PUSH1 0x0 PUSH1 0x2 DUP3 DIV SWAP1 POP PUSH1 0x1 DUP3 AND DUP1 PUSH2 0x7A8 JUMPI PUSH1 0x7F DUP3 AND SWAP2 POP JUMPDEST PUSH1 0x20 DUP3 LT DUP2 EQ ISZERO PUSH2 0x7BC JUMPI PUSH2 0x7BB PUSH2 0x822 JUMP JUMPDEST JUMPDEST POP SWAP2 SWAP1 POP JUMP JUMPDEST PUSH2 0x7CB DUP3 PUSH2 0x894 JUMP JUMPDEST DUP2 ADD DUP2 DUP2 LT PUSH8 0xFFFFFFFFFFFFFFFF DUP3 GT OR ISZERO PUSH2 0x7EA JUMPI PUSH2 0x7E9 PUSH2 0x851 JUMP JUMPDEST JUMPDEST DUP1 PUSH1 0x40 MSTORE POP POP POP JUMP JUMPDEST PUSH32 0x4E487B7100000000000000000000000000000000000000000000000000000000 PUSH1 0x0 MSTORE PUSH1 0x11 PUSH1 0x4 MSTORE PUSH1 0x24 PUSH1 0x0 REVERT JUMPDEST PUSH32 0x4E487B7100000000000000000000000000000000000000000000000000000000 PUSH1 0x0 MSTORE PUSH1 0x22 PUSH1 0x4 MSTORE PUSH1 0x24 PUSH1 0x0 REVERT JUMPDEST PUSH32 0x4E487B7100000000000000000000000000000000000000000000000000000000 PUSH1 0x0 MSTORE PUSH1 0x41 PUSH1 0x4 MSTORE PUSH1 0x24 PUSH1 0x0 REVERT JUMPDEST PUSH1 0x0 DUP1 REVERT JUMPDEST PUSH1 0x0 DUP1 REVERT JUMPDEST PUSH1 0x0 DUP1 REVERT JUMPDEST PUSH1 0x0 DUP1 REVERT JUMPDEST PUSH1 0x0 PUSH1 0x1F NOT PUSH1 0x1F DUP4 ADD AND SWAP1 POP SWAP2 SWAP1 POP JUMP JUMPDEST PUSH2 0x8AE DUP2 PUSH2 0x744 JUMP JUMPDEST DUP2 EQ PUSH2 0x8B9 JUMPI PUSH1 0x0 DUP1 REVERT JUMPDEST POP JUMP INVALID LOG2 PUSH5 0x6970667358 0x22 SLT KECCAK256 SWAP13 LOG4 0x26 XOR 0xB2 0xD0 DUP4 DUP12 0x2C 0x5E EXTCODEHASH NOT 0xDD PUSH15 0xCDBB0364E3D377B738C83EA3575127 NOT LT 0x2B PUSH5 0x736F6C6343 STOP ADDMOD SMOD STOP CALLER "
		},
		"gasEstimates": {
			"creation": {
				"codeDepositCost": "458000",
				"executionCost": "493",
				"totalCost": "458493"
			},
			"external": {
				"createNewPerson(uint256,string)": "infinite",
				"favNumber()": "2473",
				"getFavNumber()": "2415",
				"getPerson(string)": "infinite",
				"person(uint256)": "infinite",
				"store(uint256)": "infinite"
			}
		},
		"methodIdentifiers": {
			"createNewPerson(uint256,string)": "fe5be356",
			"favNumber()": "c7a0d9f6",
			"getFavNumber()": "012d45ae",
			"getPerson(string)": "e907247c",
			"person(uint256)": "092a1820",
			"store(uint256)": "6057361d"
		}
	},
	"abi": [
		{
			"inputs": [
				{
					"internalType": "uint256",
					"name": "age",
					"type": "uint256"
				},
				{
					"internalType": "string",
					"name": "name",
					"type": "string"
				}
			],
			"name": "createNewPerson",
			"outputs": [],
			"stateMutability": "nonpayable",
			"type": "function"
		},
		{
			"inputs": [],
			"name": "favNumber",
			"outputs": [
				{
					"internalType": "uint256",
					"name": "",
					"type": "uint256"
				}
			],
			"stateMutability": "view",
			"type": "function"
		},
		{
			"inputs": [],
			"name": "getFavNumber",
			"outputs": [
				{
					"internalType": "uint256",
					"name": "",
					"type": "uint256"
				}
			],
			"stateMutability": "view",
			"type": "function"
		},
		{
			"inputs": [
				{
					"internalType": "string",
					"name": "",
					"type": "string"
				}
			],
			"name": "getPerson",
			"outputs": [
				{
					"internalType": "uint256",
					"name": "age",
					"type": "uint256"
				},
				{
					"internalType": "string",
					"name": "name",
					"type": "string"
				}
			],
			"stateMutability": "view",
			"type": "function"
		},
		{
			"inputs": [
				{
					"internalType": "uint256",
					"name": "",
					"type": "uint256"
				}
			],
			"name": "person",
			"outputs": [
				{
					"internalType": "uint256",
					"name": "age",
					"type": "uint256"
				},
				{
					"internalType": "string",
					"name": "name",
					"type": "string"
				}
			],
			"stateMutability": "view",
			"type": "function"
		},
		{
			"inputs": [
				{
					"internalType": "uint256",
					"name": "_favNumber",
					"type": "uint256"
				}
			],
			"name": "store",
			"outputs": [],
			"stateMutability": "nonpayable",
			"type": "function"
		}
	]
}